{
  "abi": [
    {
      "inputs": [],
      "stateMutability": "nonpayable",
      "type": "constructor"
    },
    {
      "anonymous": false,
      "inputs": [
        {
          "indexed": false,
          "internalType": "address",
          "name": "previousAdmin",
          "type": "address"
        },
        {
          "indexed": false,
          "internalType": "address",
          "name": "newAdmin",
          "type": "address"
        }
      ],
      "name": "AdminChanged",
      "type": "event"
    },
    {
      "anonymous": false,
      "inputs": [
        {
          "indexed": true,
          "internalType": "address",
          "name": "beacon",
          "type": "address"
        }
      ],
      "name": "BeaconUpgraded",
      "type": "event"
    },
    {
      "anonymous": false,
      "inputs": [
        {
          "indexed": false,
          "internalType": "uint8",
          "name": "version",
          "type": "uint8"
        }
      ],
      "name": "Initialized",
      "type": "event"
    },
    {
      "anonymous": false,
      "inputs": [
        {
          "indexed": true,
          "internalType": "bytes32",
          "name": "role",
          "type": "bytes32"
        },
        {
          "indexed": true,
          "internalType": "bytes32",
          "name": "previousAdminRole",
          "type": "bytes32"
        },
        {
          "indexed": true,
          "internalType": "bytes32",
          "name": "newAdminRole",
          "type": "bytes32"
        }
      ],
      "name": "RoleAdminChanged",
      "type": "event"
    },
    {
      "anonymous": false,
      "inputs": [
        {
          "indexed": true,
          "internalType": "bytes32",
          "name": "role",
          "type": "bytes32"
        },
        {
          "indexed": true,
          "internalType": "address",
          "name": "account",
          "type": "address"
        },
        {
          "indexed": true,
          "internalType": "address",
          "name": "sender",
          "type": "address"
        }
      ],
      "name": "RoleGranted",
      "type": "event"
    },
    {
      "anonymous": false,
      "inputs": [
        {
          "indexed": true,
          "internalType": "bytes32",
          "name": "role",
          "type": "bytes32"
        },
        {
          "indexed": true,
          "internalType": "address",
          "name": "account",
          "type": "address"
        },
        {
          "indexed": true,
          "internalType": "address",
          "name": "sender",
          "type": "address"
        }
      ],
      "name": "RoleRevoked",
      "type": "event"
    },
    {
      "anonymous": false,
      "inputs": [
        {
          "indexed": true,
          "internalType": "address",
          "name": "implementation",
          "type": "address"
        }
      ],
      "name": "Upgraded",
      "type": "event"
    },
    {
      "inputs": [],
      "name": "DEFAULT_ADMIN_ROLE",
      "outputs": [
        {
          "internalType": "bytes32",
          "name": "",
          "type": "bytes32"
        }
      ],
      "stateMutability": "view",
      "type": "function"
    },
    {
      "inputs": [],
      "name": "UPGRADER_ROLE",
      "outputs": [
        {
          "internalType": "bytes32",
          "name": "",
          "type": "bytes32"
        }
      ],
      "stateMutability": "view",
      "type": "function"
    },
    {
      "inputs": [
        {
          "internalType": "bytes32",
          "name": "role",
          "type": "bytes32"
        }
      ],
      "name": "getRoleAdmin",
      "outputs": [
        {
          "internalType": "bytes32",
          "name": "",
          "type": "bytes32"
        }
      ],
      "stateMutability": "view",
      "type": "function"
    },
    {
      "inputs": [
        {
          "internalType": "bytes32",
          "name": "role",
          "type": "bytes32"
        },
        {
          "internalType": "address",
          "name": "account",
          "type": "address"
        }
      ],
      "name": "grantRole",
      "outputs": [],
      "stateMutability": "nonpayable",
      "type": "function"
    },
    {
      "inputs": [
        {
          "internalType": "bytes32",
          "name": "role",
          "type": "bytes32"
        },
        {
          "internalType": "address",
          "name": "account",
          "type": "address"
        }
      ],
      "name": "hasRole",
      "outputs": [
        {
          "internalType": "bool",
          "name": "",
          "type": "bool"
        }
      ],
      "stateMutability": "view",
      "type": "function"
    },
    {
      "inputs": [],
      "name": "initialize",
      "outputs": [],
      "stateMutability": "nonpayable",
      "type": "function"
    },
    {
      "inputs": [],
      "name": "proxiableUUID",
      "outputs": [
        {
          "internalType": "bytes32",
          "name": "",
          "type": "bytes32"
        }
      ],
      "stateMutability": "view",
      "type": "function"
    },
    {
      "inputs": [
        {
          "internalType": "bytes32",
          "name": "role",
          "type": "bytes32"
        },
        {
          "internalType": "address",
          "name": "account",
          "type": "address"
        }
      ],
      "name": "renounceRole",
      "outputs": [],
      "stateMutability": "nonpayable",
      "type": "function"
    },
    {
      "inputs": [
        {
          "internalType": "bytes32",
          "name": "role",
          "type": "bytes32"
        },
        {
          "internalType": "address",
          "name": "account",
          "type": "address"
        }
      ],
      "name": "revokeRole",
      "outputs": [],
      "stateMutability": "nonpayable",
      "type": "function"
    },
    {
      "inputs": [
        {
          "internalType": "bytes4",
          "name": "interfaceId",
          "type": "bytes4"
        }
      ],
      "name": "supportsInterface",
      "outputs": [
        {
          "internalType": "bool",
          "name": "",
          "type": "bool"
        }
      ],
      "stateMutability": "view",
      "type": "function"
    },
    {
      "inputs": [
        {
          "internalType": "address",
          "name": "newImplementation",
          "type": "address"
        }
      ],
      "name": "upgradeTo",
      "outputs": [],
      "stateMutability": "nonpayable",
      "type": "function"
    },
    {
      "inputs": [
        {
          "internalType": "address",
          "name": "newImplementation",
          "type": "address"
        },
        {
          "internalType": "bytes",
          "name": "data",
          "type": "bytes"
        }
      ],
      "name": "upgradeToAndCall",
      "outputs": [],
      "stateMutability": "payable",
      "type": "function"
    }
  ],
  "bytecode": {
    "object": "0x60a06040523060805234801561001457600080fd5b5061001d610022565b6100e1565b600054610100900460ff161561008e5760405162461bcd60e51b815260206004820152602760248201527f496e697469616c697a61626c653a20636f6e747261637420697320696e697469604482015266616c697a696e6760c81b606482015260840160405180910390fd5b60005460ff908116146100df576000805460ff191660ff9081179091556040519081527f7f26b83ff96e1f2b6a682f133852f6798a09c465da95921460cefb38474024989060200160405180910390a15b565b6080516112786101186000396000818161033501528181610375015281816104140152818161045401526104e301526112786000f3fe6080604052600436106100a75760003560e01c806352d1902d1161006457806352d1902d146101945780638129fc1c146101a957806391d14854146101be578063a217fddf146101de578063d547741f146101f3578063f72c0d8b1461021357600080fd5b806301ffc9a7146100ac578063248a9ca3146100e15780632f2ff15d1461011f57806336568abe146101415780633659cfe6146101615780634f1ef28614610181575b600080fd5b3480156100b857600080fd5b506100cc6100c7366004610e77565b610247565b60405190151581526020015b60405180910390f35b3480156100ed57600080fd5b506101116100fc366004610ea1565b60009081526065602052604090206001015490565b6040519081526020016100d8565b34801561012b57600080fd5b5061013f61013a366004610ed6565b61027e565b005b34801561014d57600080fd5b5061013f61015c366004610ed6565b6102a8565b34801561016d57600080fd5b5061013f61017c366004610f02565b61032b565b61013f61018f366004610f33565b61040a565b3480156101a057600080fd5b506101116104d6565b3480156101b557600080fd5b5061013f610589565b3480156101ca57600080fd5b506100cc6101d9366004610ed6565b6106d6565b3480156101ea57600080fd5b50610111600081565b3480156101ff57600080fd5b5061013f61020e366004610ed6565b610701565b34801561021f57600080fd5b506101117f189ab7a9244df0848122154315af71fe140f3db0fe014031783b0946b8c9d2e381565b60006001600160e01b03198216637965db0b60e01b148061027857506301ffc9a760e01b6001600160e01b03198316145b92915050565b60008281526065602052604090206001015461029981610726565b6102a38383610730565b505050565b6001600160a01b038116331461031d5760405162461bcd60e51b815260206004820152602f60248201527f416363657373436f6e74726f6c3a2063616e206f6e6c792072656e6f756e636560448201526e103937b632b9903337b91039b2b63360891b60648201526084015b60405180910390fd5b61032782826107b6565b5050565b6001600160a01b037f00000000000000000000000000000000000000000000000000000000000000001630036103735760405162461bcd60e51b815260040161031490610ff5565b7f00000000000000000000000000000000000000000000000000000000000000006001600160a01b03166103bc6000805160206111fc833981519152546001600160a01b031690565b6001600160a01b0316146103e25760405162461bcd60e51b815260040161031490611041565b6103eb8161081d565b6040805160008082526020820190925261040791839190610847565b50565b6001600160a01b037f00000000000000000000000000000000000000000000000000000000000000001630036104525760405162461bcd60e51b815260040161031490610ff5565b7f00000000000000000000000000000000000000000000000000000000000000006001600160a01b031661049b6000805160206111fc833981519152546001600160a01b031690565b6001600160a01b0316146104c15760405162461bcd60e51b815260040161031490611041565b6104ca8261081d565b61032782826001610847565b6000306001600160a01b037f000000000000000000000000000000000000000000000000000000000000000016146105765760405162461bcd60e51b815260206004820152603860248201527f555550535570677261646561626c653a206d757374206e6f742062652063616c60448201527f6c6564207468726f7567682064656c656761746563616c6c00000000000000006064820152608401610314565b506000805160206111fc83398151915290565b600054610100900460ff16158080156105a95750600054600160ff909116105b806105c35750303b1580156105c3575060005460ff166001145b6106265760405162461bcd60e51b815260206004820152602e60248201527f496e697469616c697a61626c653a20636f6e747261637420697320616c72656160448201526d191e481a5b9a5d1a585b1a5e995960921b6064820152608401610314565b6000805460ff191660011790558015610649576000805461ff0019166101001790555b6106516109b2565b6106596109b2565b610664600033610730565b61068e7f189ab7a9244df0848122154315af71fe140f3db0fe014031783b0946b8c9d2e333610730565b8015610407576000805461ff0019169055604051600181527f7f26b83ff96e1f2b6a682f133852f6798a09c465da95921460cefb38474024989060200160405180910390a150565b60009182526065602090815260408084206001600160a01b0393909316845291905290205460ff1690565b60008281526065602052604090206001015461071c81610726565b6102a383836107b6565b6104078133610a1f565b61073a82826106d6565b6103275760008281526065602090815260408083206001600160a01b03851684529091529020805460ff191660011790556107723390565b6001600160a01b0316816001600160a01b0316837f2f8788117e7eff1d82e926ec794901d17c78024a50270940304540a733656f0d60405160405180910390a45050565b6107c082826106d6565b156103275760008281526065602090815260408083206001600160a01b0385168085529252808320805460ff1916905551339285917ff6391f5c32d9c69d2a47ea670b442974b53935d1edc7fd64eb21e047a839171b9190a45050565b7f189ab7a9244df0848122154315af71fe140f3db0fe014031783b0946b8c9d2e361032781610726565b7f4910fdfa16fed3260ed0e7147f7cc6da11a60208b5b9406d12a635614ffd91435460ff161561087a576102a383610a78565b826001600160a01b03166352d1902d6040518163ffffffff1660e01b8152600401602060405180830381865afa9250505080156108d4575060408051601f3d908101601f191682019092526108d19181019061108d565b60015b6109375760405162461bcd60e51b815260206004820152602e60248201527f45524331393637557067726164653a206e657720696d706c656d656e7461746960448201526d6f6e206973206e6f74205555505360901b6064820152608401610314565b6000805160206111fc83398151915281146109a65760405162461bcd60e51b815260206004820152602960248201527f45524331393637557067726164653a20756e737570706f727465642070726f786044820152681a58589b195555525160ba1b6064820152608401610314565b506102a3838383610b14565b600054610100900460ff16610a1d5760405162461bcd60e51b815260206004820152602b60248201527f496e697469616c697a61626c653a20636f6e7472616374206973206e6f74206960448201526a6e697469616c697a696e6760a81b6064820152608401610314565b565b610a2982826106d6565b61032757610a3681610b3f565b610a41836020610b51565b604051602001610a529291906110ca565b60408051601f198184030181529082905262461bcd60e51b82526103149160040161113f565b6001600160a01b0381163b610ae55760405162461bcd60e51b815260206004820152602d60248201527f455243313936373a206e657720696d706c656d656e746174696f6e206973206e60448201526c1bdd08184818dbdb9d1c9858dd609a1b6064820152608401610314565b6000805160206111fc83398151915280546001600160a01b0319166001600160a01b0392909216919091179055565b610b1d83610cf4565b600082511180610b2a5750805b156102a357610b398383610d34565b50505050565b60606102786001600160a01b03831660145b60606000610b60836002611188565b610b6b90600261119f565b67ffffffffffffffff811115610b8357610b83610f1d565b6040519080825280601f01601f191660200182016040528015610bad576020820181803683370190505b509050600360fc1b81600081518110610bc857610bc86111b2565b60200101906001600160f81b031916908160001a905350600f60fb1b81600181518110610bf757610bf76111b2565b60200101906001600160f81b031916908160001a9053506000610c1b846002611188565b610c2690600161119f565b90505b6001811115610c9e576f181899199a1a9b1b9c1cb0b131b232b360811b85600f1660108110610c5a57610c5a6111b2565b1a60f81b828281518110610c7057610c706111b2565b60200101906001600160f81b031916908160001a90535060049490941c93610c97816111c8565b9050610c29565b508315610ced5760405162461bcd60e51b815260206004820181905260248201527f537472696e67733a20686578206c656e67746820696e73756666696369656e746044820152606401610314565b9392505050565b610cfd81610a78565b6040516001600160a01b038216907fbc7cd75a20ee27fd9adebab32041f755214dbc6bffa90cc0225b39da2e5c2d3b90600090a250565b6060610ced838360405180606001604052806027815260200161121c602791396060600080856001600160a01b031685604051610d7191906111df565b600060405180830381855af49150503d8060008114610dac576040519150601f19603f3d011682016040523d82523d6000602084013e610db1565b606091505b5091509150610dc286838387610dcc565b9695505050505050565b60608315610e3b578251600003610e34576001600160a01b0385163b610e345760405162461bcd60e51b815260206004820152601d60248201527f416464726573733a2063616c6c20746f206e6f6e2d636f6e74726163740000006044820152606401610314565b5081610e45565b610e458383610e4d565b949350505050565b815115610e5d5781518083602001fd5b8060405162461bcd60e51b8152600401610314919061113f565b600060208284031215610e8957600080fd5b81356001600160e01b031981168114610ced57600080fd5b600060208284031215610eb357600080fd5b5035919050565b80356001600160a01b0381168114610ed157600080fd5b919050565b60008060408385031215610ee957600080fd5b82359150610ef960208401610eba565b90509250929050565b600060208284031215610f1457600080fd5b610ced82610eba565b634e487b7160e01b600052604160045260246000fd5b60008060408385031215610f4657600080fd5b610f4f83610eba565b9150602083013567ffffffffffffffff80821115610f6c57600080fd5b818501915085601f830112610f8057600080fd5b813581811115610f9257610f92610f1d565b604051601f8201601f19908116603f01168101908382118183101715610fba57610fba610f1d565b81604052828152886020848701011115610fd357600080fd5b8260208601602083013760006020848301015280955050505050509250929050565b6020808252602c908201527f46756e6374696f6e206d7573742062652063616c6c6564207468726f7567682060408201526b19195b1959d85d1958d85b1b60a21b606082015260800190565b6020808252602c908201527f46756e6374696f6e206d7573742062652063616c6c6564207468726f7567682060408201526b6163746976652070726f787960a01b606082015260800190565b60006020828403121561109f57600080fd5b5051919050565b60005b838110156110c15781810151838201526020016110a9565b50506000910152565b7f416363657373436f6e74726f6c3a206163636f756e74200000000000000000008152600083516111028160178501602088016110a6565b7001034b99036b4b9b9b4b733903937b6329607d1b60179184019182015283516111338160288401602088016110a6565b01602801949350505050565b602081526000825180602084015261115e8160408501602087016110a6565b601f01601f19169190910160400192915050565b634e487b7160e01b600052601160045260246000fd5b808202811582820484141761027857610278611172565b8082018082111561027857610278611172565b634e487b7160e01b600052603260045260246000fd5b6000816111d7576111d7611172565b506000190190565b600082516111f18184602087016110a6565b919091019291505056fe360894a13ba1a3210667c828492db98dca3e2076cc3735a920a3ca505d382bbc416464726573733a206c6f772d6c6576656c2064656c65676174652063616c6c206661696c6564a2646970667358221220e749e44c074b29b197b9745522b90800ea57abc54a3ef836fae96402a159ddd164736f6c63430008130033",
    "linkReferences": {}
  },
  "methodIdentifiers": {
    "DEFAULT_ADMIN_ROLE()": "a217fddf",
    "UPGRADER_ROLE()": "f72c0d8b",
    "getRoleAdmin(bytes32)": "248a9ca3",
    "grantRole(bytes32,address)": "2f2ff15d",
    "hasRole(bytes32,address)": "91d14854",
    "initialize()": "8129fc1c",
    "proxiableUUID()": "52d1902d",
    "renounceRole(bytes32,address)": "36568abe",
    "revokeRole(bytes32,address)": "d547741f",
    "supportsInterface(bytes4)": "01ffc9a7",
    "upgradeTo(address)": "3659cfe6",
    "upgradeToAndCall(address,bytes)": "4f1ef286"
  },
  "id": 5
}