{
  "abi": [
    {
      "inputs": [
        {
          "internalType": "uint256",
          "name": "",
          "type": "uint256"
        }
      ],
      "name": "FTAddressList",
      "outputs": [
        {
          "internalType": "address",
          "name": "",
          "type": "address"
        }
      ],
      "stateMutability": "view",
      "type": "function"
    },
    {
      "inputs": [],
      "name": "ONE_ETH",
      "outputs": [
        {
          "internalType": "uint256",
          "name": "",
          "type": "uint256"
        }
      ],
      "stateMutability": "view",
      "type": "function"
    },
    {
      "inputs": [
        {
          "internalType": "address",
          "name": "",
          "type": "address"
        }
      ],
      "name": "findFT",
      "outputs": [
        {
          "internalType": "address",
          "name": "",
          "type": "address"
        }
      ],
      "stateMutability": "view",
      "type": "function"
    },
    {
      "inputs": [
        {
          "internalType": "address",
          "name": "_nftAddr",
          "type": "address"
        }
      ],
      "name": "getFTAddr",
      "outputs": [
        {
          "internalType": "address",
          "name": "FTAddr",
          "type": "address"
        }
      ],
      "stateMutability": "view",
      "type": "function"
    },
    {
      "inputs": [],
      "name": "getFTLength",
      "outputs": [
        {
          "internalType": "uint256",
          "name": "Length",
          "type": "uint256"
        }
      ],
      "stateMutability": "view",
      "type": "function"
    },
    {
      "inputs": [
        {
          "internalType": "address",
          "name": "",
          "type": "address"
        }
      ],
      "name": "isFTCreated",
      "outputs": [
        {
          "internalType": "bool",
          "name": "",
          "type": "bool"
        }
      ],
      "stateMutability": "view",
      "type": "function"
    },
    {
      "inputs": [
        {
          "internalType": "address",
          "name": "",
          "type": "address"
        }
      ],
      "name": "isFTToken",
      "outputs": [
        {
          "internalType": "bool",
          "name": "",
          "type": "bool"
        }
      ],
      "stateMutability": "view",
      "type": "function"
    },
    {
      "inputs": [
        {
          "internalType": "address",
          "name": "",
          "type": "address"
        },
        {
          "internalType": "address",
          "name": "",
          "type": "address"
        },
        {
          "internalType": "uint256",
          "name": "",
          "type": "uint256"
        }
      ],
      "name": "nft_StakeIndex",
      "outputs": [
        {
          "internalType": "bool",
          "name": "",
          "type": "bool"
        }
      ],
      "stateMutability": "view",
      "type": "function"
    },
    {
      "inputs": [
        {
          "internalType": "address",
          "name": "_nftAddr",
          "type": "address"
        },
        {
          "internalType": "uint256",
          "name": "_tokenId",
          "type": "uint256"
        }
      ],
      "name": "recoverNFT",
      "outputs": [],
      "stateMutability": "nonpayable",
      "type": "function"
    },
    {
      "inputs": [
        {
          "internalType": "address",
          "name": "_nftAddr",
          "type": "address"
        },
        {
          "internalType": "uint256",
          "name": "_tokenId",
          "type": "uint256"
        }
      ],
      "name": "tearApartNFT",
      "outputs": [],
      "stateMutability": "nonpayable",
      "type": "function"
    }
  ],
  "bytecode": {
    "object": "0x608060405234801561001057600080fd5b506119fb806100206000396000f3fe60806040523480156200001157600080fd5b5060043610620000ab5760003560e01c8063d8d4614a116200006e578063d8d4614a1462000185578063d9c36a5c146200019c578063e07a250a14620001b3578063ea3a4c6014620001e9578063ee0d4f9014620001f957600080fd5b80633319a00d14620000b057806339c69b6314620000c9578063422d5750146200011557806343d3b7611462000128578063c71de653146200015f575b600080fd5b620000c7620000c1366004620009eb565b62000225565b005b620000f8620000da36600462000a1a565b6001600160a01b039081166000908152600360205260409020541690565b6040516001600160a01b0390911681526020015b60405180910390f35b6002545b6040519081526020016200010c565b6200014e6200013936600462000a1a565b60046020526000908152604090205460ff1681565b60405190151581526020016200010c565b6200014e6200017036600462000a1a565b60016020526000908152604090205460ff1681565b620000f86200019636600462000a41565b620003d2565b620000c7620001ad366004620009eb565b620003fd565b6200014e620001c436600462000a5b565b6000602081815293815260408082208552928152828120909352825290205460ff1681565b62000119670de0b6b3a764000081565b620000f86200020a36600462000a1a565b6003602052600090815260409020546001600160a01b031681565b336000818152602081815260408083206001600160a01b0387168452825280832085845290915290205460ff16620002935760405162461bcd60e51b815260206004820152600c60248201526b6e6f74204e4654206865726560a01b60448201526064015b60405180910390fd5b6001600160a01b038084166000908152600360205260409020541680639dc29fac83620002cb670de0b6b3a76400006103e862000aa1565b6040516001600160e01b031960e085901b1681526001600160a01b0390921660048301526024820152604401600060405180830381600087803b1580156200031257600080fd5b505af115801562000327573d6000803e3d6000fd5b50506040516323b872dd60e01b81523060048201526001600160a01b03858116602483015260448201879052879350831691506323b872dd90606401600060405180830381600087803b1580156200037e57600080fd5b505af115801562000393573d6000803e3d6000fd5b5050506001600160a01b039384166000908152602081815260408083209890961682529687528481209581529490955250509020805460ff1916905550565b60028181548110620003e357600080fd5b6000918252602090912001546001600160a01b0316905081565b60405163020604bf60e21b8152600481018290528290600090339030906001600160a01b0385169063081812fc90602401602060405180830381865afa1580156200044c573d6000803e3d6000fd5b505050506040513d601f19601f8201168201806040525081019062000472919062000ac7565b6001600160a01b03161480620004f6575060405163e985e9c560e01b81526001600160a01b03828116600483015230602483015284169063e985e9c590604401602060405180830381865afa158015620004d0573d6000803e3d6000fd5b505050506040513d601f19601f82011682018060405250810190620004f6919062000ae7565b620005325760405162461bcd60e51b815260206004820152600b60248201526a6e6f7420617070726f766560a81b60448201526064016200028a565b6040516331a9108f60e11b8152600481018590526001600160a01b038083169190851690636352211e90602401602060405180830381865afa1580156200057d573d6000803e3d6000fd5b505050506040513d601f19601f82011682018060405250810190620005a3919062000ac7565b6001600160a01b031614620005e75760405162461bcd60e51b81526020600482015260096024820152683737ba1037bbb732b960b91b60448201526064016200028a565b6040516323b872dd60e01b81526001600160a01b038281166004830152306024830152604482018690528416906323b872dd90606401600060405180830381600087803b1580156200063857600080fd5b505af11580156200064d573d6000803e3d6000fd5b505050506000670de0b6b3a76400006103e86200066b919062000aa1565b6001600160a01b03871660009081526001602052604090205490915060ff16620007795760006200069c8762000828565b6001600160a01b038481166000818152602081815260408083208d8616845282528083208c845290915290819020805460ff19166001179055516340c10f1960e01b81526004810191909152602481018590529195508592508216906340c10f1990604401600060405180830381600087803b1580156200071c57600080fd5b505af115801562000731573d6000803e3d6000fd5b505050506001600160a01b038781166000908152600160208181526040808420805460ff19908116851790915595909416835260049052919020805490921617905562000820565b6001600160a01b038681166000818152600360209081526040808320548786168085528484528285209585529483528184208b855290925291829020805460ff1916600117905590516340c10f1960e01b8152600481019290925260248201849052909116935083906340c10f1990604401600060405180830381600087803b1580156200080657600080fd5b505af11580156200081b573d6000803e3d6000fd5b505050505b505050505050565b6040516bffffffffffffffffffffffff19606083901b1660208201526000908190603401604051602081830303815290604052805190602001209050806040516200087390620009c4565b8190604051809103906000f590508015801562000894573d6000803e3d6000fd5b50506000620008ad620008a662000936565b8362000965565b6002805460018181019092557f405787fa12a823e0f2b7631cc41b3ba8828b3321ca811111fa75cd3aa3bb5ace0180546001600160a01b038085166001600160a01b03199283168117909355600083815260208581526040808320805460ff19169097179096559990911681526003909852919096208054909116909517909455509192915050565b60606000604051806020016200094c90620009c4565b601f1982820381018352601f9091011660405292915050565b8151602080840191909120604080516001600160f81b0319818501523060601b6bffffffffffffffffffffffff191660218201526035810185905260558082019390935281518082039093018352607501905280519101205b92915050565b610eba8062000b0c83390190565b6001600160a01b0381168114620009e857600080fd5b50565b60008060408385031215620009ff57600080fd5b823562000a0c81620009d2565b946020939093013593505050565b60006020828403121562000a2d57600080fd5b813562000a3a81620009d2565b9392505050565b60006020828403121562000a5457600080fd5b5035919050565b60008060006060848603121562000a7157600080fd5b833562000a7e81620009d2565b9250602084013562000a9081620009d2565b929592945050506040919091013590565b8082028115828204841417620009be57634e487b7160e01b600052601160045260246000fd5b60006020828403121562000ada57600080fd5b815162000a3a81620009d2565b60006020828403121562000afa57600080fd5b8151801515811462000a3a57600080fdfe60806040523480156200001157600080fd5b506040518060400160405280600881526020016727232a2a37b5b2b760c11b81525060405180604001604052806002815260200161119560f21b81525081600390816200005f91906200018c565b5060046200006e82826200018c565b5050506200008b620000856200009160201b60201c565b62000095565b62000258565b3390565b600580546001600160a01b038381166001600160a01b0319831681179093556040519116919082907f8be0079c531659141344cd1fd0a4f28419497f9722a3daafe3b4186f6b6457e090600090a35050565b634e487b7160e01b600052604160045260246000fd5b600181811c908216806200011257607f821691505b6020821081036200013357634e487b7160e01b600052602260045260246000fd5b50919050565b601f8211156200018757600081815260208120601f850160051c81016020861015620001625750805b601f850160051c820191505b8181101562000183578281556001016200016e565b5050505b505050565b81516001600160401b03811115620001a857620001a8620000e7565b620001c081620001b98454620000fd565b8462000139565b602080601f831160018114620001f85760008415620001df5750858301515b600019600386901b1c1916600185901b17855562000183565b600085815260208120601f198616915b82811015620002295788860151825594840194600190910190840162000208565b5085821015620002485787850151600019600388901b60f8161c191681555b5050505050600190811b01905550565b610c5280620002686000396000f3fe608060405234801561001057600080fd5b50600436106101005760003560e01c8063715018a611610097578063a457c2d711610066578063a457c2d714610209578063a9059cbb1461021c578063dd62ed3e1461022f578063f2fde38b1461024257600080fd5b8063715018a6146101cb5780638da5cb5b146101d357806395d89b41146101ee5780639dc29fac146101f657600080fd5b8063313ce567116100d3578063313ce5671461016b578063395093511461017a57806340c10f191461018d57806370a08231146101a257600080fd5b806306fdde0314610105578063095ea7b31461012357806318160ddd1461014657806323b872dd14610158575b600080fd5b61010d610255565b60405161011a9190610a9c565b60405180910390f35b610136610131366004610b06565b6102e7565b604051901515815260200161011a565b6002545b60405190815260200161011a565b610136610166366004610b30565b610301565b6040516012815260200161011a565b610136610188366004610b06565b610325565b6101a061019b366004610b06565b610347565b005b61014a6101b0366004610b6c565b6001600160a01b031660009081526020819052604090205490565b6101a061035d565b6005546040516001600160a01b03909116815260200161011a565b61010d610371565b6101a0610204366004610b06565b610380565b610136610217366004610b06565b610392565b61013661022a366004610b06565b610412565b61014a61023d366004610b8e565b610420565b6101a0610250366004610b6c565b61044b565b60606003805461026490610bc1565b80601f016020809104026020016040519081016040528092919081815260200182805461029090610bc1565b80156102dd5780601f106102b2576101008083540402835291602001916102dd565b820191906000526020600020905b8154815290600101906020018083116102c057829003601f168201915b5050505050905090565b6000336102f58185856104c4565b60019150505b92915050565b60003361030f8582856105e9565b61031a858585610663565b506001949350505050565b6000336102f58185856103388383610420565b6103429190610bfb565b6104c4565b61034f610807565b6103598282610861565b5050565b610365610807565b61036f6000610920565b565b60606004805461026490610bc1565b610388610807565b6103598282610972565b600033816103a08286610420565b9050838110156104055760405162461bcd60e51b815260206004820152602560248201527f45524332303a2064656372656173656420616c6c6f77616e63652062656c6f77604482015264207a65726f60d81b60648201526084015b60405180910390fd5b61031a82868684036104c4565b6000336102f5818585610663565b6001600160a01b03918216600090815260016020908152604080832093909416825291909152205490565b610453610807565b6001600160a01b0381166104b85760405162461bcd60e51b815260206004820152602660248201527f4f776e61626c653a206e6577206f776e657220697320746865207a65726f206160448201526564647265737360d01b60648201526084016103fc565b6104c181610920565b50565b6001600160a01b0383166105265760405162461bcd60e51b8152602060048201526024808201527f45524332303a20617070726f76652066726f6d20746865207a65726f206164646044820152637265737360e01b60648201526084016103fc565b6001600160a01b0382166105875760405162461bcd60e51b815260206004820152602260248201527f45524332303a20617070726f766520746f20746865207a65726f206164647265604482015261737360f01b60648201526084016103fc565b6001600160a01b0383811660008181526001602090815260408083209487168084529482529182902085905590518481527f8c5be1e5ebec7d5bd14f71427d1e84f3dd0314c0f7b2291e5b200ac8c7c3b92591015b60405180910390a3505050565b60006105f58484610420565b9050600019811461065d57818110156106505760405162461bcd60e51b815260206004820152601d60248201527f45524332303a20696e73756666696369656e7420616c6c6f77616e636500000060448201526064016103fc565b61065d84848484036104c4565b50505050565b6001600160a01b0383166106c75760405162461bcd60e51b815260206004820152602560248201527f45524332303a207472616e736665722066726f6d20746865207a65726f206164604482015264647265737360d81b60648201526084016103fc565b6001600160a01b0382166107295760405162461bcd60e51b815260206004820152602360248201527f45524332303a207472616e7366657220746f20746865207a65726f206164647260448201526265737360e81b60648201526084016103fc565b6001600160a01b038316600090815260208190526040902054818110156107a15760405162461bcd60e51b815260206004820152602660248201527f45524332303a207472616e7366657220616d6f756e7420657863656564732062604482015265616c616e636560d01b60648201526084016103fc565b6001600160a01b03848116600081815260208181526040808320878703905593871680835291849020805487019055925185815290927fddf252ad1be2c89b69c2b068fc378daa952ba7f163c4a11628f55a4df523b3ef910160405180910390a361065d565b6005546001600160a01b0316331461036f5760405162461bcd60e51b815260206004820181905260248201527f4f776e61626c653a2063616c6c6572206973206e6f7420746865206f776e657260448201526064016103fc565b6001600160a01b0382166108b75760405162461bcd60e51b815260206004820152601f60248201527f45524332303a206d696e7420746f20746865207a65726f20616464726573730060448201526064016103fc565b80600260008282546108c99190610bfb565b90915550506001600160a01b038216600081815260208181526040808320805486019055518481527fddf252ad1be2c89b69c2b068fc378daa952ba7f163c4a11628f55a4df523b3ef910160405180910390a35050565b600580546001600160a01b038381166001600160a01b0319831681179093556040519116919082907f8be0079c531659141344cd1fd0a4f28419497f9722a3daafe3b4186f6b6457e090600090a35050565b6001600160a01b0382166109d25760405162461bcd60e51b815260206004820152602160248201527f45524332303a206275726e2066726f6d20746865207a65726f206164647265736044820152607360f81b60648201526084016103fc565b6001600160a01b03821660009081526020819052604090205481811015610a465760405162461bcd60e51b815260206004820152602260248201527f45524332303a206275726e20616d6f756e7420657863656564732062616c616e604482015261636560f01b60648201526084016103fc565b6001600160a01b0383166000818152602081815260408083208686039055600280548790039055518581529192917fddf252ad1be2c89b69c2b068fc378daa952ba7f163c4a11628f55a4df523b3ef91016105dc565b600060208083528351808285015260005b81811015610ac957858101830151858201604001528201610aad565b506000604082860101526040601f19601f8301168501019250505092915050565b80356001600160a01b0381168114610b0157600080fd5b919050565b60008060408385031215610b1957600080fd5b610b2283610aea565b946020939093013593505050565b600080600060608486031215610b4557600080fd5b610b4e84610aea565b9250610b5c60208501610aea565b9150604084013590509250925092565b600060208284031215610b7e57600080fd5b610b8782610aea565b9392505050565b60008060408385031215610ba157600080fd5b610baa83610aea565b9150610bb860208401610aea565b90509250929050565b600181811c90821680610bd557607f821691505b602082108103610bf557634e487b7160e01b600052602260045260246000fd5b50919050565b808201808211156102fb57634e487b7160e01b600052601160045260246000fdfea2646970667358221220855b0e6a760f5d17f8101b00b1d44346889b89a50db1e9fbe6bc8c3bfb4204a664736f6c63430008130033a26469706673582212209704e19e8ef17630c60fd897f80149097fbf4f1b617d5f33fe93eeea40b24af964736f6c63430008130033",
    "linkReferences": {}
  },
  "methodIdentifiers": {
    "FTAddressList(uint256)": "d8d4614a",
    "ONE_ETH()": "ea3a4c60",
    "findFT(address)": "ee0d4f90",
    "getFTAddr(address)": "39c69b63",
    "getFTLength()": "422d5750",
    "isFTCreated(address)": "c71de653",
    "isFTToken(address)": "43d3b761",
    "nft_StakeIndex(address,address,uint256)": "e07a250a",
    "recoverNFT(address,uint256)": "3319a00d",
    "tearApartNFT(address,uint256)": "d9c36a5c"
  },
  "id": 4
}