{
  "abi": [
    {
      "inputs": [],
      "stateMutability": "nonpayable",
      "type": "constructor"
    },
    {
      "inputs": [],
      "name": "InvalidShortString",
      "type": "error"
    },
    {
      "inputs": [
        {
          "internalType": "string",
          "name": "str",
          "type": "string"
        }
      ],
      "name": "StringTooLong",
      "type": "error"
    },
    {
      "anonymous": false,
      "inputs": [
        {
          "indexed": true,
          "internalType": "address",
          "name": "owner",
          "type": "address"
        },
        {
          "indexed": true,
          "internalType": "address",
          "name": "spender",
          "type": "address"
        },
        {
          "indexed": false,
          "internalType": "uint256",
          "name": "value",
          "type": "uint256"
        }
      ],
      "name": "Approval",
      "type": "event"
    },
    {
      "anonymous": false,
      "inputs": [
        {
          "indexed": true,
          "internalType": "address",
          "name": "delegator",
          "type": "address"
        },
        {
          "indexed": true,
          "internalType": "address",
          "name": "fromDelegate",
          "type": "address"
        },
        {
          "indexed": true,
          "internalType": "address",
          "name": "toDelegate",
          "type": "address"
        }
      ],
      "name": "DelegateChanged",
      "type": "event"
    },
    {
      "anonymous": false,
      "inputs": [
        {
          "indexed": true,
          "internalType": "address",
          "name": "delegate",
          "type": "address"
        },
        {
          "indexed": false,
          "internalType": "uint256",
          "name": "previousBalance",
          "type": "uint256"
        },
        {
          "indexed": false,
          "internalType": "uint256",
          "name": "newBalance",
          "type": "uint256"
        }
      ],
      "name": "DelegateVotesChanged",
      "type": "event"
    },
    {
      "anonymous": false,
      "inputs": [],
      "name": "EIP712DomainChanged",
      "type": "event"
    },
    {
      "anonymous": false,
      "inputs": [
        {
          "indexed": true,
          "internalType": "address",
          "name": "previousOwner",
          "type": "address"
        },
        {
          "indexed": true,
          "internalType": "address",
          "name": "newOwner",
          "type": "address"
        }
      ],
      "name": "OwnershipTransferred",
      "type": "event"
    },
    {
      "anonymous": false,
      "inputs": [
        {
          "indexed": false,
          "internalType": "address",
          "name": "account",
          "type": "address"
        }
      ],
      "name": "Paused",
      "type": "event"
    },
    {
      "anonymous": false,
      "inputs": [
        {
          "indexed": false,
          "internalType": "uint256",
          "name": "id",
          "type": "uint256"
        }
      ],
      "name": "Snapshot",
      "type": "event"
    },
    {
      "anonymous": false,
      "inputs": [
        {
          "indexed": true,
          "internalType": "address",
          "name": "from",
          "type": "address"
        },
        {
          "indexed": true,
          "internalType": "address",
          "name": "to",
          "type": "address"
        },
        {
          "indexed": false,
          "internalType": "uint256",
          "name": "value",
          "type": "uint256"
        }
      ],
      "name": "Transfer",
      "type": "event"
    },
    {
      "anonymous": false,
      "inputs": [
        {
          "indexed": false,
          "internalType": "address",
          "name": "account",
          "type": "address"
        }
      ],
      "name": "Unpaused",
      "type": "event"
    },
    {
      "inputs": [],
      "name": "CLOCK_MODE",
      "outputs": [
        {
          "internalType": "string",
          "name": "",
          "type": "string"
        }
      ],
      "stateMutability": "view",
      "type": "function"
    },
    {
      "inputs": [],
      "name": "DOMAIN_SEPARATOR",
      "outputs": [
        {
          "internalType": "bytes32",
          "name": "",
          "type": "bytes32"
        }
      ],
      "stateMutability": "view",
      "type": "function"
    },
    {
      "inputs": [
        {
          "internalType": "address",
          "name": "owner",
          "type": "address"
        },
        {
          "internalType": "address",
          "name": "spender",
          "type": "address"
        }
      ],
      "name": "allowance",
      "outputs": [
        {
          "internalType": "uint256",
          "name": "",
          "type": "uint256"
        }
      ],
      "stateMutability": "view",
      "type": "function"
    },
    {
      "inputs": [
        {
          "internalType": "address",
          "name": "spender",
          "type": "address"
        },
        {
          "internalType": "uint256",
          "name": "amount",
          "type": "uint256"
        }
      ],
      "name": "approve",
      "outputs": [
        {
          "internalType": "bool",
          "name": "",
          "type": "bool"
        }
      ],
      "stateMutability": "nonpayable",
      "type": "function"
    },
    {
      "inputs": [
        {
          "internalType": "address",
          "name": "account",
          "type": "address"
        }
      ],
      "name": "balanceOf",
      "outputs": [
        {
          "internalType": "uint256",
          "name": "",
          "type": "uint256"
        }
      ],
      "stateMutability": "view",
      "type": "function"
    },
    {
      "inputs": [
        {
          "internalType": "address",
          "name": "account",
          "type": "address"
        },
        {
          "internalType": "uint256",
          "name": "snapshotId",
          "type": "uint256"
        }
      ],
      "name": "balanceOfAt",
      "outputs": [
        {
          "internalType": "uint256",
          "name": "",
          "type": "uint256"
        }
      ],
      "stateMutability": "view",
      "type": "function"
    },
    {
      "inputs": [
        {
          "internalType": "uint256",
          "name": "amount",
          "type": "uint256"
        }
      ],
      "name": "burn",
      "outputs": [],
      "stateMutability": "nonpayable",
      "type": "function"
    },
    {
      "inputs": [
        {
          "internalType": "address",
          "name": "account",
          "type": "address"
        },
        {
          "internalType": "uint256",
          "name": "amount",
          "type": "uint256"
        }
      ],
      "name": "burnFrom",
      "outputs": [],
      "stateMutability": "nonpayable",
      "type": "function"
    },
    {
      "inputs": [
        {
          "internalType": "address",
          "name": "account",
          "type": "address"
        },
        {
          "internalType": "uint32",
          "name": "pos",
          "type": "uint32"
        }
      ],
      "name": "checkpoints",
      "outputs": [
        {
          "components": [
            {
              "internalType": "uint32",
              "name": "fromBlock",
              "type": "uint32"
            },
            {
              "internalType": "uint224",
              "name": "votes",
              "type": "uint224"
            }
          ],
          "internalType": "struct ERC20Votes.Checkpoint",
          "name": "",
          "type": "tuple"
        }
      ],
      "stateMutability": "view",
      "type": "function"
    },
    {
      "inputs": [],
      "name": "clock",
      "outputs": [
        {
          "internalType": "uint48",
          "name": "",
          "type": "uint48"
        }
      ],
      "stateMutability": "view",
      "type": "function"
    },
    {
      "inputs": [],
      "name": "decimals",
      "outputs": [
        {
          "internalType": "uint8",
          "name": "",
          "type": "uint8"
        }
      ],
      "stateMutability": "view",
      "type": "function"
    },
    {
      "inputs": [
        {
          "internalType": "address",
          "name": "spender",
          "type": "address"
        },
        {
          "internalType": "uint256",
          "name": "subtractedValue",
          "type": "uint256"
        }
      ],
      "name": "decreaseAllowance",
      "outputs": [
        {
          "internalType": "bool",
          "name": "",
          "type": "bool"
        }
      ],
      "stateMutability": "nonpayable",
      "type": "function"
    },
    {
      "inputs": [
        {
          "internalType": "address",
          "name": "delegatee",
          "type": "address"
        }
      ],
      "name": "delegate",
      "outputs": [],
      "stateMutability": "nonpayable",
      "type": "function"
    },
    {
      "inputs": [
        {
          "internalType": "address",
          "name": "delegatee",
          "type": "address"
        },
        {
          "internalType": "uint256",
          "name": "nonce",
          "type": "uint256"
        },
        {
          "internalType": "uint256",
          "name": "expiry",
          "type": "uint256"
        },
        {
          "internalType": "uint8",
          "name": "v",
          "type": "uint8"
        },
        {
          "internalType": "bytes32",
          "name": "r",
          "type": "bytes32"
        },
        {
          "internalType": "bytes32",
          "name": "s",
          "type": "bytes32"
        }
      ],
      "name": "delegateBySig",
      "outputs": [],
      "stateMutability": "nonpayable",
      "type": "function"
    },
    {
      "inputs": [
        {
          "internalType": "address",
          "name": "account",
          "type": "address"
        }
      ],
      "name": "delegates",
      "outputs": [
        {
          "internalType": "address",
          "name": "",
          "type": "address"
        }
      ],
      "stateMutability": "view",
      "type": "function"
    },
    {
      "inputs": [],
      "name": "eip712Domain",
      "outputs": [
        {
          "internalType": "bytes1",
          "name": "fields",
          "type": "bytes1"
        },
        {
          "internalType": "string",
          "name": "name",
          "type": "string"
        },
        {
          "internalType": "string",
          "name": "version",
          "type": "string"
        },
        {
          "internalType": "uint256",
          "name": "chainId",
          "type": "uint256"
        },
        {
          "internalType": "address",
          "name": "verifyingContract",
          "type": "address"
        },
        {
          "internalType": "bytes32",
          "name": "salt",
          "type": "bytes32"
        },
        {
          "internalType": "uint256[]",
          "name": "extensions",
          "type": "uint256[]"
        }
      ],
      "stateMutability": "view",
      "type": "function"
    },
    {
      "inputs": [
        {
          "internalType": "uint256",
          "name": "timepoint",
          "type": "uint256"
        }
      ],
      "name": "getPastTotalSupply",
      "outputs": [
        {
          "internalType": "uint256",
          "name": "",
          "type": "uint256"
        }
      ],
      "stateMutability": "view",
      "type": "function"
    },
    {
      "inputs": [
        {
          "internalType": "address",
          "name": "account",
          "type": "address"
        },
        {
          "internalType": "uint256",
          "name": "timepoint",
          "type": "uint256"
        }
      ],
      "name": "getPastVotes",
      "outputs": [
        {
          "internalType": "uint256",
          "name": "",
          "type": "uint256"
        }
      ],
      "stateMutability": "view",
      "type": "function"
    },
    {
      "inputs": [
        {
          "internalType": "address",
          "name": "account",
          "type": "address"
        }
      ],
      "name": "getVotes",
      "outputs": [
        {
          "internalType": "uint256",
          "name": "",
          "type": "uint256"
        }
      ],
      "stateMutability": "view",
      "type": "function"
    },
    {
      "inputs": [
        {
          "internalType": "address",
          "name": "spender",
          "type": "address"
        },
        {
          "internalType": "uint256",
          "name": "addedValue",
          "type": "uint256"
        }
      ],
      "name": "increaseAllowance",
      "outputs": [
        {
          "internalType": "bool",
          "name": "",
          "type": "bool"
        }
      ],
      "stateMutability": "nonpayable",
      "type": "function"
    },
    {
      "inputs": [
        {
          "internalType": "address",
          "name": "to",
          "type": "address"
        },
        {
          "internalType": "uint256",
          "name": "amount",
          "type": "uint256"
        }
      ],
      "name": "mint",
      "outputs": [],
      "stateMutability": "nonpayable",
      "type": "function"
    },
    {
      "inputs": [],
      "name": "name",
      "outputs": [
        {
          "internalType": "string",
          "name": "",
          "type": "string"
        }
      ],
      "stateMutability": "view",
      "type": "function"
    },
    {
      "inputs": [
        {
          "internalType": "address",
          "name": "owner",
          "type": "address"
        }
      ],
      "name": "nonces",
      "outputs": [
        {
          "internalType": "uint256",
          "name": "",
          "type": "uint256"
        }
      ],
      "stateMutability": "view",
      "type": "function"
    },
    {
      "inputs": [
        {
          "internalType": "address",
          "name": "account",
          "type": "address"
        }
      ],
      "name": "numCheckpoints",
      "outputs": [
        {
          "internalType": "uint32",
          "name": "",
          "type": "uint32"
        }
      ],
      "stateMutability": "view",
      "type": "function"
    },
    {
      "inputs": [],
      "name": "owner",
      "outputs": [
        {
          "internalType": "address",
          "name": "",
          "type": "address"
        }
      ],
      "stateMutability": "view",
      "type": "function"
    },
    {
      "inputs": [],
      "name": "pause",
      "outputs": [],
      "stateMutability": "nonpayable",
      "type": "function"
    },
    {
      "inputs": [],
      "name": "paused",
      "outputs": [
        {
          "internalType": "bool",
          "name": "",
          "type": "bool"
        }
      ],
      "stateMutability": "view",
      "type": "function"
    },
    {
      "inputs": [
        {
          "internalType": "address",
          "name": "owner",
          "type": "address"
        },
        {
          "internalType": "address",
          "name": "spender",
          "type": "address"
        },
        {
          "internalType": "uint256",
          "name": "value",
          "type": "uint256"
        },
        {
          "internalType": "uint256",
          "name": "deadline",
          "type": "uint256"
        },
        {
          "internalType": "uint8",
          "name": "v",
          "type": "uint8"
        },
        {
          "internalType": "bytes32",
          "name": "r",
          "type": "bytes32"
        },
        {
          "internalType": "bytes32",
          "name": "s",
          "type": "bytes32"
        }
      ],
      "name": "permit",
      "outputs": [],
      "stateMutability": "nonpayable",
      "type": "function"
    },
    {
      "inputs": [],
      "name": "renounceOwnership",
      "outputs": [],
      "stateMutability": "nonpayable",
      "type": "function"
    },
    {
      "inputs": [],
      "name": "snapshot",
      "outputs": [],
      "stateMutability": "nonpayable",
      "type": "function"
    },
    {
      "inputs": [],
      "name": "symbol",
      "outputs": [
        {
          "internalType": "string",
          "name": "",
          "type": "string"
        }
      ],
      "stateMutability": "view",
      "type": "function"
    },
    {
      "inputs": [],
      "name": "totalSupply",
      "outputs": [
        {
          "internalType": "uint256",
          "name": "",
          "type": "uint256"
        }
      ],
      "stateMutability": "view",
      "type": "function"
    },
    {
      "inputs": [
        {
          "internalType": "uint256",
          "name": "snapshotId",
          "type": "uint256"
        }
      ],
      "name": "totalSupplyAt",
      "outputs": [
        {
          "internalType": "uint256",
          "name": "",
          "type": "uint256"
        }
      ],
      "stateMutability": "view",
      "type": "function"
    },
    {
      "inputs": [
        {
          "internalType": "address",
          "name": "to",
          "type": "address"
        },
        {
          "internalType": "uint256",
          "name": "amount",
          "type": "uint256"
        }
      ],
      "name": "transfer",
      "outputs": [
        {
          "internalType": "bool",
          "name": "",
          "type": "bool"
        }
      ],
      "stateMutability": "nonpayable",
      "type": "function"
    },
    {
      "inputs": [
        {
          "internalType": "address",
          "name": "from",
          "type": "address"
        },
        {
          "internalType": "address",
          "name": "to",
          "type": "address"
        },
        {
          "internalType": "uint256",
          "name": "amount",
          "type": "uint256"
        }
      ],
      "name": "transferFrom",
      "outputs": [
        {
          "internalType": "bool",
          "name": "",
          "type": "bool"
        }
      ],
      "stateMutability": "nonpayable",
      "type": "function"
    },
    {
      "inputs": [
        {
          "internalType": "address",
          "name": "newOwner",
          "type": "address"
        }
      ],
      "name": "transferOwnership",
      "outputs": [],
      "stateMutability": "nonpayable",
      "type": "function"
    },
    {
      "inputs": [],
      "name": "unpause",
      "outputs": [],
      "stateMutability": "nonpayable",
      "type": "function"
    }
  ],
  "bytecode": {
    "object": "0x6101606040523480156200001257600080fd5b50604051806040016040528060088152602001672232bc2a37b5b2b760c11b81525080604051806040016040528060018152602001603160f81b815250604051806040016040528060088152602001672232bc2a37b5b2b760c11b81525060405180604001604052806002815260200161111560f21b81525081600390816200009c919062000afe565b506004620000ab828262000afe565b505050620000c8620000c2620001b860201b60201c565b620001bc565b6009805460ff60a01b19169055620000e282600a6200020e565b61012052620000f381600b6200020e565b61014052815160208084019190912060e052815190820120610100524660a0526200018160e05161010051604080517f8b73c3c69bb8fe3d512ecc4cf759cc79239f7b179b0ffacaa9a75d522b39400f60208201529081019290925260608201524660808201523060a082015260009060c00160405160208183030381529060405280519060200120905090565b60805250503060c05250620001b2336200019e6012600a62000cdd565b620001ac906107d062000cee565b62000247565b62000dbf565b3390565b600980546001600160a01b038381166001600160a01b0319831681179093556040519116919082907f8be0079c531659141344cd1fd0a4f28419497f9722a3daafe3b4186f6b6457e090600090a35050565b60006020835110156200022e57620002268362000257565b905062000241565b816200023b848262000afe565b5060ff90505b92915050565b620002538282620002a3565b5050565b600080829050601f815111156200028e578260405163305a27a960e01b815260040162000285919062000d08565b60405180910390fd5b80516200029b8262000d58565b179392505050565b620002af82826200034b565b6001600160e01b03620002c3620004268216565b11156200032c5760405162461bcd60e51b815260206004820152603060248201527f4552433230566f7465733a20746f74616c20737570706c79207269736b73206f60448201526f766572666c6f77696e6720766f74657360801b606482015260840162000285565b62000345601062000e8e6200042c60201b178362000441565b50505050565b6001600160a01b038216620003a35760405162461bcd60e51b815260206004820152601f60248201527f45524332303a206d696e7420746f20746865207a65726f206164647265737300604482015260640162000285565b620003b160008383620005c9565b8060026000828254620003c5919062000d7d565b90915550506001600160a01b038216600081815260208181526040808320805486019055518481527fddf252ad1be2c89b69c2b068fc378daa952ba7f163c4a11628f55a4df523b3ef910160405180910390a36200025360008383620005e5565b60025490565b60006200043a828462000d7d565b9392505050565b82546000908190818115620004905760008781526020902082016000190160408051808201909152905463ffffffff8116825264010000000090046001600160e01b03166020820152620004a5565b60408051808201909152600080825260208201525b905080602001516001600160e01b03169350620004c384868860201c565b9250600082118015620004f05750620004db620005f2565b65ffffffffffff16816000015163ffffffff16145b156200053957620005018362000604565b60008881526020902083016000190180546001600160e01b03929092166401000000000263ffffffff909216919091179055620005bf565b8660405180604001604052806200056762000559620005f260201b60201c565b65ffffffffffff1662000673565b63ffffffff1681526020016200057d8662000604565b6001600160e01b0390811690915282546001810184556000938452602093849020835194909301519091166401000000000263ffffffff909316929092179101555b5050935093915050565b620005d3620006da565b620005e083838362000732565b505050565b620005e083838362000786565b6000620005ff43620007ba565b905090565b60006001600160e01b038211156200066f5760405162461bcd60e51b815260206004820152602760248201527f53616665436173743a2076616c756520646f65736e27742066697420696e20326044820152663234206269747360c81b606482015260840162000285565b5090565b600063ffffffff8211156200066f5760405162461bcd60e51b815260206004820152602660248201527f53616665436173743a2076616c756520646f65736e27742066697420696e203360448201526532206269747360d01b606482015260840162000285565b620006ee600954600160a01b900460ff1690565b15620007305760405162461bcd60e51b815260206004820152601060248201526f14185d5cd8589b194e881c185d5cd95960821b604482015260640162000285565b565b6001600160a01b03831662000756576200074c8262000823565b620005e06200085b565b6001600160a01b03821662000770576200074c8362000823565b6200077b8362000823565b620005e08262000823565b6001600160a01b038381166000908152600e6020526040808220548584168352912054620005e0929182169116836200086b565b600065ffffffffffff8211156200066f5760405162461bcd60e51b815260206004820152602660248201527f53616665436173743a2076616c756520646f65736e27742066697420696e203460448201526538206269747360d01b606482015260840162000285565b6001600160a01b03811660009081526005602090815260408083209183905290912054620008589190620009a6565b620009a6565b50565b6200073060066200085260025490565b816001600160a01b0316836001600160a01b0316141580156200088e5750600081115b15620005e0576001600160a01b038316156200091b576001600160a01b0383166000908152600f6020908152604082208291620008d89190620009f5901b62000e9a178562000441565b91509150846001600160a01b0316600080516020620037ed833981519152838360405162000910929190918252602082015260400190565b60405180910390a250505b6001600160a01b03821615620005e0576001600160a01b0382166000908152600f60209081526040822082916200095f91906200042c901b62000e8e178562000441565b91509150836001600160a01b0316600080516020620037ed833981519152838360405162000997929190918252602082015260400190565b60405180910390a25050505050565b6000620009b262000a03565b905080620009c08462000a0f565b1015620005e0578254600180820185556000858152602080822090930193909355938401805494850181558252902090910155565b60006200043a828462000d93565b6000620005ff60085490565b8054600090810362000a2357506000919050565b8154829062000a359060019062000d93565b8154811062000a485762000a4862000da9565b90600052602060002001549050919050565b634e487b7160e01b600052604160045260246000fd5b600181811c9082168062000a8557607f821691505b60208210810362000aa657634e487b7160e01b600052602260045260246000fd5b50919050565b601f821115620005e057600081815260208120601f850160051c8101602086101562000ad55750805b601f850160051c820191505b8181101562000af65782815560010162000ae1565b505050505050565b81516001600160401b0381111562000b1a5762000b1a62000a5a565b62000b328162000b2b845462000a70565b8462000aac565b602080601f83116001811462000b6a576000841562000b515750858301515b600019600386901b1c1916600185901b17855562000af6565b600085815260208120601f198616915b8281101562000b9b5788860151825594840194600190910190840162000b7a565b508582101562000bba5787850151600019600388901b60f8161c191681555b5050505050600190811b01905550565b634e487b7160e01b600052601160045260246000fd5b600181815b8085111562000c2157816000190482111562000c055762000c0562000bca565b8085161562000c1357918102915b93841c939080029062000be5565b509250929050565b60008262000c3a5750600162000241565b8162000c495750600062000241565b816001811462000c62576002811462000c6d5762000c8d565b600191505062000241565b60ff84111562000c815762000c8162000bca565b50506001821b62000241565b5060208310610133831016604e8410600b841016171562000cb2575081810a62000241565b62000cbe838362000be0565b806000190482111562000cd55762000cd562000bca565b029392505050565b60006200043a60ff84168362000c29565b808202811582820484141762000241576200024162000bca565b600060208083528351808285015260005b8181101562000d375785810183015185820160400152820162000d19565b506000604082860101526040601f19601f8301168501019250505092915050565b8051602080830151919081101562000aa65760001960209190910360031b1b16919050565b8082018082111562000241576200024162000bca565b8181038181111562000241576200024162000bca565b634e487b7160e01b600052603260045260246000fd5b60805160a05160c05160e0516101005161012051610140516129d362000e1a60003960006108b80152600061088d015260006112d3015260006112ab01526000611206015260006112300152600061125a01526129d36000f3fe608060405234801561001057600080fd5b50600436106102275760003560e01c8063715018a6116101305780639711715a116100b8578063c3cda5201161007c578063c3cda520146104c4578063d505accf146104d7578063dd62ed3e146104ea578063f1127ed8146104fd578063f2fde38b1461053a57600080fd5b80639711715a14610470578063981b24d0146104785780639ab24eb01461048b578063a457c2d71461049e578063a9059cbb146104b157600080fd5b806384b0196e116100ff57806384b0196e1461040a5780638da5cb5b146104255780638e539e8c1461043657806391ddadf41461044957806395d89b411461046857600080fd5b8063715018a6146103d457806379cc6790146103dc5780637ecebe00146103ef5780638456cb591461040257600080fd5b806340c10f19116101b3578063587cde1e11610182578063587cde1e1461031a5780635c19a95c1461035e5780635c975abb146103715780636fcfff451461038357806370a08231146103ab57600080fd5b806340c10f19146102d957806342966c68146102ec5780634bf5d7e9146102ff5780634ee2cd7e1461030757600080fd5b8063313ce567116101fa578063313ce567146102925780633644e515146102a157806339509351146102a95780633a46b1a8146102bc5780633f4ba83a146102cf57600080fd5b806306fdde031461022c578063095ea7b31461024a57806318160ddd1461026d57806323b872dd1461027f575b600080fd5b61023461054d565b6040516102419190612629565b60405180910390f35b61025d610258366004612653565b6105df565b6040519015158152602001610241565b6002545b604051908152602001610241565b61025d61028d36600461267d565b6105f9565b60405160128152602001610241565b61027161061d565b61025d6102b7366004612653565b61062c565b6102716102ca366004612653565b61064e565b6102d76106d8565b005b6102d76102e7366004612653565b6106ea565b6102d76102fa3660046126b9565b610700565b61023461070d565b610271610315366004612653565b6107a5565b6103466103283660046126d2565b6001600160a01b039081166000908152600e60205260409020541690565b6040516001600160a01b039091168152602001610241565b6102d761036c3660046126d2565b6107fe565b600954600160a01b900460ff1661025d565b6103966103913660046126d2565b610808565b60405163ffffffff9091168152602001610241565b6102716103b93660046126d2565b6001600160a01b031660009081526020819052604090205490565b6102d761082a565b6102d76103ea366004612653565b61083c565b6102716103fd3660046126d2565b610851565b6102d761086f565b61041261087f565b60405161024197969594939291906126ed565b6009546001600160a01b0316610346565b6102716104443660046126b9565b610908565b61045161096f565b60405165ffffffffffff9091168152602001610241565b61023461097a565b6102d7610989565b6102716104863660046126b9565b610999565b6102716104993660046126d2565b6109c4565b61025d6104ac366004612653565b610a46565b61025d6104bf366004612653565b610ac1565b6102d76104d2366004612794565b610acf565b6102d76104e53660046127ec565b610c05565b6102716104f8366004612856565b610d69565b61051061050b366004612889565b610d94565b60408051825163ffffffff1681526020928301516001600160e01b03169281019290925201610241565b6102d76105483660046126d2565b610e18565b60606003805461055c906128c9565b80601f0160208091040260200160405190810160405280929190818152602001828054610588906128c9565b80156105d55780601f106105aa576101008083540402835291602001916105d5565b820191906000526020600020905b8154815290600101906020018083116105b857829003601f168201915b5050505050905090565b6000336105ed818585610ea6565b60019150505b92915050565b600033610607858285610fca565b610612858585611044565b506001949350505050565b60006106276111f9565b905090565b6000336105ed81858561063f8383610d69565b6106499190612913565b610ea6565b600061065861096f565b65ffffffffffff1682106106af5760405162461bcd60e51b815260206004820152601960248201527804552433230566f7465733a20667574757265206c6f6f6b757603c1b60448201526064015b60405180910390fd5b6001600160a01b0383166000908152600f602052604090206106d19083611324565b9392505050565b6106e061140d565b6106e8611467565b565b6106f261140d565b6106fc82826114bc565b5050565b61070a33826114c6565b50565b60604361071861096f565b65ffffffffffff161461076d5760405162461bcd60e51b815260206004820152601d60248201527f4552433230566f7465733a2062726f6b656e20636c6f636b206d6f646500000060448201526064016106a6565b5060408051808201909152601d81527f6d6f64653d626c6f636b6e756d6265722666726f6d3d64656661756c74000000602082015290565b6001600160a01b0382166000908152600560205260408120819081906107cc9085906114d0565b91509150816107f3576001600160a01b0385166000908152602081905260409020546107f5565b805b95945050505050565b61070a33826115c6565b6001600160a01b0381166000908152600f60205260408120546105f39061163f565b61083261140d565b6106e860006116a8565b610847823383610fca565b6106fc82826114c6565b6001600160a01b0381166000908152600c60205260408120546105f3565b61087761140d565b6106e86116fa565b6000606080828080836108b37f0000000000000000000000000000000000000000000000000000000000000000600a61173d565b6108de7f0000000000000000000000000000000000000000000000000000000000000000600b61173d565b60408051600080825260208201909252600f60f81b9b939a50919850469750309650945092509050565b600061091261096f565b65ffffffffffff1682106109645760405162461bcd60e51b815260206004820152601960248201527804552433230566f7465733a20667574757265206c6f6f6b757603c1b60448201526064016106a6565b6105f3601083611324565b6000610627436117e8565b60606004805461055c906128c9565b61099161140d565b61070a61184f565b60008060006109a98460066114d0565b91509150816109ba576002546109bc565b805b949350505050565b6001600160a01b0381166000908152600f60205260408120548015610a33576001600160a01b0383166000908152600f6020526040902080546000198301908110610a1157610a11612926565b60009182526020909120015464010000000090046001600160e01b0316610a36565b60005b6001600160e01b03169392505050565b60003381610a548286610d69565b905083811015610ab45760405162461bcd60e51b815260206004820152602560248201527f45524332303a2064656372656173656420616c6c6f77616e63652062656c6f77604482015264207a65726f60d81b60648201526084016106a6565b6106128286868403610ea6565b6000336105ed818585611044565b83421115610b1f5760405162461bcd60e51b815260206004820152601d60248201527f4552433230566f7465733a207369676e6174757265206578706972656400000060448201526064016106a6565b604080517fe48329057bfd03d55e49b547132e39cffd9c1820ad7b9d4c5307691425d15adf60208201526001600160a01b038816918101919091526060810186905260808101859052600090610b9990610b919060a001604051602081830303815290604052805190602001206118a9565b8585856118d6565b9050610ba4816118fe565b8614610bf25760405162461bcd60e51b815260206004820152601960248201527f4552433230566f7465733a20696e76616c6964206e6f6e63650000000000000060448201526064016106a6565b610bfc81886115c6565b50505050505050565b83421115610c555760405162461bcd60e51b815260206004820152601d60248201527f45524332305065726d69743a206578706972656420646561646c696e6500000060448201526064016106a6565b60007f6e71edae12b1b97f4d1f60370fef10105fa2faae0126114a169c64845d6126c9888888610c848c6118fe565b6040805160208101969096526001600160a01b0394851690860152929091166060840152608083015260a082015260c0810186905260e0016040516020818303038152906040528051906020012090506000610cdf826118a9565b90506000610cef828787876118d6565b9050896001600160a01b0316816001600160a01b031614610d525760405162461bcd60e51b815260206004820152601e60248201527f45524332305065726d69743a20696e76616c6964207369676e6174757265000060448201526064016106a6565b610d5d8a8a8a610ea6565b50505050505050505050565b6001600160a01b03918216600090815260016020908152604080832093909416825291909152205490565b60408051808201909152600080825260208201526001600160a01b0383166000908152600f60205260409020805463ffffffff8416908110610dd857610dd8612926565b60009182526020918290206040805180820190915291015463ffffffff8116825264010000000090046001600160e01b0316918101919091529392505050565b610e2061140d565b6001600160a01b038116610e855760405162461bcd60e51b815260206004820152602660248201527f4f776e61626c653a206e6577206f776e657220697320746865207a65726f206160448201526564647265737360d01b60648201526084016106a6565b61070a816116a8565b60006106d18284612913565b60006106d1828461293c565b6001600160a01b038316610f085760405162461bcd60e51b8152602060048201526024808201527f45524332303a20617070726f76652066726f6d20746865207a65726f206164646044820152637265737360e01b60648201526084016106a6565b6001600160a01b038216610f695760405162461bcd60e51b815260206004820152602260248201527f45524332303a20617070726f766520746f20746865207a65726f206164647265604482015261737360f01b60648201526084016106a6565b6001600160a01b0383811660008181526001602090815260408083209487168084529482529182902085905590518481527f8c5be1e5ebec7d5bd14f71427d1e84f3dd0314c0f7b2291e5b200ac8c7c3b925910160405180910390a3505050565b6000610fd68484610d69565b9050600019811461103e57818110156110315760405162461bcd60e51b815260206004820152601d60248201527f45524332303a20696e73756666696369656e7420616c6c6f77616e636500000060448201526064016106a6565b61103e8484848403610ea6565b50505050565b6001600160a01b0383166110a85760405162461bcd60e51b815260206004820152602560248201527f45524332303a207472616e736665722066726f6d20746865207a65726f206164604482015264647265737360d81b60648201526084016106a6565b6001600160a01b03821661110a5760405162461bcd60e51b815260206004820152602360248201527f45524332303a207472616e7366657220746f20746865207a65726f206164647260448201526265737360e81b60648201526084016106a6565b611115838383611926565b6001600160a01b0383166000908152602081905260409020548181101561118d5760405162461bcd60e51b815260206004820152602660248201527f45524332303a207472616e7366657220616d6f756e7420657863656564732062604482015265616c616e636560d01b60648201526084016106a6565b6001600160a01b03848116600081815260208181526040808320878703905593871680835291849020805487019055925185815290927fddf252ad1be2c89b69c2b068fc378daa952ba7f163c4a11628f55a4df523b3ef910160405180910390a361103e84848461193e565b6000306001600160a01b037f00000000000000000000000000000000000000000000000000000000000000001614801561125257507f000000000000000000000000000000000000000000000000000000000000000046145b1561127c57507f000000000000000000000000000000000000000000000000000000000000000090565b610627604080517f8b73c3c69bb8fe3d512ecc4cf759cc79239f7b179b0ffacaa9a75d522b39400f60208201527f0000000000000000000000000000000000000000000000000000000000000000918101919091527f000000000000000000000000000000000000000000000000000000000000000060608201524660808201523060a082015260009060c00160405160208183030381529060405280519060200120905090565b81546000908181600581111561137e57600061133f84611949565b611349908561293c565b600088815260209020909150869082015463ffffffff16111561136e5780915061137c565b611379816001612913565b92505b505b808210156113cb5760006113928383611a31565b600088815260209020909150869082015463ffffffff1611156113b7578091506113c5565b6113c2816001612913565b92505b5061137e565b80156113f7576000868152602090208101600019015464010000000090046001600160e01b03166113fa565b60005b6001600160e01b03169695505050505050565b6009546001600160a01b031633146106e85760405162461bcd60e51b815260206004820181905260248201527f4f776e61626c653a2063616c6c6572206973206e6f7420746865206f776e657260448201526064016106a6565b61146f611a4c565b6009805460ff60a01b191690557f5db9ee0a495bf2e6ff9c91a7834c1ba4fdd244a5e8aa4e537bd38aeae4b073aa335b6040516001600160a01b03909116815260200160405180910390a1565b6106fc8282611a9c565b6106fc8282611b26565b6000806000841161151c5760405162461bcd60e51b815260206004820152601660248201527504552433230536e617073686f743a20696420697320360541b60448201526064016106a6565b611524611b3e565b8411156115735760405162461bcd60e51b815260206004820152601d60248201527f4552433230536e617073686f743a206e6f6e6578697374656e7420696400000060448201526064016106a6565b600061157f8486611b49565b845490915081036115975760008092509250506115bf565b60018460010182815481106115ae576115ae612926565b906000526020600020015492509250505b9250929050565b6001600160a01b038281166000818152600e60208181526040808420805485845282862054949093528787166001600160a01b03198416811790915590519190951694919391928592917f3134e8a2e6d97e929a7e54011ea5485d7d196dd5f0ba4d4ef95803e8e3fc257f9190a461103e828483611bf6565b600063ffffffff8211156116a45760405162461bcd60e51b815260206004820152602660248201527f53616665436173743a2076616c756520646f65736e27742066697420696e203360448201526532206269747360d01b60648201526084016106a6565b5090565b600980546001600160a01b038381166001600160a01b0319831681179093556040519116919082907f8be0079c531659141344cd1fd0a4f28419497f9722a3daafe3b4186f6b6457e090600090a35050565b611702611d33565b6009805460ff60a01b1916600160a01b1790557f62e78cea01bee320cd4e420270b5ea74000d11b0c9f74754ebdbfc544b05a25861149f3390565b606060ff83146117575761175083611d80565b90506105f3565b818054611763906128c9565b80601f016020809104026020016040519081016040528092919081815260200182805461178f906128c9565b80156117dc5780601f106117b1576101008083540402835291602001916117dc565b820191906000526020600020905b8154815290600101906020018083116117bf57829003601f168201915b505050505090506105f3565b600065ffffffffffff8211156116a45760405162461bcd60e51b815260206004820152602660248201527f53616665436173743a2076616c756520646f65736e27742066697420696e203460448201526538206269747360d01b60648201526084016106a6565b600061185f600880546001019055565b6000611869611b3e565b90507f8030e83b04d87bef53480e26263266d6ca66863aa8506aca6f2559d18aa1cb678160405161189c91815260200190565b60405180910390a1919050565b60006105f36118b66111f9565b8360405161190160f01b8152600281019290925260228201526042902090565b60008060006118e787878787611dbf565b915091506118f481611e83565b5095945050505050565b6001600160a01b0381166000908152600c602052604090208054600181018255905b50919050565b61192e611d33565b611939838383611fcd565b505050565b611939838383612015565b60008160000361195b57506000919050565b6000600161196884612047565b901c6001901b905060018184816119815761198161294f565b048201901c905060018184816119995761199961294f565b048201901c905060018184816119b1576119b161294f565b048201901c905060018184816119c9576119c961294f565b048201901c905060018184816119e1576119e161294f565b048201901c905060018184816119f9576119f961294f565b048201901c90506001818481611a1157611a1161294f565b048201901c90506106d181828581611a2b57611a2b61294f565b046120db565b6000611a406002848418612965565b6106d190848416612913565b600954600160a01b900460ff166106e85760405162461bcd60e51b815260206004820152601460248201527314185d5cd8589b194e881b9bdd081c185d5cd95960621b60448201526064016106a6565b611aa682826120f1565b6002546001600160e01b031015611b185760405162461bcd60e51b815260206004820152603060248201527f4552433230566f7465733a20746f74616c20737570706c79207269736b73206f60448201526f766572666c6f77696e6720766f74657360801b60648201526084016106a6565b61103e6010610e8e836121c4565b611b308282612339565b61103e6010610e9a836121c4565b600061062760085490565b81546000908103611b5c575060006105f3565b82546000905b80821015611ba9576000611b768383611a31565b60008781526020902090915085908201541115611b9557809150611ba3565b611ba0816001612913565b92505b50611b62565b600082118015611bd5575083611bd286611bc460018661293c565b600091825260209091200190565b54145b15611bee57611be560018361293c565b925050506105f3565b5090506105f3565b816001600160a01b0316836001600160a01b031614158015611c185750600081115b15611939576001600160a01b03831615611ca6576001600160a01b0383166000908152600f602052604081208190611c5390610e9a856121c4565b91509150846001600160a01b03167fdec2bacdd2f05b59de34da9b523dff8be42e5e38e818c82fdb0bae774387a7248383604051611c9b929190918252602082015260400190565b60405180910390a250505b6001600160a01b03821615611939576001600160a01b0382166000908152600f602052604081208190611cdc90610e8e856121c4565b91509150836001600160a01b03167fdec2bacdd2f05b59de34da9b523dff8be42e5e38e818c82fdb0bae774387a7248383604051611d24929190918252602082015260400190565b60405180910390a25050505050565b600954600160a01b900460ff16156106e85760405162461bcd60e51b815260206004820152601060248201526f14185d5cd8589b194e881c185d5cd95960821b60448201526064016106a6565b60606000611d8d8361247e565b604080516020808252818301909252919250600091906020820181803683375050509182525060208101929092525090565b6000807f7fffffffffffffffffffffffffffffff5d576e7357a4501ddfe92f46681b20a0831115611df65750600090506003611e7a565b6040805160008082526020820180845289905260ff881692820192909252606081018690526080810185905260019060a0016020604051602081039080840390855afa158015611e4a573d6000803e3d6000fd5b5050604051601f1901519150506001600160a01b038116611e7357600060019250925050611e7a565b9150600090505b94509492505050565b6000816004811115611e9757611e97612987565b03611e9f5750565b6001816004811115611eb357611eb3612987565b03611f005760405162461bcd60e51b815260206004820152601860248201527f45434453413a20696e76616c6964207369676e6174757265000000000000000060448201526064016106a6565b6002816004811115611f1457611f14612987565b03611f615760405162461bcd60e51b815260206004820152601f60248201527f45434453413a20696e76616c6964207369676e6174757265206c656e6774680060448201526064016106a6565b6003816004811115611f7557611f75612987565b0361070a5760405162461bcd60e51b815260206004820152602260248201527f45434453413a20696e76616c6964207369676e6174757265202773272076616c604482015261756560f01b60648201526084016106a6565b6001600160a01b038316611fec57611fe4826124a6565b6119396124d8565b6001600160a01b03821661200357611fe4836124a6565b61200c836124a6565b611939826124a6565b6001600160a01b038381166000908152600e602052604080822054858416835291205461193992918216911683611bf6565b600080608083901c1561205c57608092831c92015b604083901c1561206e57604092831c92015b602083901c1561208057602092831c92015b601083901c1561209257601092831c92015b600883901c156120a457600892831c92015b600483901c156120b657600492831c92015b600283901c156120c857600292831c92015b600183901c156105f35760010192915050565b60008183106120ea57816106d1565b5090919050565b6001600160a01b0382166121475760405162461bcd60e51b815260206004820152601f60248201527f45524332303a206d696e7420746f20746865207a65726f20616464726573730060448201526064016106a6565b61215360008383611926565b80600260008282546121659190612913565b90915550506001600160a01b038216600081815260208181526040808320805486019055518481527fddf252ad1be2c89b69c2b068fc378daa952ba7f163c4a11628f55a4df523b3ef910160405180910390a36106fc6000838361193e565b825460009081908181156122115760008781526020902082016000190160408051808201909152905463ffffffff8116825264010000000090046001600160e01b03166020820152612226565b60408051808201909152600080825260208201525b905080602001516001600160e01b0316935061224684868863ffffffff16565b9250600082118015612270575061225b61096f565b65ffffffffffff16816000015163ffffffff16145b156122b55761227e836124e6565b60008881526020902083016000190180546001600160e01b03929092166401000000000263ffffffff90921691909117905561232f565b8660405180604001604052806122d96122cc61096f565b65ffffffffffff1661163f565b63ffffffff1681526020016122ed866124e6565b6001600160e01b0390811690915282546001810184556000938452602093849020835194909301519091166401000000000263ffffffff909316929092179101555b5050935093915050565b6001600160a01b0382166123995760405162461bcd60e51b815260206004820152602160248201527f45524332303a206275726e2066726f6d20746865207a65726f206164647265736044820152607360f81b60648201526084016106a6565b6123a582600083611926565b6001600160a01b038216600090815260208190526040902054818110156124195760405162461bcd60e51b815260206004820152602260248201527f45524332303a206275726e20616d6f756e7420657863656564732062616c616e604482015261636560f01b60648201526084016106a6565b6001600160a01b0383166000818152602081815260408083208686039055600280548790039055518581529192917fddf252ad1be2c89b69c2b068fc378daa952ba7f163c4a11628f55a4df523b3ef910160405180910390a36119398360008461193e565b600060ff8216601f8111156105f357604051632cd44ac360e21b815260040160405180910390fd5b6001600160a01b0381166000908152600560209081526040808320918390529091205461070a919061254f565b61254f565b6106e860066124d360025490565b60006001600160e01b038211156116a45760405162461bcd60e51b815260206004820152602760248201527f53616665436173743a2076616c756520646f65736e27742066697420696e20326044820152663234206269747360c81b60648201526084016106a6565b6000612559611b3e565b90508061256584612599565b1015611939578254600180820185556000858152602080822090930193909355938401805494850181558252902090910155565b805460009081036125ac57506000919050565b815482906125bc9060019061293c565b815481106125cc576125cc612926565b90600052602060002001549050919050565b919050565b6000815180845260005b81811015612609576020818501810151868301820152016125ed565b506000602082860101526020601f19601f83011685010191505092915050565b6020815260006106d160208301846125e3565b80356001600160a01b03811681146125de57600080fd5b6000806040838503121561266657600080fd5b61266f8361263c565b946020939093013593505050565b60008060006060848603121561269257600080fd5b61269b8461263c565b92506126a96020850161263c565b9150604084013590509250925092565b6000602082840312156126cb57600080fd5b5035919050565b6000602082840312156126e457600080fd5b6106d18261263c565b60ff60f81b881681526000602060e08184015261270d60e084018a6125e3565b838103604085015261271f818a6125e3565b606085018990526001600160a01b038816608086015260a0850187905284810360c0860152855180825283870192509083019060005b8181101561277157835183529284019291840191600101612755565b50909c9b505050505050505050505050565b803560ff811681146125de57600080fd5b60008060008060008060c087890312156127ad57600080fd5b6127b68761263c565b955060208701359450604087013593506127d260608801612783565b92506080870135915060a087013590509295509295509295565b600080600080600080600060e0888a03121561280757600080fd5b6128108861263c565b965061281e6020890161263c565b9550604088013594506060880135935061283a60808901612783565b925060a0880135915060c0880135905092959891949750929550565b6000806040838503121561286957600080fd5b6128728361263c565b91506128806020840161263c565b90509250929050565b6000806040838503121561289c57600080fd5b6128a58361263c565b9150602083013563ffffffff811681146128be57600080fd5b809150509250929050565b600181811c908216806128dd57607f821691505b60208210810361192057634e487b7160e01b600052602260045260246000fd5b634e487b7160e01b600052601160045260246000fd5b808201808211156105f3576105f36128fd565b634e487b7160e01b600052603260045260246000fd5b818103818111156105f3576105f36128fd565b634e487b7160e01b600052601260045260246000fd5b60008261298257634e487b7160e01b600052601260045260246000fd5b500490565b634e487b7160e01b600052602160045260246000fdfea26469706673582212206b3831c05f75f610b48e87831edb5469e0ab94596962ca3fd49cca2f04a97bc664736f6c63430008130033dec2bacdd2f05b59de34da9b523dff8be42e5e38e818c82fdb0bae774387a724",
    "linkReferences": {}
  },
  "methodIdentifiers": {
    "CLOCK_MODE()": "4bf5d7e9",
    "DOMAIN_SEPARATOR()": "3644e515",
    "allowance(address,address)": "dd62ed3e",
    "approve(address,uint256)": "095ea7b3",
    "balanceOf(address)": "70a08231",
    "balanceOfAt(address,uint256)": "4ee2cd7e",
    "burn(uint256)": "42966c68",
    "burnFrom(address,uint256)": "79cc6790",
    "checkpoints(address,uint32)": "f1127ed8",
    "clock()": "91ddadf4",
    "decimals()": "313ce567",
    "decreaseAllowance(address,uint256)": "a457c2d7",
    "delegate(address)": "5c19a95c",
    "delegateBySig(address,uint256,uint256,uint8,bytes32,bytes32)": "c3cda520",
    "delegates(address)": "587cde1e",
    "eip712Domain()": "84b0196e",
    "getPastTotalSupply(uint256)": "8e539e8c",
    "getPastVotes(address,uint256)": "3a46b1a8",
    "getVotes(address)": "9ab24eb0",
    "increaseAllowance(address,uint256)": "39509351",
    "mint(address,uint256)": "40c10f19",
    "name()": "06fdde03",
    "nonces(address)": "7ecebe00",
    "numCheckpoints(address)": "6fcfff45",
    "owner()": "8da5cb5b",
    "pause()": "8456cb59",
    "paused()": "5c975abb",
    "permit(address,address,uint256,uint256,uint8,bytes32,bytes32)": "d505accf",
    "renounceOwnership()": "715018a6",
    "snapshot()": "9711715a",
    "symbol()": "95d89b41",
    "totalSupply()": "18160ddd",
    "totalSupplyAt(uint256)": "981b24d0",
    "transfer(address,uint256)": "a9059cbb",
    "transferFrom(address,address,uint256)": "23b872dd",
    "transferOwnership(address)": "f2fde38b",
    "unpause()": "3f4ba83a"
  },
  "id": 1
}