{
  "abi": [
    {
      "inputs": [],
      "stateMutability": "nonpayable",
      "type": "constructor"
    },
    {
      "anonymous": false,
      "inputs": [
        {
          "indexed": true,
          "internalType": "address",
          "name": "owner",
          "type": "address"
        },
        {
          "indexed": true,
          "internalType": "address",
          "name": "approved",
          "type": "address"
        },
        {
          "indexed": true,
          "internalType": "uint256",
          "name": "tokenId",
          "type": "uint256"
        }
      ],
      "name": "Approval",
      "type": "event"
    },
    {
      "anonymous": false,
      "inputs": [
        {
          "indexed": true,
          "internalType": "address",
          "name": "owner",
          "type": "address"
        },
        {
          "indexed": true,
          "internalType": "address",
          "name": "operator",
          "type": "address"
        },
        {
          "indexed": false,
          "internalType": "bool",
          "name": "approved",
          "type": "bool"
        }
      ],
      "name": "ApprovalForAll",
      "type": "event"
    },
    {
      "anonymous": false,
      "inputs": [
        {
          "indexed": true,
          "internalType": "address",
          "name": "previousOwner",
          "type": "address"
        },
        {
          "indexed": true,
          "internalType": "address",
          "name": "newOwner",
          "type": "address"
        }
      ],
      "name": "OwnershipTransferred",
      "type": "event"
    },
    {
      "anonymous": false,
      "inputs": [
        {
          "indexed": true,
          "internalType": "address",
          "name": "from",
          "type": "address"
        },
        {
          "indexed": true,
          "internalType": "address",
          "name": "to",
          "type": "address"
        },
        {
          "indexed": true,
          "internalType": "uint256",
          "name": "tokenId",
          "type": "uint256"
        }
      ],
      "name": "Transfer",
      "type": "event"
    },
    {
      "inputs": [
        {
          "internalType": "address",
          "name": "to",
          "type": "address"
        },
        {
          "internalType": "uint256",
          "name": "tokenId",
          "type": "uint256"
        }
      ],
      "name": "approve",
      "outputs": [],
      "stateMutability": "nonpayable",
      "type": "function"
    },
    {
      "inputs": [
        {
          "internalType": "address",
          "name": "owner",
          "type": "address"
        }
      ],
      "name": "balanceOf",
      "outputs": [
        {
          "internalType": "uint256",
          "name": "",
          "type": "uint256"
        }
      ],
      "stateMutability": "view",
      "type": "function"
    },
    {
      "inputs": [
        {
          "internalType": "uint256",
          "name": "tokenId",
          "type": "uint256"
        }
      ],
      "name": "getApproved",
      "outputs": [
        {
          "internalType": "address",
          "name": "",
          "type": "address"
        }
      ],
      "stateMutability": "view",
      "type": "function"
    },
    {
      "inputs": [],
      "name": "getTokenId",
      "outputs": [
        {
          "internalType": "uint256",
          "name": "",
          "type": "uint256"
        }
      ],
      "stateMutability": "nonpayable",
      "type": "function"
    },
    {
      "inputs": [
        {
          "internalType": "address",
          "name": "owner",
          "type": "address"
        },
        {
          "internalType": "address",
          "name": "operator",
          "type": "address"
        }
      ],
      "name": "isApprovedForAll",
      "outputs": [
        {
          "internalType": "bool",
          "name": "",
          "type": "bool"
        }
      ],
      "stateMutability": "view",
      "type": "function"
    },
    {
      "inputs": [],
      "name": "name",
      "outputs": [
        {
          "internalType": "string",
          "name": "",
          "type": "string"
        }
      ],
      "stateMutability": "view",
      "type": "function"
    },
    {
      "inputs": [],
      "name": "owner",
      "outputs": [
        {
          "internalType": "address",
          "name": "",
          "type": "address"
        }
      ],
      "stateMutability": "view",
      "type": "function"
    },
    {
      "inputs": [
        {
          "internalType": "uint256",
          "name": "tokenId",
          "type": "uint256"
        }
      ],
      "name": "ownerOf",
      "outputs": [
        {
          "internalType": "address",
          "name": "",
          "type": "address"
        }
      ],
      "stateMutability": "view",
      "type": "function"
    },
    {
      "inputs": [],
      "name": "renounceOwnership",
      "outputs": [],
      "stateMutability": "nonpayable",
      "type": "function"
    },
    {
      "inputs": [
        {
          "internalType": "address",
          "name": "to",
          "type": "address"
        }
      ],
      "name": "safeMint",
      "outputs": [],
      "stateMutability": "nonpayable",
      "type": "function"
    },
    {
      "inputs": [
        {
          "internalType": "address",
          "name": "from",
          "type": "address"
        },
        {
          "internalType": "address",
          "name": "to",
          "type": "address"
        },
        {
          "internalType": "uint256",
          "name": "tokenId",
          "type": "uint256"
        }
      ],
      "name": "safeTransferFrom",
      "outputs": [],
      "stateMutability": "nonpayable",
      "type": "function"
    },
    {
      "inputs": [
        {
          "internalType": "address",
          "name": "from",
          "type": "address"
        },
        {
          "internalType": "address",
          "name": "to",
          "type": "address"
        },
        {
          "internalType": "uint256",
          "name": "tokenId",
          "type": "uint256"
        },
        {
          "internalType": "bytes",
          "name": "data",
          "type": "bytes"
        }
      ],
      "name": "safeTransferFrom",
      "outputs": [],
      "stateMutability": "nonpayable",
      "type": "function"
    },
    {
      "inputs": [
        {
          "internalType": "address",
          "name": "operator",
          "type": "address"
        },
        {
          "internalType": "bool",
          "name": "approved",
          "type": "bool"
        }
      ],
      "name": "setApprovalForAll",
      "outputs": [],
      "stateMutability": "nonpayable",
      "type": "function"
    },
    {
      "inputs": [
        {
          "internalType": "bytes4",
          "name": "interfaceId",
          "type": "bytes4"
        }
      ],
      "name": "supportsInterface",
      "outputs": [
        {
          "internalType": "bool",
          "name": "",
          "type": "bool"
        }
      ],
      "stateMutability": "view",
      "type": "function"
    },
    {
      "inputs": [],
      "name": "symbol",
      "outputs": [
        {
          "internalType": "string",
          "name": "",
          "type": "string"
        }
      ],
      "stateMutability": "view",
      "type": "function"
    },
    {
      "inputs": [
        {
          "internalType": "uint256",
          "name": "tokenId",
          "type": "uint256"
        }
      ],
      "name": "tokenURI",
      "outputs": [
        {
          "internalType": "string",
          "name": "",
          "type": "string"
        }
      ],
      "stateMutability": "view",
      "type": "function"
    },
    {
      "inputs": [
        {
          "internalType": "address",
          "name": "from",
          "type": "address"
        },
        {
          "internalType": "address",
          "name": "to",
          "type": "address"
        },
        {
          "internalType": "uint256",
          "name": "tokenId",
          "type": "uint256"
        }
      ],
      "name": "transferFrom",
      "outputs": [],
      "stateMutability": "nonpayable",
      "type": "function"
    },
    {
      "inputs": [
        {
          "internalType": "address",
          "name": "newOwner",
          "type": "address"
        }
      ],
      "name": "transferOwnership",
      "outputs": [],
      "stateMutability": "nonpayable",
      "type": "function"
    }
  ],
  "bytecode": {
    "object": "0x60806040523480156200001157600080fd5b506040518060400160405280600781526020016626bcaa37b5b2b760c91b815250604051806040016040528060038152602001624d544b60e81b81525081600090816200005f91906200018c565b5060016200006e82826200018c565b5050506200008b620000856200009160201b60201c565b62000095565b62000258565b3390565b600680546001600160a01b038381166001600160a01b0319831681179093556040519116919082907f8be0079c531659141344cd1fd0a4f28419497f9722a3daafe3b4186f6b6457e090600090a35050565b634e487b7160e01b600052604160045260246000fd5b600181811c908216806200011257607f821691505b6020821081036200013357634e487b7160e01b600052602260045260246000fd5b50919050565b601f8211156200018757600081815260208120601f850160051c81016020861015620001625750805b601f850160051c820191505b8181101562000183578281556001016200016e565b5050505b505050565b81516001600160401b03811115620001a857620001a8620000e7565b620001c081620001b98454620000fd565b8462000139565b602080601f831160018114620001f85760008415620001df5750858301515b600019600386901b1c1916600185901b17855562000183565b600085815260208120601f198616915b82811015620002295788860151825594840194600190910190840162000208565b5085821015620002485787850151600019600388901b60f8161c191681555b5050505050600190811b01905550565b6114c480620002686000396000f3fe608060405234801561001057600080fd5b50600436106101165760003560e01c806370a08231116100a2578063a22cb46511610071578063a22cb4651461022e578063b88d4fde14610241578063c87b56dd14610254578063e985e9c514610267578063f2fde38b146102a357600080fd5b806370a08231146101fa578063715018a61461020d5780638da5cb5b1461021557806395d89b411461022657600080fd5b8063095ea7b3116100e9578063095ea7b31461019957806323b872dd146101ae57806340d097c3146101c157806342842e0e146101d45780636352211e146101e757600080fd5b8063010a38f51461011b57806301ffc9a71461013657806306fdde0314610159578063081812fc1461016e575b600080fd5b6101236102b6565b6040519081526020015b60405180910390f35b610149610144366004611050565b6102c6565b604051901515815260200161012d565b610161610318565b60405161012d91906110bd565b61018161017c3660046110d0565b6103aa565b6040516001600160a01b03909116815260200161012d565b6101ac6101a7366004611105565b6103d1565b005b6101ac6101bc36600461112f565b6104eb565b6101ac6101cf36600461116b565b61051c565b6101ac6101e236600461112f565b610545565b6101816101f53660046110d0565b610560565b61012361020836600461116b565b6105c0565b6101ac610646565b6006546001600160a01b0316610181565b61016161065a565b6101ac61023c366004611186565b610669565b6101ac61024f3660046111d8565b610674565b6101616102623660046110d0565b6106ac565b6101496102753660046112b4565b6001600160a01b03918216600090815260056020908152604080832093909416825291909152205460ff1690565b6101ac6102b136600461116b565b610720565b60006102c160075490565b905090565b60006001600160e01b031982166380ac58cd60e01b14806102f757506001600160e01b03198216635b5e139f60e01b145b8061031257506301ffc9a760e01b6001600160e01b03198316145b92915050565b606060008054610327906112e7565b80601f0160208091040260200160405190810160405280929190818152602001828054610353906112e7565b80156103a05780601f10610375576101008083540402835291602001916103a0565b820191906000526020600020905b81548152906001019060200180831161038357829003601f168201915b5050505050905090565b60006103b582610799565b506000908152600460205260409020546001600160a01b031690565b60006103dc82610560565b9050806001600160a01b0316836001600160a01b03160361044e5760405162461bcd60e51b815260206004820152602160248201527f4552433732313a20617070726f76616c20746f2063757272656e74206f776e656044820152603960f91b60648201526084015b60405180910390fd5b336001600160a01b038216148061046a575061046a8133610275565b6104dc5760405162461bcd60e51b815260206004820152603d60248201527f4552433732313a20617070726f76652063616c6c6572206973206e6f7420746f60448201527f6b656e206f776e6572206f7220617070726f76656420666f7220616c6c0000006064820152608401610445565b6104e683836107f8565b505050565b6104f53382610866565b6105115760405162461bcd60e51b815260040161044590611321565b6104e68383836108e5565b600061052760075490565b9050610537600780546001019055565b6105418282610a49565b5050565b6104e683838360405180602001604052806000815250610674565b6000818152600260205260408120546001600160a01b0316806103125760405162461bcd60e51b8152602060048201526018602482015277115490cdcc8c4e881a5b9d985b1a59081d1bdad95b88125160421b6044820152606401610445565b60006001600160a01b03821661062a5760405162461bcd60e51b815260206004820152602960248201527f4552433732313a2061646472657373207a65726f206973206e6f7420612076616044820152683634b21037bbb732b960b91b6064820152608401610445565b506001600160a01b031660009081526003602052604090205490565b61064e610a63565b6106586000610abd565b565b606060018054610327906112e7565b610541338383610b0f565b61067e3383610866565b61069a5760405162461bcd60e51b815260040161044590611321565b6106a684848484610bdd565b50505050565b60606106b782610799565b60006106ce60408051602081019091526000815290565b905060008151116106ee5760405180602001604052806000815250610719565b806106f884610c10565b60405160200161070992919061136e565b6040516020818303038152906040525b9392505050565b610728610a63565b6001600160a01b03811661078d5760405162461bcd60e51b815260206004820152602660248201527f4f776e61626c653a206e6577206f776e657220697320746865207a65726f206160448201526564647265737360d01b6064820152608401610445565b61079681610abd565b50565b6000818152600260205260409020546001600160a01b03166107965760405162461bcd60e51b8152602060048201526018602482015277115490cdcc8c4e881a5b9d985b1a59081d1bdad95b88125160421b6044820152606401610445565b600081815260046020526040902080546001600160a01b0319166001600160a01b038416908117909155819061082d82610560565b6001600160a01b03167f8c5be1e5ebec7d5bd14f71427d1e84f3dd0314c0f7b2291e5b200ac8c7c3b92560405160405180910390a45050565b60008061087283610560565b9050806001600160a01b0316846001600160a01b031614806108b957506001600160a01b0380821660009081526005602090815260408083209388168352929052205460ff165b806108dd5750836001600160a01b03166108d2846103aa565b6001600160a01b0316145b949350505050565b826001600160a01b03166108f882610560565b6001600160a01b03161461091e5760405162461bcd60e51b81526004016104459061139d565b6001600160a01b0382166109805760405162461bcd60e51b8152602060048201526024808201527f4552433732313a207472616e7366657220746f20746865207a65726f206164646044820152637265737360e01b6064820152608401610445565b826001600160a01b031661099382610560565b6001600160a01b0316146109b95760405162461bcd60e51b81526004016104459061139d565b600081815260046020908152604080832080546001600160a01b03199081169091556001600160a01b0387811680865260038552838620805460001901905590871680865283862080546001019055868652600290945282852080549092168417909155905184937fddf252ad1be2c89b69c2b068fc378daa952ba7f163c4a11628f55a4df523b3ef91a4505050565b610541828260405180602001604052806000815250610ca3565b6006546001600160a01b031633146106585760405162461bcd60e51b815260206004820181905260248201527f4f776e61626c653a2063616c6c6572206973206e6f7420746865206f776e65726044820152606401610445565b600680546001600160a01b038381166001600160a01b0319831681179093556040519116919082907f8be0079c531659141344cd1fd0a4f28419497f9722a3daafe3b4186f6b6457e090600090a35050565b816001600160a01b0316836001600160a01b031603610b705760405162461bcd60e51b815260206004820152601960248201527f4552433732313a20617070726f766520746f2063616c6c6572000000000000006044820152606401610445565b6001600160a01b03838116600081815260056020908152604080832094871680845294825291829020805460ff191686151590811790915591519182527f17307eab39ab6107e8899845ad3d59bd9653f200f220920489ca2b5937696c31910160405180910390a3505050565b610be88484846108e5565b610bf484848484610cd6565b6106a65760405162461bcd60e51b8152600401610445906113e2565b60606000610c1d83610dd7565b600101905060008167ffffffffffffffff811115610c3d57610c3d6111c2565b6040519080825280601f01601f191660200182016040528015610c67576020820181803683370190505b5090508181016020015b600019016f181899199a1a9b1b9c1cb0b131b232b360811b600a86061a8153600a8504945084610c7157509392505050565b610cad8383610eaf565b610cba6000848484610cd6565b6104e65760405162461bcd60e51b8152600401610445906113e2565b60006001600160a01b0384163b15610dcc57604051630a85bd0160e11b81526001600160a01b0385169063150b7a0290610d1a903390899088908890600401611434565b6020604051808303816000875af1925050508015610d55575060408051601f3d908101601f19168201909252610d5291810190611471565b60015b610db2573d808015610d83576040519150601f19603f3d011682016040523d82523d6000602084013e610d88565b606091505b508051600003610daa5760405162461bcd60e51b8152600401610445906113e2565b805181602001fd5b6001600160e01b031916630a85bd0160e11b1490506108dd565b506001949350505050565b60008072184f03e93ff9f4daa797ed6e38ed64bf6a1f0160401b8310610e165772184f03e93ff9f4daa797ed6e38ed64bf6a1f0160401b830492506040015b6d04ee2d6d415b85acef81000000008310610e42576d04ee2d6d415b85acef8100000000830492506020015b662386f26fc100008310610e6057662386f26fc10000830492506010015b6305f5e1008310610e78576305f5e100830492506008015b6127108310610e8c57612710830492506004015b60648310610e9e576064830492506002015b600a83106103125760010192915050565b6001600160a01b038216610f055760405162461bcd60e51b815260206004820181905260248201527f4552433732313a206d696e7420746f20746865207a65726f20616464726573736044820152606401610445565b6000818152600260205260409020546001600160a01b031615610f6a5760405162461bcd60e51b815260206004820152601c60248201527f4552433732313a20746f6b656e20616c7265616479206d696e746564000000006044820152606401610445565b6000818152600260205260409020546001600160a01b031615610fcf5760405162461bcd60e51b815260206004820152601c60248201527f4552433732313a20746f6b656e20616c7265616479206d696e746564000000006044820152606401610445565b6001600160a01b038216600081815260036020908152604080832080546001019055848352600290915280822080546001600160a01b0319168417905551839291907fddf252ad1be2c89b69c2b068fc378daa952ba7f163c4a11628f55a4df523b3ef908290a45050565b6001600160e01b03198116811461079657600080fd5b60006020828403121561106257600080fd5b81356107198161103a565b60005b83811015611088578181015183820152602001611070565b50506000910152565b600081518084526110a981602086016020860161106d565b601f01601f19169290920160200192915050565b6020815260006107196020830184611091565b6000602082840312156110e257600080fd5b5035919050565b80356001600160a01b038116811461110057600080fd5b919050565b6000806040838503121561111857600080fd5b611121836110e9565b946020939093013593505050565b60008060006060848603121561114457600080fd5b61114d846110e9565b925061115b602085016110e9565b9150604084013590509250925092565b60006020828403121561117d57600080fd5b610719826110e9565b6000806040838503121561119957600080fd5b6111a2836110e9565b9150602083013580151581146111b757600080fd5b809150509250929050565b634e487b7160e01b600052604160045260246000fd5b600080600080608085870312156111ee57600080fd5b6111f7856110e9565b9350611205602086016110e9565b925060408501359150606085013567ffffffffffffffff8082111561122957600080fd5b818701915087601f83011261123d57600080fd5b81358181111561124f5761124f6111c2565b604051601f8201601f19908116603f01168101908382118183101715611277576112776111c2565b816040528281528a602084870101111561129057600080fd5b82602086016020830137600060208483010152809550505050505092959194509250565b600080604083850312156112c757600080fd5b6112d0836110e9565b91506112de602084016110e9565b90509250929050565b600181811c908216806112fb57607f821691505b60208210810361131b57634e487b7160e01b600052602260045260246000fd5b50919050565b6020808252602d908201527f4552433732313a2063616c6c6572206973206e6f7420746f6b656e206f776e6560408201526c1c881bdc88185c1c1c9bdd9959609a1b606082015260800190565b6000835161138081846020880161106d565b83519083019061139481836020880161106d565b01949350505050565b60208082526025908201527f4552433732313a207472616e736665722066726f6d20696e636f72726563742060408201526437bbb732b960d91b606082015260800190565b60208082526032908201527f4552433732313a207472616e7366657220746f206e6f6e20455243373231526560408201527131b2b4bb32b91034b6b83632b6b2b73a32b960711b606082015260800190565b6001600160a01b038581168252841660208201526040810183905260806060820181905260009061146790830184611091565b9695505050505050565b60006020828403121561148357600080fd5b81516107198161103a56fea26469706673582212208bcaece6089dcbc70fc4c7d3ba9a94d5803bc71070370c343a1e8b51e6a6f68c64736f6c63430008110033",
    "linkReferences": {}
  },
  "methodIdentifiers": {
    "approve(address,uint256)": "095ea7b3",
    "balanceOf(address)": "70a08231",
    "getApproved(uint256)": "081812fc",
    "getTokenId()": "010a38f5",
    "isApprovedForAll(address,address)": "e985e9c5",
    "name()": "06fdde03",
    "owner()": "8da5cb5b",
    "ownerOf(uint256)": "6352211e",
    "renounceOwnership()": "715018a6",
    "safeMint(address)": "40d097c3",
    "safeTransferFrom(address,address,uint256)": "42842e0e",
    "safeTransferFrom(address,address,uint256,bytes)": "b88d4fde",
    "setApprovalForAll(address,bool)": "a22cb465",
    "supportsInterface(bytes4)": "01ffc9a7",
    "symbol()": "95d89b41",
    "tokenURI(uint256)": "c87b56dd",
    "transferFrom(address,address,uint256)": "23b872dd",
    "transferOwnership(address)": "f2fde38b"
  },
  "id": 8
}