{
  "abi": [
    {
      "inputs": [
        {
          "internalType": "address",
          "name": "_amm",
          "type": "address"
        }
      ],
      "stateMutability": "nonpayable",
      "type": "constructor"
    },
    {
      "inputs": [
        {
          "internalType": "address",
          "name": "_tokenA",
          "type": "address"
        },
        {
          "internalType": "address",
          "name": "_tokenB",
          "type": "address"
        },
        {
          "internalType": "uint256",
          "name": "_amountA",
          "type": "uint256"
        }
      ],
      "name": "calculateLpTokenAddAmount",
      "outputs": [
        {
          "internalType": "uint256",
          "name": "_amountB",
          "type": "uint256"
        }
      ],
      "stateMutability": "view",
      "type": "function"
    },
    {
      "inputs": [
        {
          "internalType": "address",
          "name": "_tokenIn",
          "type": "address"
        },
        {
          "internalType": "address",
          "name": "_tokenOut",
          "type": "address"
        },
        {
          "internalType": "uint256",
          "name": "_tokenInAmount",
          "type": "uint256"
        }
      ],
      "name": "calculateTokenOutAmount",
      "outputs": [
        {
          "internalType": "uint256",
          "name": "tokenOutAmount",
          "type": "uint256"
        }
      ],
      "stateMutability": "view",
      "type": "function"
    },
    {
      "inputs": [
        {
          "internalType": "address",
          "name": "_tokenA",
          "type": "address"
        },
        {
          "internalType": "address",
          "name": "_tokenB",
          "type": "address"
        }
      ],
      "name": "getTokenPrice",
      "outputs": [
        {
          "internalType": "uint256",
          "name": "reserveA",
          "type": "uint256"
        },
        {
          "internalType": "uint256",
          "name": "reserveB",
          "type": "uint256"
        },
        {
          "internalType": "uint256",
          "name": "one_tokenA_price",
          "type": "uint256"
        },
        {
          "internalType": "uint256",
          "name": "one_tokenB_price",
          "type": "uint256"
        }
      ],
      "stateMutability": "view",
      "type": "function"
    }
  ],
  "bytecode": {
    "object": "0x608060405234801561001057600080fd5b5060405161078338038061078383398101604081905261002f91610054565b600080546001600160a01b0319166001600160a01b0392909216919091179055610084565b60006020828403121561006657600080fd5b81516001600160a01b038116811461007d57600080fd5b9392505050565b6106f0806100936000396000f3fe608060405234801561001057600080fd5b50600436106100415760003560e01c806341e99fec14610046578063afa998601461006c578063f6f49aff1461009f575b600080fd5b610059610054366004610581565b6100b2565b6040519081526020015b60405180910390f35b61007f61007a3660046105c2565b610243565b604080519485526020850193909352918301526060820152608001610063565b6100596100ad366004610581565b6103f1565b6000805460405163cdbb8cd960e01b815282916001600160a01b03169063cdbb8cd9906100e590889088906004016105fb565b602060405180830381865afa158015610102573d6000803e3d6000fd5b505050506040513d601f19601f820116820180604052508101906101269190610615565b6000805460405163cbc3ab5360e01b815292935090916001600160a01b039091169063cbc3ab539061015e9085908a906004016105fb565b602060405180830381865afa15801561017b573d6000803e3d6000fd5b505050506040513d601f19601f8201168201806040525081019061019f9190610639565b6000805460405163cbc3ab5360e01b815292935090916001600160a01b039091169063cbc3ab53906101d79086908a906004016105fb565b602060405180830381865afa1580156101f4573d6000803e3d6000fd5b505050506040513d601f19601f820116820180604052508101906102189190610639565b90506102248583610668565b61022e8683610681565b6102389190610698565b979650505050505050565b6000805460405163cdbb8cd960e01b815282918291829182916001600160a01b039091169063cdbb8cd99061027e908a908a906004016105fb565b602060405180830381865afa15801561029b573d6000803e3d6000fd5b505050506040513d601f19601f820116820180604052508101906102bf9190610615565b60005460405163cbc3ab5360e01b81529192506001600160a01b03169063cbc3ab53906102f29084908b906004016105fb565b602060405180830381865afa15801561030f573d6000803e3d6000fd5b505050506040513d601f19601f820116820180604052508101906103339190610639565b60005460405163cbc3ab5360e01b81529196506001600160a01b03169063cbc3ab53906103669084908a906004016105fb565b602060405180830381865afa158015610383573d6000803e3d6000fd5b505050506040513d601f19601f820116820180604052508101906103a79190610639565b9350846103bc670de0b6b3a764000086610681565b6103c69190610698565b9250836103db670de0b6b3a764000087610681565b6103e59190610698565b91505092959194509250565b6000805460405163cdbb8cd960e01b815282916001600160a01b03169063cdbb8cd99061042490889088906004016105fb565b602060405180830381865afa158015610441573d6000803e3d6000fd5b505050506040513d601f19601f820116820180604052508101906104659190610615565b60005460405163cbc3ab5360e01b81529192506001600160a01b03169063cbc3ab539061049890849089906004016105fb565b602060405180830381865afa1580156104b5573d6000803e3d6000fd5b505050506040513d601f19601f820116820180604052508101906104d99190610639565b60005460405163cbc3ab5360e01b815285916001600160a01b03169063cbc3ab539061050b9086908a906004016105fb565b602060405180830381865afa158015610528573d6000803e3d6000fd5b505050506040513d601f19601f8201168201806040525081019061054c9190610639565b6105569190610681565b6105609190610698565b95945050505050565b6001600160a01b038116811461057e57600080fd5b50565b60008060006060848603121561059657600080fd5b83356105a181610569565b925060208401356105b181610569565b929592945050506040919091013590565b600080604083850312156105d557600080fd5b82356105e081610569565b915060208301356105f081610569565b809150509250929050565b6001600160a01b0392831681529116602082015260400190565b60006020828403121561062757600080fd5b815161063281610569565b9392505050565b60006020828403121561064b57600080fd5b5051919050565b634e487b7160e01b600052601160045260246000fd5b8082018082111561067b5761067b610652565b92915050565b808202811582820484141761067b5761067b610652565b6000826106b557634e487b7160e01b600052601260045260246000fd5b50049056fea264697066735822122097152d1ee488fed4f8522dcb524aa1010a59cc030c7f7e586a8ec60a2686890364736f6c63430008130033",
    "linkReferences": {}
  },
  "methodIdentifiers": {
    "calculateLpTokenAddAmount(address,address,uint256)": "f6f49aff",
    "calculateTokenOutAmount(address,address,uint256)": "41e99fec",
    "getTokenPrice(address,address)": "afa99860"
  },
  "id": 0
}