{
  "abi": [
    {
      "inputs": [
        {
          "internalType": "address",
          "name": "",
          "type": "address"
        }
      ],
      "name": "FTReserve",
      "outputs": [
        {
          "internalType": "uint256",
          "name": "",
          "type": "uint256"
        }
      ],
      "stateMutability": "view",
      "type": "function"
    },
    {
      "inputs": [
        {
          "internalType": "uint256",
          "name": "_reserver",
          "type": "uint256"
        },
        {
          "internalType": "uint256",
          "name": "_addAmount",
          "type": "uint256"
        }
      ],
      "name": "calculateRewardTokenAmount",
      "outputs": [
        {
          "internalType": "uint256",
          "name": "output",
          "type": "uint256"
        }
      ],
      "stateMutability": "pure",
      "type": "function"
    },
    {
      "inputs": [
        {
          "internalType": "address",
          "name": "_FTAddr",
          "type": "address"
        },
        {
          "internalType": "uint256",
          "name": "_reserver",
          "type": "uint256"
        },
        {
          "internalType": "uint256",
          "name": "_addAmount",
          "type": "uint256"
        }
      ],
      "name": "getRewardAndUpdate",
      "outputs": [
        {
          "internalType": "uint256",
          "name": "",
          "type": "uint256"
        }
      ],
      "stateMutability": "nonpayable",
      "type": "function"
    }
  ],
  "bytecode": {
    "object": "0x608060405234801561001057600080fd5b50610954806100206000396000f3fe608060405234801561001057600080fd5b50600436106100415760003560e01c806349e82010146100465780637c9fc2761461006b57806384bb22d81461008b575b600080fd5b610059610054366004610844565b61009e565b60405190815260200160405180910390f35b61005961007936600461087d565b60006020819052908152604090205481565b610059610099366004610898565b6100cc565b60006100a9836100eb565b6100bb6100b684866108e1565b6100eb565b6100c591906108f4565b9392505050565b60006100d884836107f8565b506100e3838361009e565b949350505050565b6000610101670de0b6b3a7640000612710610907565b82116101185761011282600a610907565b92915050565b61012c670de0b6b3a7640000612710610907565b8211801561014d5750610149670de0b6b3a7640000617530610907565b8211155b156101a457610166670de0b6b3a7640000612710610907565b61017090836108f4565b61017b906008610907565b61018f670de0b6b3a7640000612710610907565b61019a90600a610907565b61011291906108e1565b6101b8670de0b6b3a7640000617530610907565b821180156101da57506101d6670de0b6b3a7640000620186a0610907565b8211155b1561026e576101f3670de0b6b3a7640000617530610907565b6101fd90836108f4565b610208906005610907565b61021c670de0b6b3a7640000612710610907565b610230670de0b6b3a7640000617530610907565b61023a91906108f4565b610245906008610907565b610259670de0b6b3a7640000612710610907565b61026490600a610907565b61019a91906108e1565b610283670de0b6b3a7640000620186a0610907565b821180156102a557506102a1670de0b6b3a7640000620493e0610907565b8211155b15610378576102bf670de0b6b3a7640000620186a0610907565b6102c990836108f4565b6102d4906004610907565b6102e8670de0b6b3a7640000617530610907565b6102fd670de0b6b3a7640000620186a0610907565b61030791906108f4565b610312906005610907565b610326670de0b6b3a7640000612710610907565b61033a670de0b6b3a7640000617530610907565b61034491906108f4565b61034f906008610907565b610363670de0b6b3a7640000612710610907565b61036e90600a610907565b61026491906108e1565b61038d670de0b6b3a7640000620493e0610907565b821180156103af57506103ab670de0b6b3a7640000620f4240610907565b8211155b156104d6576103c9670de0b6b3a7640000620493e0610907565b6103de670de0b6b3a7640000620f4240610907565b6103e891906108f4565b6103f3906003610907565b610408670de0b6b3a7640000620186a0610907565b61041d670de0b6b3a7640000620493e0610907565b61042791906108f4565b610432906004610907565b610446670de0b6b3a7640000617530610907565b61045b670de0b6b3a7640000620186a0610907565b61046591906108f4565b610470906005610907565b610484670de0b6b3a7640000612710610907565b610498670de0b6b3a7640000617530610907565b6104a291906108f4565b6104ad906008610907565b6104c1670de0b6b3a7640000612710610907565b6104cc90600a610907565b61036e91906108e1565b6104eb670de0b6b3a7640000620f4240610907565b8211801561050d5750610509670de0b6b3a7640000622dc6c0610907565b8211155b1561067357610527670de0b6b3a7640000620f4240610907565b61053c670de0b6b3a7640000622dc6c0610907565b61054691906108f4565b610551906002610907565b610566670de0b6b3a7640000620493e0610907565b61057b670de0b6b3a7640000620f4240610907565b61058591906108f4565b610590906003610907565b6105a5670de0b6b3a7640000620186a0610907565b6105ba670de0b6b3a7640000620493e0610907565b6105c491906108f4565b6105cf906004610907565b6105e3670de0b6b3a7640000617530610907565b6105f8670de0b6b3a7640000620186a0610907565b61060291906108f4565b61060d906005610907565b610621670de0b6b3a7640000612710610907565b610635670de0b6b3a7640000617530610907565b61063f91906108f4565b61064a906008610907565b61065e670de0b6b3a7640000612710610907565b61066990600a610907565b6104cc91906108e1565b610688670de0b6b3a7640000622dc6c0610907565b61069290836108f4565b6106a7670de0b6b3a7640000620f4240610907565b6106bc670de0b6b3a7640000622dc6c0610907565b6106c691906108f4565b6106d1906002610907565b6106e6670de0b6b3a7640000620493e0610907565b6106fb670de0b6b3a7640000620f4240610907565b61070591906108f4565b610710906003610907565b610725670de0b6b3a7640000620186a0610907565b61073a670de0b6b3a7640000620493e0610907565b61074491906108f4565b61074f906004610907565b610763670de0b6b3a7640000617530610907565b610778670de0b6b3a7640000620186a0610907565b61078291906108f4565b61078d906005610907565b6107a1670de0b6b3a7640000612710610907565b6107b5670de0b6b3a7640000617530610907565b6107bf91906108f4565b6107ca906008610907565b6107de670de0b6b3a7640000612710610907565b6107e990600a610907565b61066991906108e1565b919050565b6001600160a01b0382166000908152602081905260408120805483919083906108229084906108e1565b909155505050506001600160a01b031660009081526020819052604090205490565b6000806040838503121561085757600080fd5b50508035926020909101359150565b80356001600160a01b03811681146107f357600080fd5b60006020828403121561088f57600080fd5b6100c582610866565b6000806000606084860312156108ad57600080fd5b6108b684610866565b95602085013595506040909401359392505050565b634e487b7160e01b600052601160045260246000fd5b80820180821115610112576101126108cb565b81810381811115610112576101126108cb565b8082028115828204841417610112576101126108cb56fea264697066735822122006c340cdf24024078c0f50213e48abb3f91603db971c869393520d65f1535f7764736f6c63430008130033",
    "linkReferences": {}
  },
  "methodIdentifiers": {
    "FTReserve(address)": "7c9fc276",
    "calculateRewardTokenAmount(uint256,uint256)": "49e82010",
    "getRewardAndUpdate(address,uint256,uint256)": "84bb22d8"
  },
  "id": 3
}