{
  "abi": [
    {
      "inputs": [
        {
          "internalType": "address",
          "name": "_wethAddr",
          "type": "address"
        },
        {
          "internalType": "address",
          "name": "_fragmentation",
          "type": "address"
        },
        {
          "internalType": "address",
          "name": "_calculate",
          "type": "address"
        },
        {
          "internalType": "address",
          "name": "_fundContract",
          "type": "address"
        }
      ],
      "stateMutability": "nonpayable",
      "type": "constructor"
    },
    {
      "inputs": [],
      "name": "ONE_ETH",
      "outputs": [
        {
          "internalType": "uint256",
          "name": "",
          "type": "uint256"
        }
      ],
      "stateMutability": "view",
      "type": "function"
    },
    {
      "inputs": [],
      "name": "WETH",
      "outputs": [
        {
          "internalType": "contract IWETH",
          "name": "",
          "type": "address"
        }
      ],
      "stateMutability": "view",
      "type": "function"
    },
    {
      "inputs": [],
      "name": "WETHAddr",
      "outputs": [
        {
          "internalType": "address",
          "name": "",
          "type": "address"
        }
      ],
      "stateMutability": "view",
      "type": "function"
    },
    {
      "inputs": [
        {
          "internalType": "address",
          "name": "_token0",
          "type": "address"
        },
        {
          "internalType": "address",
          "name": "_token1",
          "type": "address"
        },
        {
          "internalType": "uint256",
          "name": "_amount0",
          "type": "uint256"
        },
        {
          "internalType": "uint256",
          "name": "_amount1",
          "type": "uint256"
        }
      ],
      "name": "addLiquidity",
      "outputs": [
        {
          "internalType": "uint256",
          "name": "shares",
          "type": "uint256"
        }
      ],
      "stateMutability": "nonpayable",
      "type": "function"
    },
    {
      "inputs": [
        {
          "internalType": "address",
          "name": "_token",
          "type": "address"
        },
        {
          "internalType": "uint256",
          "name": "_tokenAmount",
          "type": "uint256"
        }
      ],
      "name": "addLiquidityWithETH",
      "outputs": [],
      "stateMutability": "payable",
      "type": "function"
    },
    {
      "inputs": [
        {
          "internalType": "address",
          "name": "_token0",
          "type": "address"
        },
        {
          "internalType": "address",
          "name": "_token1",
          "type": "address"
        },
        {
          "internalType": "uint256",
          "name": "_amount0",
          "type": "uint256"
        },
        {
          "internalType": "uint256",
          "name": "_amount1",
          "type": "uint256"
        }
      ],
      "name": "addLiquidityWithFT",
      "outputs": [],
      "stateMutability": "nonpayable",
      "type": "function"
    },
    {
      "inputs": [],
      "name": "calculate",
      "outputs": [
        {
          "internalType": "contract IFTCalculate",
          "name": "",
          "type": "address"
        }
      ],
      "stateMutability": "view",
      "type": "function"
    },
    {
      "inputs": [],
      "name": "fragmentation",
      "outputs": [
        {
          "internalType": "contract IFragmentation",
          "name": "",
          "type": "address"
        }
      ],
      "stateMutability": "view",
      "type": "function"
    },
    {
      "inputs": [],
      "name": "fundContract",
      "outputs": [
        {
          "internalType": "address",
          "name": "",
          "type": "address"
        }
      ],
      "stateMutability": "view",
      "type": "function"
    },
    {
      "inputs": [
        {
          "internalType": "address",
          "name": "_tokenA",
          "type": "address"
        },
        {
          "internalType": "address",
          "name": "_tokenB",
          "type": "address"
        }
      ],
      "name": "getLptoken",
      "outputs": [
        {
          "internalType": "address",
          "name": "",
          "type": "address"
        }
      ],
      "stateMutability": "view",
      "type": "function"
    },
    {
      "inputs": [],
      "name": "getLptokenLength",
      "outputs": [
        {
          "internalType": "uint256",
          "name": "",
          "type": "uint256"
        }
      ],
      "stateMutability": "view",
      "type": "function"
    },
    {
      "inputs": [
        {
          "internalType": "address",
          "name": "_lpTokenAddr",
          "type": "address"
        },
        {
          "internalType": "address",
          "name": "_tokenAddr",
          "type": "address"
        }
      ],
      "name": "getReserve",
      "outputs": [
        {
          "internalType": "uint256",
          "name": "",
          "type": "uint256"
        }
      ],
      "stateMutability": "view",
      "type": "function"
    },
    {
      "inputs": [
        {
          "internalType": "address",
          "name": "_tokenA",
          "type": "address"
        },
        {
          "internalType": "address",
          "name": "_tokenB",
          "type": "address"
        }
      ],
      "name": "getRewardtoken",
      "outputs": [
        {
          "internalType": "address",
          "name": "",
          "type": "address"
        }
      ],
      "stateMutability": "view",
      "type": "function"
    },
    {
      "inputs": [
        {
          "internalType": "uint256",
          "name": "",
          "type": "uint256"
        }
      ],
      "name": "lpTokenAddressList",
      "outputs": [
        {
          "internalType": "address",
          "name": "",
          "type": "address"
        }
      ],
      "stateMutability": "view",
      "type": "function"
    },
    {
      "inputs": [
        {
          "internalType": "address",
          "name": "_token0",
          "type": "address"
        },
        {
          "internalType": "address",
          "name": "_token1",
          "type": "address"
        },
        {
          "internalType": "address",
          "name": "user",
          "type": "address"
        }
      ],
      "name": "lptokenTotalSupply",
      "outputs": [
        {
          "internalType": "uint256",
          "name": "",
          "type": "uint256"
        }
      ],
      "stateMutability": "view",
      "type": "function"
    },
    {
      "inputs": [
        {
          "internalType": "address",
          "name": "_token0",
          "type": "address"
        },
        {
          "internalType": "address",
          "name": "_token1",
          "type": "address"
        },
        {
          "internalType": "uint256",
          "name": "_shares",
          "type": "uint256"
        }
      ],
      "name": "removeLiquidity",
      "outputs": [
        {
          "internalType": "uint256",
          "name": "amount0",
          "type": "uint256"
        },
        {
          "internalType": "uint256",
          "name": "amount1",
          "type": "uint256"
        }
      ],
      "stateMutability": "nonpayable",
      "type": "function"
    },
    {
      "inputs": [
        {
          "internalType": "uint256",
          "name": "",
          "type": "uint256"
        }
      ],
      "name": "rewardTokenAddressList",
      "outputs": [
        {
          "internalType": "address",
          "name": "",
          "type": "address"
        }
      ],
      "stateMutability": "view",
      "type": "function"
    },
    {
      "inputs": [
        {
          "internalType": "address",
          "name": "_tokenIn",
          "type": "address"
        },
        {
          "internalType": "address",
          "name": "_tokenOut",
          "type": "address"
        },
        {
          "internalType": "uint256",
          "name": "_amountIn",
          "type": "uint256"
        }
      ],
      "name": "swap",
      "outputs": [
        {
          "internalType": "uint256",
          "name": "amountOut",
          "type": "uint256"
        }
      ],
      "stateMutability": "nonpayable",
      "type": "function"
    },
    {
      "inputs": [
        {
          "internalType": "address",
          "name": "_tokenIn",
          "type": "address"
        },
        {
          "internalType": "address",
          "name": "_tokenOut",
          "type": "address"
        },
        {
          "internalType": "uint256",
          "name": "_amountIn",
          "type": "uint256"
        },
        {
          "internalType": "uint256",
          "name": "_disirSli",
          "type": "uint256"
        }
      ],
      "name": "swapByLimitSli",
      "outputs": [
        {
          "internalType": "uint256",
          "name": "amountOut",
          "type": "uint256"
        }
      ],
      "stateMutability": "nonpayable",
      "type": "function"
    },
    {
      "inputs": [
        {
          "internalType": "address",
          "name": "_tokenIn",
          "type": "address"
        },
        {
          "internalType": "uint256",
          "name": "_amountIn",
          "type": "uint256"
        },
        {
          "internalType": "uint256",
          "name": "_disirSli",
          "type": "uint256"
        }
      ],
      "name": "swapToETH",
      "outputs": [],
      "stateMutability": "nonpayable",
      "type": "function"
    },
    {
      "inputs": [
        {
          "internalType": "address",
          "name": "_tokenOut",
          "type": "address"
        },
        {
          "internalType": "uint256",
          "name": "_disirSli",
          "type": "uint256"
        }
      ],
      "name": "swapWithETH",
      "outputs": [],
      "stateMutability": "payable",
      "type": "function"
    },
    {
      "stateMutability": "payable",
      "type": "receive"
    }
  ],
  "bytecode": {
    "object": "0x6101206040523480156200001257600080fd5b5060405162003b6c38038062003b6c83398101604081905262000035916200007b565b6001600160a01b03938416608081905260e05291831660a052821660c0521661010052620000d8565b80516001600160a01b03811681146200007657600080fd5b919050565b600080600080608085870312156200009257600080fd5b6200009d856200005e565b9350620000ad602086016200005e565b9250620000bd604086016200005e565b9150620000cd606086016200005e565b905092959194509250565b60805160a05160c05160e05161010051613a026200016a600039600081816102db0152611c7801526000818161026f015281816108c201528181610b1d0152610bcc015260008181610311015281816122fe01526126030152600081816104c7015261168d0152600081816102a50152818161090201528181610a0c01528181610a940152610b520152613a026000f3fe608060405260043610620001475760003560e01c8063ca77ab6511620000b9578063d9898c7e1162000078578063d9898c7e1462000426578063df791e50146200044b578063e95a464b1462000470578063ea3a4c601462000495578063fb9a58ca14620004b3578063fe1e0f3f14620004e957600080fd5b8063ca77ab6514620002fd578063cbc3ab531462000333578063cdbb8cd9146200037d578063cf6c62ea14620003c6578063d752fab214620003eb57600080fd5b80635ede9fcd11620001065780635ede9fcd146200022d57806375cd0c771462000244578063abdc3808146200025b578063ad5c46481462000291578063bd097e2114620002c757600080fd5b806308d1346414620001545780633f9fe0c2146200018c5780634e34b8d814620001b35780635215ca5b14620001f15780635c4f127c146200021657600080fd5b366200014f57005b600080fd5b3480156200016157600080fd5b5062000179620001733660046200284e565b6200050e565b6040519081526020015b60405180910390f35b3480156200019957600080fd5b50620001b1620001ab36600462002895565b620008b9565b005b348015620001c057600080fd5b50620001d8620001d2366004620028cb565b620009a0565b6040516001600160a01b03909116815260200162000183565b348015620001fe57600080fd5b50620001d86200021036600462002903565b620009cf565b620001b1620002273660046200291d565b620009fa565b620001b16200023e3660046200291d565b62000b45565b3480156200025157600080fd5b5060015462000179565b3480156200026857600080fd5b50620001d87f000000000000000000000000000000000000000000000000000000000000000081565b3480156200029e57600080fd5b50620001d87f000000000000000000000000000000000000000000000000000000000000000081565b348015620002d457600080fd5b50620001d87f000000000000000000000000000000000000000000000000000000000000000081565b3480156200030a57600080fd5b50620001d87f000000000000000000000000000000000000000000000000000000000000000081565b3480156200034057600080fd5b506200017962000352366004620028cb565b6001600160a01b03918216600090815260036020908152604080832093909416825291909152205490565b3480156200038a57600080fd5b50620001d86200039c366004620028cb565b6001600160a01b039182166000908152600460209081526040808320938516835292905220541690565b348015620003d357600080fd5b5062000179620003e53660046200284e565b62000bfb565b348015620003f857600080fd5b50620004106200040a3660046200294a565b62001190565b6040805192835260208301919091520162000183565b3480156200043357600080fd5b50620001b1620004453660046200284e565b6200164d565b3480156200045857600080fd5b50620001796200046a3660046200294a565b62001a5b565b3480156200047d57600080fd5b50620001796200048f3660046200298b565b62001e45565b348015620004a257600080fd5b5062000179670de0b6b3a764000081565b348015620004c057600080fd5b50620001d87f000000000000000000000000000000000000000000000000000000000000000081565b348015620004f657600080fd5b50620001d86200050836600462002903565b62001ef1565b6001600160a01b03848116600090815260046020908152604080832087851684529091528120549091166200057a5760405162461bcd60e51b815260206004820152600d60248201526c34b73b30b634b2103a37b5b2b760991b60448201526064015b60405180910390fd5b60008311620005bc5760405162461bcd60e51b815260206004820152600d60248201526c0616d6f756e7420696e203d203609c1b604482015260640162000571565b836001600160a01b0316856001600160a01b0316036200061f5760405162461bcd60e51b815260206004820152601960248201527f63616e27742073776170207468652073616d6520746f6b656e00000000000000604482015260640162000571565b6103e88310156200067e5760405162461bcd60e51b815260206004820152602260248201527f7265717569726520616d6f756e74496e203e3d20313030302077656920746f6b60448201526132b760f11b606482015260840162000571565b6001600160a01b0385811660008181526004602081815260408084208a8716808652908352818520549096168085526003835281852086865290925280842054958452928390205492516323b872dd60e01b81528a958a95929490939092916323b872dd91620006f591339130918e9101620029d5565b6020604051808303816000875af115801562000715573d6000803e3d6000fd5b505050506040513d601f19601f820116820180604052508101906200073b9190620029f9565b5060006103e86200074f8a6103e562002a33565b6200075b919062002a4d565b905062000769818462002a70565b62000775828462002a33565b62000781919062002a4d565b9650620007918184848b62001f02565b5060405163a9059cbb60e01b81526001600160a01b0386169063a9059cbb90620007c29033908b9060040162002a86565b6020604051808303816000875af1158015620007e2573d6000803e3d6000fd5b505050506040513d601f19601f82011682018060405250810190620008089190620029f9565b506001600160a01b038085166000908152600360209081526040808320938f168352929052908120546200083e908b9062002a70565b905060008860036000886001600160a01b03166001600160a01b0316815260200190815260200160002060008e6001600160a01b03166001600160a01b031681526020019081526020016000205462000898919062002a9f565b9050620008a9868e8e858562001fc5565b5050505050505050949350505050565b6000620008e9847f000000000000000000000000000000000000000000000000000000000000000085856200050e565b6040516378a1085360e11b8152600481018290529091507f00000000000000000000000000000000000000000000000000000000000000006001600160a01b03169063f14210a690602401600060405180830381600087803b1580156200094f57600080fd5b505af115801562000964573d6000803e3d6000fd5b505060405133925082915083156108fc029084906000818181858888f1935050505015801562000998573d6000803e3d6000fd5b505050505050565b6001600160a01b0380831660009081526005602090815260408083208585168452909152902054165b92915050565b60028181548110620009e057600080fd5b6000918252602090912001546001600160a01b0316905081565b600060019050600034905060003390507f00000000000000000000000000000000000000000000000000000000000000006001600160a01b031663f6326fb3836040518263ffffffff1660e01b81526004016000604051808303818588803b15801562000a6657600080fd5b505af115801562000a7b573d6000803e3d6000fd5b505060405163a9059cbb60e01b81526001600160a01b037f000000000000000000000000000000000000000000000000000000000000000016935063a9059cbb925062000ad091508490869060040162002a86565b6020604051808303816000875af115801562000af0573d6000803e3d6000fd5b505050506040513d601f19601f8201168201806040525081019062000b169190620029f9565b50620009987f000000000000000000000000000000000000000000000000000000000000000086848762000bfb565b60006001905060003490507f00000000000000000000000000000000000000000000000000000000000000006001600160a01b031663f6326fb3826040518263ffffffff1660e01b81526004016000604051808303818588803b15801562000bac57600080fd5b505af115801562000bc1573d6000803e3d6000fd5b505050505062000bf47f00000000000000000000000000000000000000000000000000000000000000008583866200050e565b5050505050565b6000806000841162000c215760405162461bcd60e51b8152600401620005719062002ab5565b846001600160a01b0316866001600160a01b03160362000c795760405162461bcd60e51b81526020600482015260126024820152715f746f6b656e30203d3d205f746f6b656e3160701b604482015260640162000571565b6040516323b872dd60e01b81526001600160a01b038716906323b872dd9062000cab90339030908990600401620029d5565b6020604051808303816000875af115801562000ccb573d6000803e3d6000fd5b505050506040513d601f19601f8201168201806040525081019062000cf19190620029f9565b506001600160a01b0385811660009081526004602090815260408083208a851684529091528120549091161562000e0357506001600160a01b0385811660008181526004602090815260408083208b86168085529083528184205490951680845260038352818420958452949091528082205492825290205462000d7790879062002a33565b62000d83919062002a4d565b6040516323b872dd60e01b815290945086906001600160a01b038216906323b872dd9062000dba90339030908a90600401620029d5565b6020604051808303816000875af115801562000dda573d6000803e3d6000fd5b505050506040513d601f19601f8201168201806040525081019062000e009190620029f9565b50505b6001600160a01b0386811660009081526004602090815260408083208b851684529091529020541662000f195762000e4662000e40858762002a33565b62001ffb565b925062000e54878762002079565b5050506001600160a01b0380851660008181526004602081815260408084208b87168552825280842054909516808452908390529184902080546001600160a01b0319163390811790915593516323b872dd60e01b815291938493899390926323b872dd9262000ecb92909130918b9101620029d5565b6020604051808303816000875af115801562000eeb573d6000803e3d6000fd5b505050506040513d601f19601f8201168201806040525081019062000f119190620029f9565b50506200106c565b6001600160a01b038082166000818152600360209081526040808320948c168352938152908390205483516318160ddd60e01b81529351949550859462001069949193926318160ddd92600480820193918290030181865afa15801562000f84573d6000803e3d6000fd5b505050506040513d601f19601f8201168201806040525081019062000faa919062002af8565b62000fb6908862002a33565b62000fc2919062002a4d565b6001600160a01b0380841660009081526003602090815260408083208c851684528252918290205482516318160ddd60e01b8152925190938816926318160ddd9260048083019391928290030181865afa15801562001025573d6000803e3d6000fd5b505050506040513d601f19601f820116820180604052508101906200104b919062002af8565b62001057908862002a33565b62001063919062002a4d565b620021e1565b92505b60008311620010ab5760405162461bcd60e51b815260206004820152600a6024820152690736861726573203d20360b41b604482015260640162000571565b6040516340c10f1960e01b81526001600160a01b038316906340c10f1990620010db903390879060040162002a86565b600060405180830381600087803b158015620010f657600080fd5b505af11580156200110b573d6000803e3d6000fd5b5050506001600160a01b038083166000908152600360209081526040808320938c16835292905220546200118691508290899089906200114d908a9062002a70565b6001600160a01b038087166000908152600360209081526040808320938f168352929052205462001180908a9062002a70565b62001fc5565b5050949350505050565b6001600160a01b03808416600090815260046020908152604080832084871684528252808320548416808452918390528220549192839287918791849133911603620012b9576040516370a0823160e01b815233600482015260649088906001600160a01b038716906370a0823190602401602060405180830381865afa15801562001220573d6000803e3d6000fd5b505050506040513d601f19601f8201168201806040525081019062001246919062002af8565b62001252919062002a9f565b11620012b95760405162461bcd60e51b815260206004820152602f60248201527f7061696543726561746f722073686f756c64206c65667420313030207765692060448201526e1b1c1d1bdad95b881a5b881c1bdbdb608a1b606482015260840162000571565b836001600160a01b03166318160ddd6040518163ffffffff1660e01b8152600401602060405180830381865afa158015620012f8573d6000803e3d6000fd5b505050506040513d601f19601f820116820180604052508101906200131e919062002af8565b6001600160a01b038083166000908152600360209081526040808320938e168352929052205462001350908962002a33565b6200135c919062002a4d565b9550836001600160a01b03166318160ddd6040518163ffffffff1660e01b8152600401602060405180830381865afa1580156200139d573d6000803e3d6000fd5b505050506040513d601f19601f82011682018060405250810190620013c3919062002af8565b6001600160a01b038083166000908152600360209081526040808320938d1683529290522054620013f5908962002a33565b62001401919062002a4d565b9450600086118015620014145750600085115b6200145b5760405162461bcd60e51b81526020600482015260166024820152750616d6f756e7430206f7220616d6f756e7431203d20360541b604482015260640162000571565b604051632770a7eb60e21b81526001600160a01b03851690639dc29fac906200148b9033908b9060040162002a86565b600060405180830381600087803b158015620014a657600080fd5b505af1158015620014bb573d6000803e3d6000fd5b5050506001600160a01b038083166000908152600360209081526040808320938e168352929052205462001553915082908b908b90620014fd908b9062002a9f565b8960036000886001600160a01b03166001600160a01b0316815260200190815260200160002060008f6001600160a01b03166001600160a01b031681526020019081526020016000205462001180919062002a9f565b60405163a9059cbb60e01b81526001600160a01b0384169063a9059cbb90620015839033908a9060040162002a86565b6020604051808303816000875af1158015620015a3573d6000803e3d6000fd5b505050506040513d601f19601f82011682018060405250810190620015c99190620029f9565b5060405163a9059cbb60e01b81526001600160a01b0383169063a9059cbb90620015fa903390899060040162002a86565b6020604051808303816000875af11580156200161a573d6000803e3d6000fd5b505050506040513d601f19601f82011682018060405250810190620016409190620029f9565b5050505050935093915050565b33826200166e5760405162461bcd60e51b8152600401620005719062002ab5565b6040516343d3b76160e01b81526001600160a01b0386811660048301527f000000000000000000000000000000000000000000000000000000000000000016906343d3b761906024016020604051808303816000875af1158015620016d7573d6000803e3d6000fd5b505050506040513d601f19601f82011682018060405250810190620016fd9190620029f9565b6200173a5760405162461bcd60e51b815260206004820152600c60248201526b3737ba10232a103a37b5b2b760a11b604482015260640162000571565b836001600160a01b0316856001600160a01b031603620017925760405162461bcd60e51b81526020600482015260126024820152715f746f6b656e30203d3d205f746f6b656e3160701b604482015260640162000571565b6040516323b872dd60e01b815285906001600160a01b038216906323b872dd90620017c690859030908990600401620029d5565b6020604051808303816000875af1158015620017e6573d6000803e3d6000fd5b505050506040513d601f19601f820116820180604052508101906200180c9190620029f9565b50506001600160a01b038481166000908152600460209081526040808320898516845290915290205416620018cc576040516323b872dd60e01b815284906001600160a01b038216906323b872dd906200186f90859030908890600401620029d5565b6020604051808303816000875af11580156200188f573d6000803e3d6000fd5b505050506040513d601f19601f82011682018060405250810190620018b59190620029f9565b50620018c58686868686620021fc565b50620019bb565b6001600160a01b0384811660008181526004602090815260408083208a8616808552908352818420549095168352600382528083209483529390528281205491815291909120546200192090859062002a33565b6200192c919062002a4d565b6040516323b872dd60e01b815290925084906001600160a01b038216906323b872dd906200196390859030908890600401620029d5565b6020604051808303816000875af115801562001983573d6000803e3d6000fd5b505050506040513d601f19601f82011682018060405250810190620019a99190620029f9565b50620019b98686868686620023cb565b505b6001600160a01b03808516600090815260046020908152604080832089851680855290835281842054909416808452600383528184209484529390915290205462000bf491908790879062001a1290889062002a70565b6001600160a01b03808a1660008181526004602090815260408083208f861684528252808320549094168252600381528382209282529190915220546200118090889062002a70565b6001600160a01b038381166000908152600460209081526040808320868516845290915281205490911662001ac35760405162461bcd60e51b815260206004820152600d60248201526c34b73b30b634b2103a37b5b2b760991b604482015260640162000571565b6000821162001b055760405162461bcd60e51b815260206004820152600d60248201526c0616d6f756e7420696e203d203609c1b604482015260640162000571565b826001600160a01b0316846001600160a01b03160362001b2457600080fd5b6103e882101562001b885760405162461bcd60e51b815260206004820152602760248201527f7265717569726520616d6f756e74496e203e3d20302e3030303120657468657260448201526639903a37b5b2b760c91b606482015260840162000571565b6001600160a01b038481166000818152600460208181526040808420898716808652908352818520549096168085526003835281852086865290925280842054958452928390205492516323b872dd60e01b815289958995929490939092916323b872dd9162001bff91339130918d9101620029d5565b6020604051808303816000875af115801562001c1f573d6000803e3d6000fd5b505050506040513d601f19601f8201168201806040525081019062001c459190620029f9565b5060006103e862001c59896103e362002a33565b62001c65919062002a4d565b90506001600160a01b03861663a9059cbb7f00000000000000000000000000000000000000000000000000000000000000006103e862001ca78c600362002a33565b62001cb3919062002a4d565b6040518363ffffffff1660e01b815260040162001cd292919062002a86565b6020604051808303816000875af115801562001cf2573d6000803e3d6000fd5b505050506040513d601f19601f8201168201806040525081019062001d189190620029f9565b5062001d25818462002a70565b62001d31828462002a33565b62001d3d919062002a4d565b60405163a9059cbb60e01b81529097506001600160a01b0386169063a9059cbb9062001d709033908b9060040162002a86565b6020604051808303816000875af115801562001d90573d6000803e3d6000fd5b505050506040513d601f19601f8201168201806040525081019062001db69190620029f9565b506001600160a01b038085166000908152600360209081526040808320938e1683529290529081205462001dec90839062002a70565b6001600160a01b038087166000908152600360209081526040808320938f168352929052908120549192509062001e25908a9062002a9f565b905062001e36868d8d858562001fc5565b50505050505050509392505050565b6001600160a01b03808416600090815260046020818152604080842087861685529091528083205490516370a0823160e01b815292931691839183916370a082319162001ea3918891016001600160a01b0391909116815260200190565b602060405180830381865afa15801562001ec1573d6000803e3d6000fd5b505050506040513d601f19601f8201168201806040525081019062001ee7919062002af8565b9695505050505050565b60018181548110620009e057600080fd5b60008062001f11868662002a70565b62001f1d878662002a33565b62001f29919062002a4d565b905060008562001f3a868962002a33565b62001f46919062002a4d565b9050600062001f56838362002a9f565b905060008262001f698361271062002a33565b62001f75919062002a4d565b90508581111562001fb95760405162461bcd60e51b815260206004820152600d60248201526c536c6920746f6f206c6172676560981b604482015260640162000571565b98975050505050505050565b6001600160a01b039485166000908152600360209081526040808320968816835295905284812092909255919093168352912055565b600060038211156200206957508060006200201860028362002a4d565b6200202590600162002a70565b90505b81811015620020635790508060028162002043818662002a4d565b6200204f919062002a70565b6200205b919062002a4d565b905062002028565b50919050565b811562002074575060015b919050565b6040516001600160601b0319606084811b8216602084015283901b166034820152600090819060480160405160208183030381529060405280519060200120905080604051620020c99062002828565b8190604051809103906000f5905080158015620020ea573d6000803e3d6000fd5b505060006200214f620020fc620026cf565b8051602091820120604080516001600160f81b0319818501526001600160601b03193060601b16602182015260358101879052605580820193909352815180820390930183526075019052805191012090565b600180548082019091557fb10e2d527612073b26eecdfd717e6a320cf44b4afac2b0732d9fcbe2b7fa0cf60180546001600160a01b03199081166001600160a01b0384811691821790935597821660008181526004602081815260408084209b9096168352998a52848220805485168c1790558952838120918152975295208054909516909517909355509192915050565b600081831115620021f35781620021f5565b825b9392505050565b60006200220e62000e40848662002a33565b90506000806200221f888862002079565b90506200222d8888620026fe565b6001600160a01b0380891660009081526004602081815260408084208e8616855282528084205485168452908390529182902080546001600160a01b0319163317905590516340c10f1960e01b8152929450908316916340c10f19916200229991889188910162002a86565b600060405180830381600087803b158015620022b457600080fd5b505af1158015620022c9573d6000803e3d6000fd5b505060405163049e820160e41b815260006004820152602481018990526001600160a01b0380861693506340c10f19925033917f0000000000000000000000000000000000000000000000000000000000000000909116906349e8201090604401602060405180830381865afa15801562002348573d6000803e3d6000fd5b505050506040513d601f19601f820116820180604052508101906200236e919062002af8565b6040518363ffffffff1660e01b81526004016200238d92919062002a86565b600060405180830381600087803b158015620023a857600080fd5b505af1158015620023bd573d6000803e3d6000fd5b505050505050505050505050565b6001600160a01b0380851660009081526004602081815260408084208a861680865290835281852054909516808552600383528185209585529482528084205481516318160ddd60e01b815291519495869590948694620025209486936318160ddd9382810193928290030181865afa1580156200244d573d6000803e3d6000fd5b505050506040513d601f19601f8201168201806040525081019062002473919062002af8565b6200247f908a62002a33565b6200248b919062002a4d565b6001600160a01b0380851660009081526003602090815260408083208e851684528252918290205482516318160ddd60e01b8152925190938916926318160ddd9260048083019391928290030181865afa158015620024ee573d6000803e3d6000fd5b505050506040513d601f19601f8201168201806040525081019062002514919062002af8565b62001057908a62002a33565b6001600160a01b03808a1660009081526005602090815260408083208e85168452909152908190205490516340c10f1960e01b8152908216965093945084939192508316906340c10f19906200257d908890859060040162002a86565b600060405180830381600087803b1580156200259857600080fd5b505af1158015620025ad573d6000803e3d6000fd5b505050506001600160a01b0382811660009081526003602090815260408083208d851684529091529081902054905163049e820160e41b8152600481019190915260248101899052858216916340c10f199188917f000000000000000000000000000000000000000000000000000000000000000016906349e8201090604401602060405180830381865afa1580156200264b573d6000803e3d6000fd5b505050506040513d601f19601f8201168201806040525081019062002671919062002af8565b6040518363ffffffff1660e01b81526004016200269092919062002a86565b600060405180830381600087803b158015620026ab57600080fd5b505af1158015620026c0573d6000803e3d6000fd5b50505050505050505050505050565b6060600060405180602001620026e59062002828565b601f1982820381018352601f9091011660405292915050565b6040516a2932bbb0b9322a37b5b2b760a91b60208201526001600160601b0319606084811b8216602b84015283901b16603f820152600090819060530160405160208183030381529060405280519060200120905080604051620027629062002828565b8190604051809103906000f590508015801562002783573d6000803e3d6000fd5b5050600062002795620020fc620026cf565b60028054600181019091557f405787fa12a823e0f2b7631cc41b3ba8828b3321ca811111fa75cd3aa3bb5ace0180546001600160a01b03199081166001600160a01b0384811691821790935597821660008181526005602081815260408084209b9096168352998a52848220805485168c1790558952838120918152975295208054909516909517909355509192915050565b610eba8062002b1383390190565b80356001600160a01b03811681146200207457600080fd5b600080600080608085870312156200286557600080fd5b620028708562002836565b9350620028806020860162002836565b93969395505050506040820135916060013590565b600080600060608486031215620028ab57600080fd5b620028b68462002836565b95602085013595506040909401359392505050565b60008060408385031215620028df57600080fd5b620028ea8362002836565b9150620028fa6020840162002836565b90509250929050565b6000602082840312156200291657600080fd5b5035919050565b600080604083850312156200293157600080fd5b6200293c8362002836565b946020939093013593505050565b6000806000606084860312156200296057600080fd5b6200296b8462002836565b92506200297b6020850162002836565b9150604084013590509250925092565b600080600060608486031215620029a157600080fd5b620029ac8462002836565b9250620029bc6020850162002836565b9150620029cc6040850162002836565b90509250925092565b6001600160a01b039384168152919092166020820152604081019190915260600190565b60006020828403121562002a0c57600080fd5b81518015158114620021f557600080fd5b634e487b7160e01b600052601160045260246000fd5b8082028115828204841417620009c957620009c962002a1d565b60008262002a6b57634e487b7160e01b600052601260045260246000fd5b500490565b80820180821115620009c957620009c962002a1d565b6001600160a01b03929092168252602082015260400190565b81810381811115620009c957620009c962002a1d565b60208082526023908201527f72657175697265205f616d6f756e7430203e2030202626205f616d6f756e74316040820152620203e360ec1b606082015260800190565b60006020828403121562002b0b57600080fd5b505191905056fe60806040523480156200001157600080fd5b506040518060400160405280600781526020016636383a37b5b2b760c91b8152506040518060400160405280600381526020016213141560ea1b81525081600390816200005f91906200018c565b5060046200006e82826200018c565b5050506200008b620000856200009160201b60201c565b62000095565b62000258565b3390565b600580546001600160a01b038381166001600160a01b0319831681179093556040519116919082907f8be0079c531659141344cd1fd0a4f28419497f9722a3daafe3b4186f6b6457e090600090a35050565b634e487b7160e01b600052604160045260246000fd5b600181811c908216806200011257607f821691505b6020821081036200013357634e487b7160e01b600052602260045260246000fd5b50919050565b601f8211156200018757600081815260208120601f850160051c81016020861015620001625750805b601f850160051c820191505b8181101562000183578281556001016200016e565b5050505b505050565b81516001600160401b03811115620001a857620001a8620000e7565b620001c081620001b98454620000fd565b8462000139565b602080601f831160018114620001f85760008415620001df5750858301515b600019600386901b1c1916600185901b17855562000183565b600085815260208120601f198616915b82811015620002295788860151825594840194600190910190840162000208565b5085821015620002485787850151600019600388901b60f8161c191681555b5050505050600190811b01905550565b610c5280620002686000396000f3fe608060405234801561001057600080fd5b50600436106101005760003560e01c8063715018a611610097578063a457c2d711610066578063a457c2d714610209578063a9059cbb1461021c578063dd62ed3e1461022f578063f2fde38b1461024257600080fd5b8063715018a6146101cb5780638da5cb5b146101d357806395d89b41146101ee5780639dc29fac146101f657600080fd5b8063313ce567116100d3578063313ce5671461016b578063395093511461017a57806340c10f191461018d57806370a08231146101a257600080fd5b806306fdde0314610105578063095ea7b31461012357806318160ddd1461014657806323b872dd14610158575b600080fd5b61010d610255565b60405161011a9190610a9c565b60405180910390f35b610136610131366004610b06565b6102e7565b604051901515815260200161011a565b6002545b60405190815260200161011a565b610136610166366004610b30565b610301565b6040516012815260200161011a565b610136610188366004610b06565b610325565b6101a061019b366004610b06565b610347565b005b61014a6101b0366004610b6c565b6001600160a01b031660009081526020819052604090205490565b6101a061035d565b6005546040516001600160a01b03909116815260200161011a565b61010d610371565b6101a0610204366004610b06565b610380565b610136610217366004610b06565b610392565b61013661022a366004610b06565b610412565b61014a61023d366004610b8e565b610420565b6101a0610250366004610b6c565b61044b565b60606003805461026490610bc1565b80601f016020809104026020016040519081016040528092919081815260200182805461029090610bc1565b80156102dd5780601f106102b2576101008083540402835291602001916102dd565b820191906000526020600020905b8154815290600101906020018083116102c057829003601f168201915b5050505050905090565b6000336102f58185856104c4565b60019150505b92915050565b60003361030f8582856105e9565b61031a858585610663565b506001949350505050565b6000336102f58185856103388383610420565b6103429190610bfb565b6104c4565b61034f610807565b6103598282610861565b5050565b610365610807565b61036f6000610920565b565b60606004805461026490610bc1565b610388610807565b6103598282610972565b600033816103a08286610420565b9050838110156104055760405162461bcd60e51b815260206004820152602560248201527f45524332303a2064656372656173656420616c6c6f77616e63652062656c6f77604482015264207a65726f60d81b60648201526084015b60405180910390fd5b61031a82868684036104c4565b6000336102f5818585610663565b6001600160a01b03918216600090815260016020908152604080832093909416825291909152205490565b610453610807565b6001600160a01b0381166104b85760405162461bcd60e51b815260206004820152602660248201527f4f776e61626c653a206e6577206f776e657220697320746865207a65726f206160448201526564647265737360d01b60648201526084016103fc565b6104c181610920565b50565b6001600160a01b0383166105265760405162461bcd60e51b8152602060048201526024808201527f45524332303a20617070726f76652066726f6d20746865207a65726f206164646044820152637265737360e01b60648201526084016103fc565b6001600160a01b0382166105875760405162461bcd60e51b815260206004820152602260248201527f45524332303a20617070726f766520746f20746865207a65726f206164647265604482015261737360f01b60648201526084016103fc565b6001600160a01b0383811660008181526001602090815260408083209487168084529482529182902085905590518481527f8c5be1e5ebec7d5bd14f71427d1e84f3dd0314c0f7b2291e5b200ac8c7c3b92591015b60405180910390a3505050565b60006105f58484610420565b9050600019811461065d57818110156106505760405162461bcd60e51b815260206004820152601d60248201527f45524332303a20696e73756666696369656e7420616c6c6f77616e636500000060448201526064016103fc565b61065d84848484036104c4565b50505050565b6001600160a01b0383166106c75760405162461bcd60e51b815260206004820152602560248201527f45524332303a207472616e736665722066726f6d20746865207a65726f206164604482015264647265737360d81b60648201526084016103fc565b6001600160a01b0382166107295760405162461bcd60e51b815260206004820152602360248201527f45524332303a207472616e7366657220746f20746865207a65726f206164647260448201526265737360e81b60648201526084016103fc565b6001600160a01b038316600090815260208190526040902054818110156107a15760405162461bcd60e51b815260206004820152602660248201527f45524332303a207472616e7366657220616d6f756e7420657863656564732062604482015265616c616e636560d01b60648201526084016103fc565b6001600160a01b03848116600081815260208181526040808320878703905593871680835291849020805487019055925185815290927fddf252ad1be2c89b69c2b068fc378daa952ba7f163c4a11628f55a4df523b3ef910160405180910390a361065d565b6005546001600160a01b0316331461036f5760405162461bcd60e51b815260206004820181905260248201527f4f776e61626c653a2063616c6c6572206973206e6f7420746865206f776e657260448201526064016103fc565b6001600160a01b0382166108b75760405162461bcd60e51b815260206004820152601f60248201527f45524332303a206d696e7420746f20746865207a65726f20616464726573730060448201526064016103fc565b80600260008282546108c99190610bfb565b90915550506001600160a01b038216600081815260208181526040808320805486019055518481527fddf252ad1be2c89b69c2b068fc378daa952ba7f163c4a11628f55a4df523b3ef910160405180910390a35050565b600580546001600160a01b038381166001600160a01b0319831681179093556040519116919082907f8be0079c531659141344cd1fd0a4f28419497f9722a3daafe3b4186f6b6457e090600090a35050565b6001600160a01b0382166109d25760405162461bcd60e51b815260206004820152602160248201527f45524332303a206275726e2066726f6d20746865207a65726f206164647265736044820152607360f81b60648201526084016103fc565b6001600160a01b03821660009081526020819052604090205481811015610a465760405162461bcd60e51b815260206004820152602260248201527f45524332303a206275726e20616d6f756e7420657863656564732062616c616e604482015261636560f01b60648201526084016103fc565b6001600160a01b0383166000818152602081815260408083208686039055600280548790039055518581529192917fddf252ad1be2c89b69c2b068fc378daa952ba7f163c4a11628f55a4df523b3ef91016105dc565b600060208083528351808285015260005b81811015610ac957858101830151858201604001528201610aad565b506000604082860101526040601f19601f8301168501019250505092915050565b80356001600160a01b0381168114610b0157600080fd5b919050565b60008060408385031215610b1957600080fd5b610b2283610aea565b946020939093013593505050565b600080600060608486031215610b4557600080fd5b610b4e84610aea565b9250610b5c60208501610aea565b9150604084013590509250925092565b600060208284031215610b7e57600080fd5b610b8782610aea565b9392505050565b60008060408385031215610ba157600080fd5b610baa83610aea565b9150610bb860208401610aea565b90509250929050565b600181811c90821680610bd557607f821691505b602082108103610bf557634e487b7160e01b600052602260045260246000fd5b50919050565b808201808211156102fb57634e487b7160e01b600052601160045260246000fdfea26469706673582212205d0e469d34e39d95aad82c78b22aa778e92694afc7821ea732e932a167865c9c64736f6c63430008130033a264697066735822122071336417481b8e4a43c3b2e93b88e1dc1464d8bb3ffd7e03be0755ce36d32cd364736f6c63430008130033",
    "linkReferences": {}
  },
  "methodIdentifiers": {
    "ONE_ETH()": "ea3a4c60",
    "WETH()": "ad5c4648",
    "WETHAddr()": "abdc3808",
    "addLiquidity(address,address,uint256,uint256)": "cf6c62ea",
    "addLiquidityWithETH(address,uint256)": "5c4f127c",
    "addLiquidityWithFT(address,address,uint256,uint256)": "d9898c7e",
    "calculate()": "ca77ab65",
    "fragmentation()": "fb9a58ca",
    "fundContract()": "bd097e21",
    "getLptoken(address,address)": "cdbb8cd9",
    "getLptokenLength()": "75cd0c77",
    "getReserve(address,address)": "cbc3ab53",
    "getRewardtoken(address,address)": "4e34b8d8",
    "lpTokenAddressList(uint256)": "fe1e0f3f",
    "lptokenTotalSupply(address,address,address)": "e95a464b",
    "removeLiquidity(address,address,uint256)": "d752fab2",
    "rewardTokenAddressList(uint256)": "5215ca5b",
    "swap(address,address,uint256)": "df791e50",
    "swapByLimitSli(address,address,uint256,uint256)": "08d13464",
    "swapToETH(address,uint256,uint256)": "3f9fe0c2",
    "swapWithETH(address,uint256)": "5ede9fcd"
  },
  "id": 8
}