{
  "abi": [
    {
      "inputs": [
        {
          "internalType": "address",
          "name": "_wethAddr",
          "type": "address"
        },
        {
          "internalType": "address",
          "name": "_framentation",
          "type": "address"
        },
        {
          "internalType": "address",
          "name": "_calculate",
          "type": "address"
        },
        {
          "internalType": "address",
          "name": "_fundContract",
          "type": "address"
        }
      ],
      "stateMutability": "nonpayable",
      "type": "constructor"
    },
    {
      "inputs": [],
      "name": "ONE_ETH",
      "outputs": [
        {
          "internalType": "uint256",
          "name": "",
          "type": "uint256"
        }
      ],
      "stateMutability": "view",
      "type": "function"
    },
    {
      "inputs": [
        {
          "internalType": "address",
          "name": "_token0",
          "type": "address"
        },
        {
          "internalType": "address",
          "name": "_token1",
          "type": "address"
        },
        {
          "internalType": "uint256",
          "name": "_amount0",
          "type": "uint256"
        },
        {
          "internalType": "uint256",
          "name": "_amount1",
          "type": "uint256"
        }
      ],
      "name": "addLiquidity",
      "outputs": [
        {
          "internalType": "uint256",
          "name": "shares",
          "type": "uint256"
        }
      ],
      "stateMutability": "nonpayable",
      "type": "function"
    },
    {
      "inputs": [
        {
          "internalType": "address",
          "name": "_token",
          "type": "address"
        },
        {
          "internalType": "uint256",
          "name": "_tokenAmount",
          "type": "uint256"
        }
      ],
      "name": "addLiquidityWithETH",
      "outputs": [],
      "stateMutability": "payable",
      "type": "function"
    },
    {
      "inputs": [
        {
          "internalType": "address",
          "name": "_token0",
          "type": "address"
        },
        {
          "internalType": "address",
          "name": "_token1",
          "type": "address"
        },
        {
          "internalType": "uint256",
          "name": "_amount0",
          "type": "uint256"
        },
        {
          "internalType": "uint256",
          "name": "_amount1",
          "type": "uint256"
        }
      ],
      "name": "addLiquidityWithFT",
      "outputs": [],
      "stateMutability": "nonpayable",
      "type": "function"
    },
    {
      "inputs": [
        {
          "internalType": "address",
          "name": "_tokenA",
          "type": "address"
        },
        {
          "internalType": "address",
          "name": "_tokenB",
          "type": "address"
        }
      ],
      "name": "getLptoken",
      "outputs": [
        {
          "internalType": "address",
          "name": "",
          "type": "address"
        }
      ],
      "stateMutability": "view",
      "type": "function"
    },
    {
      "inputs": [],
      "name": "getLptokenLength",
      "outputs": [
        {
          "internalType": "uint256",
          "name": "",
          "type": "uint256"
        }
      ],
      "stateMutability": "view",
      "type": "function"
    },
    {
      "inputs": [
        {
          "internalType": "address",
          "name": "_lpTokenAddr",
          "type": "address"
        },
        {
          "internalType": "address",
          "name": "_tokenAddr",
          "type": "address"
        }
      ],
      "name": "getReserve",
      "outputs": [
        {
          "internalType": "uint256",
          "name": "",
          "type": "uint256"
        }
      ],
      "stateMutability": "view",
      "type": "function"
    },
    {
      "inputs": [
        {
          "internalType": "address",
          "name": "_tokenA",
          "type": "address"
        },
        {
          "internalType": "address",
          "name": "_tokenB",
          "type": "address"
        }
      ],
      "name": "getRewardtoken",
      "outputs": [
        {
          "internalType": "address",
          "name": "",
          "type": "address"
        }
      ],
      "stateMutability": "view",
      "type": "function"
    },
    {
      "inputs": [
        {
          "internalType": "uint256",
          "name": "",
          "type": "uint256"
        }
      ],
      "name": "lpTokenAddressList",
      "outputs": [
        {
          "internalType": "address",
          "name": "",
          "type": "address"
        }
      ],
      "stateMutability": "view",
      "type": "function"
    },
    {
      "inputs": [
        {
          "internalType": "address",
          "name": "_token0",
          "type": "address"
        },
        {
          "internalType": "address",
          "name": "_token1",
          "type": "address"
        },
        {
          "internalType": "address",
          "name": "user",
          "type": "address"
        }
      ],
      "name": "lptokenTotalSupply",
      "outputs": [
        {
          "internalType": "uint256",
          "name": "",
          "type": "uint256"
        }
      ],
      "stateMutability": "view",
      "type": "function"
    },
    {
      "inputs": [
        {
          "internalType": "address",
          "name": "_token0",
          "type": "address"
        },
        {
          "internalType": "address",
          "name": "_token1",
          "type": "address"
        },
        {
          "internalType": "uint256",
          "name": "_shares",
          "type": "uint256"
        }
      ],
      "name": "removeLiquidity",
      "outputs": [
        {
          "internalType": "uint256",
          "name": "amount0",
          "type": "uint256"
        },
        {
          "internalType": "uint256",
          "name": "amount1",
          "type": "uint256"
        }
      ],
      "stateMutability": "nonpayable",
      "type": "function"
    },
    {
      "inputs": [
        {
          "internalType": "uint256",
          "name": "",
          "type": "uint256"
        }
      ],
      "name": "rewardTokenAddressList",
      "outputs": [
        {
          "internalType": "address",
          "name": "",
          "type": "address"
        }
      ],
      "stateMutability": "view",
      "type": "function"
    },
    {
      "inputs": [
        {
          "internalType": "address",
          "name": "_tokenIn",
          "type": "address"
        },
        {
          "internalType": "address",
          "name": "_tokenOut",
          "type": "address"
        },
        {
          "internalType": "uint256",
          "name": "_amountIn",
          "type": "uint256"
        }
      ],
      "name": "swap",
      "outputs": [
        {
          "internalType": "uint256",
          "name": "amountOut",
          "type": "uint256"
        }
      ],
      "stateMutability": "nonpayable",
      "type": "function"
    },
    {
      "inputs": [
        {
          "internalType": "address",
          "name": "_tokenIn",
          "type": "address"
        },
        {
          "internalType": "address",
          "name": "_tokenOut",
          "type": "address"
        },
        {
          "internalType": "uint256",
          "name": "_amountIn",
          "type": "uint256"
        },
        {
          "internalType": "uint256",
          "name": "_disirSli",
          "type": "uint256"
        }
      ],
      "name": "swapByLimitSli",
      "outputs": [
        {
          "internalType": "uint256",
          "name": "amountOut",
          "type": "uint256"
        }
      ],
      "stateMutability": "nonpayable",
      "type": "function"
    },
    {
      "inputs": [
        {
          "internalType": "address",
          "name": "_tokenIn",
          "type": "address"
        },
        {
          "internalType": "uint256",
          "name": "_amountIn",
          "type": "uint256"
        },
        {
          "internalType": "uint256",
          "name": "_disirSli",
          "type": "uint256"
        }
      ],
      "name": "swapToETH",
      "outputs": [],
      "stateMutability": "nonpayable",
      "type": "function"
    },
    {
      "inputs": [
        {
          "internalType": "address",
          "name": "_tokenOut",
          "type": "address"
        },
        {
          "internalType": "uint256",
          "name": "_disirSli",
          "type": "uint256"
        }
      ],
      "name": "swapWithETH",
      "outputs": [],
      "stateMutability": "payable",
      "type": "function"
    },
    {
      "stateMutability": "payable",
      "type": "receive"
    }
  ],
  "bytecode": {
    "object": "0x6101206040523480156200001257600080fd5b5060405162003a2338038062003a2383398101604081905262000035916200007b565b6001600160a01b03938416608081905260e05291831660a052821660c0521661010052620000d8565b80516001600160a01b03811681146200007657600080fd5b919050565b600080600080608085870312156200009257600080fd5b6200009d856200005e565b9350620000ad602086016200005e565b9250620000bd604086016200005e565b9150620000cd606086016200005e565b905092959194509250565b60805160a05160c05160e051610100516138dc620001476000396000611b52015260008181610778015281816109d30152610a820152600081816121d801526124dd015260006115670152600081816107b8015281816108c20152818161094a0152610a0801526138dc6000f3fe6080604052600436106200010b5760003560e01c8063cdbb8cd91162000095578063df791e501162000060578063df791e501462000337578063e95a464b146200035c578063ea3a4c601462000381578063fe1e0f3f146200039f57600080fd5b8063cdbb8cd91462000269578063cf6c62ea14620002b2578063d752fab214620002d7578063d9898c7e146200031257600080fd5b80635c4f127c11620000d65780635c4f127c14620001da5780635ede9fcd14620001f157806375cd0c771462000208578063cbc3ab53146200021f57600080fd5b806308d1346414620001185780633f9fe0c214620001505780634e34b8d814620001775780635215ca5b14620001b557600080fd5b366200011357005b600080fd5b3480156200012557600080fd5b506200013d6200013736600462002728565b620003c4565b6040519081526020015b60405180910390f35b3480156200015d57600080fd5b50620001756200016f3660046200276f565b6200076f565b005b3480156200018457600080fd5b506200019c62000196366004620027a5565b62000856565b6040516001600160a01b03909116815260200162000147565b348015620001c257600080fd5b506200019c620001d4366004620027dd565b62000885565b62000175620001eb366004620027f7565b620008b0565b6200017562000202366004620027f7565b620009fb565b3480156200021557600080fd5b506001546200013d565b3480156200022c57600080fd5b506200013d6200023e366004620027a5565b6001600160a01b03918216600090815260036020908152604080832093909416825291909152205490565b3480156200027657600080fd5b506200019c62000288366004620027a5565b6001600160a01b039182166000908152600460209081526040808320938516835292905220541690565b348015620002bf57600080fd5b506200013d620002d136600462002728565b62000ab1565b348015620002e457600080fd5b50620002fc620002f636600462002824565b6200106a565b6040805192835260208301919091520162000147565b3480156200031f57600080fd5b50620001756200033136600462002728565b62001527565b3480156200034457600080fd5b506200013d6200035636600462002824565b62001935565b3480156200036957600080fd5b506200013d6200037b36600462002865565b62001d1f565b3480156200038e57600080fd5b506200013d670de0b6b3a764000081565b348015620003ac57600080fd5b506200019c620003be366004620027dd565b62001dcb565b6001600160a01b0384811660009081526004602090815260408083208785168452909152812054909116620004305760405162461bcd60e51b815260206004820152600d60248201526c34b73b30b634b2103a37b5b2b760991b60448201526064015b60405180910390fd5b60008311620004725760405162461bcd60e51b815260206004820152600d60248201526c0616d6f756e7420696e203d203609c1b604482015260640162000427565b836001600160a01b0316856001600160a01b031603620004d55760405162461bcd60e51b815260206004820152601960248201527f63616e27742073776170207468652073616d6520746f6b656e00000000000000604482015260640162000427565b6103e8831015620005345760405162461bcd60e51b815260206004820152602260248201527f7265717569726520616d6f756e74496e203e3d20313030302077656920746f6b60448201526132b760f11b606482015260840162000427565b6001600160a01b0385811660008181526004602081815260408084208a8716808652908352818520549096168085526003835281852086865290925280842054958452928390205492516323b872dd60e01b81528a958a95929490939092916323b872dd91620005ab91339130918e9101620028af565b6020604051808303816000875af1158015620005cb573d6000803e3d6000fd5b505050506040513d601f19601f82011682018060405250810190620005f19190620028d3565b5060006103e8620006058a6103e56200290d565b62000611919062002927565b90506200061f81846200294a565b6200062b82846200290d565b62000637919062002927565b9650620006478184848b62001ddc565b5060405163a9059cbb60e01b81526001600160a01b0386169063a9059cbb90620006789033908b9060040162002960565b6020604051808303816000875af115801562000698573d6000803e3d6000fd5b505050506040513d601f19601f82011682018060405250810190620006be9190620028d3565b506001600160a01b038085166000908152600360209081526040808320938f16835292905290812054620006f4908b906200294a565b905060008860036000886001600160a01b03166001600160a01b0316815260200190815260200160002060008e6001600160a01b03166001600160a01b03168152602001908152602001600020546200074e919062002979565b90506200075f868e8e858562001e9f565b5050505050505050949350505050565b60006200079f847f00000000000000000000000000000000000000000000000000000000000000008585620003c4565b6040516378a1085360e11b8152600481018290529091507f00000000000000000000000000000000000000000000000000000000000000006001600160a01b03169063f14210a690602401600060405180830381600087803b1580156200080557600080fd5b505af11580156200081a573d6000803e3d6000fd5b505060405133925082915083156108fc029084906000818181858888f193505050501580156200084e573d6000803e3d6000fd5b505050505050565b6001600160a01b0380831660009081526005602090815260408083208585168452909152902054165b92915050565b600281815481106200089657600080fd5b6000918252602090912001546001600160a01b0316905081565b600060019050600034905060003390507f00000000000000000000000000000000000000000000000000000000000000006001600160a01b031663f6326fb3836040518263ffffffff1660e01b81526004016000604051808303818588803b1580156200091c57600080fd5b505af115801562000931573d6000803e3d6000fd5b505060405163a9059cbb60e01b81526001600160a01b037f000000000000000000000000000000000000000000000000000000000000000016935063a9059cbb92506200098691508490869060040162002960565b6020604051808303816000875af1158015620009a6573d6000803e3d6000fd5b505050506040513d601f19601f82011682018060405250810190620009cc9190620028d3565b506200084e7f000000000000000000000000000000000000000000000000000000000000000086848762000ab1565b60006001905060003490507f00000000000000000000000000000000000000000000000000000000000000006001600160a01b031663f6326fb3826040518263ffffffff1660e01b81526004016000604051808303818588803b15801562000a6257600080fd5b505af115801562000a77573d6000803e3d6000fd5b505050505062000aaa7f0000000000000000000000000000000000000000000000000000000000000000858386620003c4565b5050505050565b6000806000841162000ad75760405162461bcd60e51b815260040162000427906200298f565b846001600160a01b0316866001600160a01b03160362000b2f5760405162461bcd60e51b81526020600482015260126024820152715f746f6b656e30203d3d205f746f6b656e3160701b604482015260640162000427565b6040516323b872dd60e01b815286906001600160a01b038216906323b872dd9062000b6390339030908a90600401620028af565b6020604051808303816000875af115801562000b83573d6000803e3d6000fd5b505050506040513d601f19601f8201168201806040525081019062000ba99190620028d3565b506001600160a01b0386811660009081526004602090815260408083208b851684529091528120549091161562000cbb57506001600160a01b0386811660008181526004602090815260408083208c86168085529083528184205490951680845260038352818420958452949091528082205492825290205462000c2f9088906200290d565b62000c3b919062002927565b6040516323b872dd60e01b815290955087906001600160a01b038216906323b872dd9062000c7290339030908b90600401620028af565b6020604051808303816000875af115801562000c92573d6000803e3d6000fd5b505050506040513d601f19601f8201168201806040525081019062000cb89190620028d3565b50505b6001600160a01b0387811660009081526004602090815260408083208c851684529091529020541662000dcf5762000cfe62000cf886886200290d565b62001ed5565b935062000d0c888862001f53565b50506001600160a01b0380871660008181526004602081815260408084208d87168552825280842054909516808452908390529184902080546001600160a01b0319163390811790915593516323b872dd60e01b815291955085938a93926323b872dd9262000d81929130918c9101620028af565b6020604051808303816000875af115801562000da1573d6000803e3d6000fd5b505050506040513d601f19601f8201168201806040525081019062000dc79190620028d3565b505062000f22565b6001600160a01b038082166000818152600360209081526040808320948d168352938152908390205483516318160ddd60e01b81529351949650869462000f1f949193926318160ddd92600480820193918290030181865afa15801562000e3a573d6000803e3d6000fd5b505050506040513d601f19601f8201168201806040525081019062000e609190620029d2565b62000e6c90896200290d565b62000e78919062002927565b6001600160a01b0380841660009081526003602090815260408083208d851684528252918290205482516318160ddd60e01b8152925190938916926318160ddd9260048083019391928290030181865afa15801562000edb573d6000803e3d6000fd5b505050506040513d601f19601f8201168201806040525081019062000f019190620029d2565b62000f0d90896200290d565b62000f19919062002927565b620020bb565b93505b6000841162000f615760405162461bcd60e51b815260206004820152600a6024820152690736861726573203d20360b41b604482015260640162000427565b6040516340c10f1960e01b81526001600160a01b038416906340c10f199062000f91903390889060040162002960565b600060405180830381600087803b15801562000fac57600080fd5b505af115801562000fc1573d6000803e3d6000fd5b5050506001600160a01b038083166000908152600360209081526040808320938d16835292905220546200105f915082908a908a9062001003908b906200294a565b8960036000886001600160a01b03166001600160a01b0316815260200190815260200160002060008e6001600160a01b03166001600160a01b03168152602001908152602001600020546200105991906200294a565b62001e9f565b505050949350505050565b6001600160a01b0380841660009081526004602090815260408083208487168452825280832054841680845291839052822054919283928791879184913391160362001193576040516370a0823160e01b815233600482015260649088906001600160a01b038716906370a0823190602401602060405180830381865afa158015620010fa573d6000803e3d6000fd5b505050506040513d601f19601f82011682018060405250810190620011209190620029d2565b6200112c919062002979565b11620011935760405162461bcd60e51b815260206004820152602f60248201527f7061696543726561746f722073686f756c64206c65667420313030207765692060448201526e1b1c1d1bdad95b881a5b881c1bdbdb608a1b606482015260840162000427565b836001600160a01b03166318160ddd6040518163ffffffff1660e01b8152600401602060405180830381865afa158015620011d2573d6000803e3d6000fd5b505050506040513d601f19601f82011682018060405250810190620011f89190620029d2565b6001600160a01b038083166000908152600360209081526040808320938e16835292905220546200122a90896200290d565b62001236919062002927565b9550836001600160a01b03166318160ddd6040518163ffffffff1660e01b8152600401602060405180830381865afa15801562001277573d6000803e3d6000fd5b505050506040513d601f19601f820116820180604052508101906200129d9190620029d2565b6001600160a01b038083166000908152600360209081526040808320938d1683529290522054620012cf90896200290d565b620012db919062002927565b9450600086118015620012ee5750600085115b620013355760405162461bcd60e51b81526020600482015260166024820152750616d6f756e7430206f7220616d6f756e7431203d20360541b604482015260640162000427565b604051632770a7eb60e21b81526001600160a01b03851690639dc29fac90620013659033908b9060040162002960565b600060405180830381600087803b1580156200138057600080fd5b505af115801562001395573d6000803e3d6000fd5b5050506001600160a01b038083166000908152600360209081526040808320938e16835292905220546200142d915082908b908b90620013d7908b9062002979565b8960036000886001600160a01b03166001600160a01b0316815260200190815260200160002060008f6001600160a01b03166001600160a01b031681526020019081526020016000205462001059919062002979565b60405163a9059cbb60e01b81526001600160a01b0384169063a9059cbb906200145d9033908a9060040162002960565b6020604051808303816000875af11580156200147d573d6000803e3d6000fd5b505050506040513d601f19601f82011682018060405250810190620014a39190620028d3565b5060405163a9059cbb60e01b81526001600160a01b0383169063a9059cbb90620014d4903390899060040162002960565b6020604051808303816000875af1158015620014f4573d6000803e3d6000fd5b505050506040513d601f19601f820116820180604052508101906200151a9190620028d3565b5050505050935093915050565b3382620015485760405162461bcd60e51b815260040162000427906200298f565b6040516343d3b76160e01b81526001600160a01b0386811660048301527f000000000000000000000000000000000000000000000000000000000000000016906343d3b761906024016020604051808303816000875af1158015620015b1573d6000803e3d6000fd5b505050506040513d601f19601f82011682018060405250810190620015d79190620028d3565b620016145760405162461bcd60e51b815260206004820152600c60248201526b3737ba10232a103a37b5b2b760a11b604482015260640162000427565b836001600160a01b0316856001600160a01b0316036200166c5760405162461bcd60e51b81526020600482015260126024820152715f746f6b656e30203d3d205f746f6b656e3160701b604482015260640162000427565b6040516323b872dd60e01b815285906001600160a01b038216906323b872dd90620016a090859030908990600401620028af565b6020604051808303816000875af1158015620016c0573d6000803e3d6000fd5b505050506040513d601f19601f82011682018060405250810190620016e69190620028d3565b50506001600160a01b038481166000908152600460209081526040808320898516845290915290205416620017a6576040516323b872dd60e01b815284906001600160a01b038216906323b872dd906200174990859030908890600401620028af565b6020604051808303816000875af115801562001769573d6000803e3d6000fd5b505050506040513d601f19601f820116820180604052508101906200178f9190620028d3565b506200179f8686868686620020d6565b5062001895565b6001600160a01b0384811660008181526004602090815260408083208a861680855290835281842054909516835260038252808320948352939052828120549181529190912054620017fa9085906200290d565b62001806919062002927565b6040516323b872dd60e01b815290925084906001600160a01b038216906323b872dd906200183d90859030908890600401620028af565b6020604051808303816000875af11580156200185d573d6000803e3d6000fd5b505050506040513d601f19601f82011682018060405250810190620018839190620028d3565b50620018938686868686620022a5565b505b6001600160a01b03808516600090815260046020908152604080832089851680855290835281842054909416808452600383528184209484529390915290205462000aaa919087908790620018ec9088906200294a565b6001600160a01b03808a1660008181526004602090815260408083208f86168452825280832054909416825260038152838220928252919091522054620010599088906200294a565b6001600160a01b03838116600090815260046020908152604080832086851684529091528120549091166200199d5760405162461bcd60e51b815260206004820152600d60248201526c34b73b30b634b2103a37b5b2b760991b604482015260640162000427565b60008211620019df5760405162461bcd60e51b815260206004820152600d60248201526c0616d6f756e7420696e203d203609c1b604482015260640162000427565b826001600160a01b0316846001600160a01b031603620019fe57600080fd5b6103e882101562001a625760405162461bcd60e51b815260206004820152602760248201527f7265717569726520616d6f756e74496e203e3d20302e3030303120657468657260448201526639903a37b5b2b760c91b606482015260840162000427565b6001600160a01b038481166000818152600460208181526040808420898716808652908352818520549096168085526003835281852086865290925280842054958452928390205492516323b872dd60e01b815289958995929490939092916323b872dd9162001ad991339130918d9101620028af565b6020604051808303816000875af115801562001af9573d6000803e3d6000fd5b505050506040513d601f19601f8201168201806040525081019062001b1f9190620028d3565b5060006103e862001b33896103e36200290d565b62001b3f919062002927565b90506001600160a01b03861663a9059cbb7f00000000000000000000000000000000000000000000000000000000000000006103e862001b818c60036200290d565b62001b8d919062002927565b6040518363ffffffff1660e01b815260040162001bac92919062002960565b6020604051808303816000875af115801562001bcc573d6000803e3d6000fd5b505050506040513d601f19601f8201168201806040525081019062001bf29190620028d3565b5062001bff81846200294a565b62001c0b82846200290d565b62001c17919062002927565b60405163a9059cbb60e01b81529097506001600160a01b0386169063a9059cbb9062001c4a9033908b9060040162002960565b6020604051808303816000875af115801562001c6a573d6000803e3d6000fd5b505050506040513d601f19601f8201168201806040525081019062001c909190620028d3565b506001600160a01b038085166000908152600360209081526040808320938e1683529290529081205462001cc69083906200294a565b6001600160a01b038087166000908152600360209081526040808320938f168352929052908120549192509062001cff908a9062002979565b905062001d10868d8d858562001e9f565b50505050505050509392505050565b6001600160a01b03808416600090815260046020818152604080842087861685529091528083205490516370a0823160e01b815292931691839183916370a082319162001d7d918891016001600160a01b0391909116815260200190565b602060405180830381865afa15801562001d9b573d6000803e3d6000fd5b505050506040513d601f19601f8201168201806040525081019062001dc19190620029d2565b9695505050505050565b600181815481106200089657600080fd5b60008062001deb86866200294a565b62001df787866200290d565b62001e03919062002927565b905060008562001e1486896200290d565b62001e20919062002927565b9050600062001e30838362002979565b905060008262001e43836127106200290d565b62001e4f919062002927565b90508581111562001e935760405162461bcd60e51b815260206004820152600d60248201526c536c6920746f6f206c6172676560981b604482015260640162000427565b98975050505050505050565b6001600160a01b039485166000908152600360209081526040808320968816835295905284812092909255919093168352912055565b6000600382111562001f43575080600062001ef260028362002927565b62001eff9060016200294a565b90505b8181101562001f3d5790508060028162001f1d818662002927565b62001f2991906200294a565b62001f35919062002927565b905062001f02565b50919050565b811562001f4e575060015b919050565b6040516001600160601b0319606084811b8216602084015283901b16603482015260009081906048016040516020818303038152906040528051906020012090508060405162001fa39062002702565b8190604051809103906000f590508015801562001fc4573d6000803e3d6000fd5b505060006200202962001fd6620025a9565b8051602091820120604080516001600160f81b0319818501526001600160601b03193060601b16602182015260358101879052605580820193909352815180820390930183526075019052805191012090565b600180548082019091557fb10e2d527612073b26eecdfd717e6a320cf44b4afac2b0732d9fcbe2b7fa0cf60180546001600160a01b03199081166001600160a01b0384811691821790935597821660008181526004602081815260408084209b9096168352998a52848220805485168c1790558952838120918152975295208054909516909517909355509192915050565b600081831115620020cd5781620020cf565b825b9392505050565b6000620020e862000cf884866200290d565b9050600080620020f9888862001f53565b9050620021078888620025d8565b6001600160a01b0380891660009081526004602081815260408084208e8616855282528084205485168452908390529182902080546001600160a01b0319163317905590516340c10f1960e01b8152929450908316916340c10f19916200217391889188910162002960565b600060405180830381600087803b1580156200218e57600080fd5b505af1158015620021a3573d6000803e3d6000fd5b505060405163049e820160e41b815260006004820152602481018990526001600160a01b0380861693506340c10f19925033917f0000000000000000000000000000000000000000000000000000000000000000909116906349e8201090604401602060405180830381865afa15801562002222573d6000803e3d6000fd5b505050506040513d601f19601f82011682018060405250810190620022489190620029d2565b6040518363ffffffff1660e01b81526004016200226792919062002960565b600060405180830381600087803b1580156200228257600080fd5b505af115801562002297573d6000803e3d6000fd5b505050505050505050505050565b6001600160a01b0380851660009081526004602081815260408084208a861680865290835281852054909516808552600383528185209585529482528084205481516318160ddd60e01b815291519495869590948694620023fa9486936318160ddd9382810193928290030181865afa15801562002327573d6000803e3d6000fd5b505050506040513d601f19601f820116820180604052508101906200234d9190620029d2565b62002359908a6200290d565b62002365919062002927565b6001600160a01b0380851660009081526003602090815260408083208e851684528252918290205482516318160ddd60e01b8152925190938916926318160ddd9260048083019391928290030181865afa158015620023c8573d6000803e3d6000fd5b505050506040513d601f19601f82011682018060405250810190620023ee9190620029d2565b62000f0d908a6200290d565b6001600160a01b03808a1660009081526005602090815260408083208e85168452909152908190205490516340c10f1960e01b8152908216965093945084939192508316906340c10f199062002457908890859060040162002960565b600060405180830381600087803b1580156200247257600080fd5b505af115801562002487573d6000803e3d6000fd5b505050506001600160a01b0382811660009081526003602090815260408083208d851684529091529081902054905163049e820160e41b8152600481019190915260248101899052858216916340c10f199188917f000000000000000000000000000000000000000000000000000000000000000016906349e8201090604401602060405180830381865afa15801562002525573d6000803e3d6000fd5b505050506040513d601f19601f820116820180604052508101906200254b9190620029d2565b6040518363ffffffff1660e01b81526004016200256a92919062002960565b600060405180830381600087803b1580156200258557600080fd5b505af11580156200259a573d6000803e3d6000fd5b50505050505050505050505050565b6060600060405180602001620025bf9062002702565b601f1982820381018352601f9091011660405292915050565b6040516a2932bbb0b9322a37b5b2b760a91b60208201526001600160601b0319606084811b8216602b84015283901b16603f8201526000908190605301604051602081830303815290604052805190602001209050806040516200263c9062002702565b8190604051809103906000f59050801580156200265d573d6000803e3d6000fd5b505060006200266f62001fd6620025a9565b60028054600181019091557f405787fa12a823e0f2b7631cc41b3ba8828b3321ca811111fa75cd3aa3bb5ace0180546001600160a01b03199081166001600160a01b0384811691821790935597821660008181526005602081815260408084209b9096168352998a52848220805485168c1790558952838120918152975295208054909516909517909355509192915050565b610eba80620029ed83390190565b80356001600160a01b038116811462001f4e57600080fd5b600080600080608085870312156200273f57600080fd5b6200274a8562002710565b93506200275a6020860162002710565b93969395505050506040820135916060013590565b6000806000606084860312156200278557600080fd5b620027908462002710565b95602085013595506040909401359392505050565b60008060408385031215620027b957600080fd5b620027c48362002710565b9150620027d46020840162002710565b90509250929050565b600060208284031215620027f057600080fd5b5035919050565b600080604083850312156200280b57600080fd5b620028168362002710565b946020939093013593505050565b6000806000606084860312156200283a57600080fd5b620028458462002710565b9250620028556020850162002710565b9150604084013590509250925092565b6000806000606084860312156200287b57600080fd5b620028868462002710565b9250620028966020850162002710565b9150620028a66040850162002710565b90509250925092565b6001600160a01b039384168152919092166020820152604081019190915260600190565b600060208284031215620028e657600080fd5b81518015158114620020cf57600080fd5b634e487b7160e01b600052601160045260246000fd5b80820281158282048414176200087f576200087f620028f7565b6000826200294557634e487b7160e01b600052601260045260246000fd5b500490565b808201808211156200087f576200087f620028f7565b6001600160a01b03929092168252602082015260400190565b818103818111156200087f576200087f620028f7565b60208082526023908201527f72657175697265205f616d6f756e7430203e2030202626205f616d6f756e74316040820152620203e360ec1b606082015260800190565b600060208284031215620029e557600080fd5b505191905056fe60806040523480156200001157600080fd5b506040518060400160405280600781526020016636383a37b5b2b760c91b8152506040518060400160405280600381526020016213141560ea1b81525081600390816200005f91906200018c565b5060046200006e82826200018c565b5050506200008b620000856200009160201b60201c565b62000095565b62000258565b3390565b600580546001600160a01b038381166001600160a01b0319831681179093556040519116919082907f8be0079c531659141344cd1fd0a4f28419497f9722a3daafe3b4186f6b6457e090600090a35050565b634e487b7160e01b600052604160045260246000fd5b600181811c908216806200011257607f821691505b6020821081036200013357634e487b7160e01b600052602260045260246000fd5b50919050565b601f8211156200018757600081815260208120601f850160051c81016020861015620001625750805b601f850160051c820191505b8181101562000183578281556001016200016e565b5050505b505050565b81516001600160401b03811115620001a857620001a8620000e7565b620001c081620001b98454620000fd565b8462000139565b602080601f831160018114620001f85760008415620001df5750858301515b600019600386901b1c1916600185901b17855562000183565b600085815260208120601f198616915b82811015620002295788860151825594840194600190910190840162000208565b5085821015620002485787850151600019600388901b60f8161c191681555b5050505050600190811b01905550565b610c5280620002686000396000f3fe608060405234801561001057600080fd5b50600436106101005760003560e01c8063715018a611610097578063a457c2d711610066578063a457c2d714610209578063a9059cbb1461021c578063dd62ed3e1461022f578063f2fde38b1461024257600080fd5b8063715018a6146101cb5780638da5cb5b146101d357806395d89b41146101ee5780639dc29fac146101f657600080fd5b8063313ce567116100d3578063313ce5671461016b578063395093511461017a57806340c10f191461018d57806370a08231146101a257600080fd5b806306fdde0314610105578063095ea7b31461012357806318160ddd1461014657806323b872dd14610158575b600080fd5b61010d610255565b60405161011a9190610a9c565b60405180910390f35b610136610131366004610b06565b6102e7565b604051901515815260200161011a565b6002545b60405190815260200161011a565b610136610166366004610b30565b610301565b6040516012815260200161011a565b610136610188366004610b06565b610325565b6101a061019b366004610b06565b610347565b005b61014a6101b0366004610b6c565b6001600160a01b031660009081526020819052604090205490565b6101a061035d565b6005546040516001600160a01b03909116815260200161011a565b61010d610371565b6101a0610204366004610b06565b610380565b610136610217366004610b06565b610392565b61013661022a366004610b06565b610412565b61014a61023d366004610b8e565b610420565b6101a0610250366004610b6c565b61044b565b60606003805461026490610bc1565b80601f016020809104026020016040519081016040528092919081815260200182805461029090610bc1565b80156102dd5780601f106102b2576101008083540402835291602001916102dd565b820191906000526020600020905b8154815290600101906020018083116102c057829003601f168201915b5050505050905090565b6000336102f58185856104c4565b60019150505b92915050565b60003361030f8582856105e9565b61031a858585610663565b506001949350505050565b6000336102f58185856103388383610420565b6103429190610bfb565b6104c4565b61034f610807565b6103598282610861565b5050565b610365610807565b61036f6000610920565b565b60606004805461026490610bc1565b610388610807565b6103598282610972565b600033816103a08286610420565b9050838110156104055760405162461bcd60e51b815260206004820152602560248201527f45524332303a2064656372656173656420616c6c6f77616e63652062656c6f77604482015264207a65726f60d81b60648201526084015b60405180910390fd5b61031a82868684036104c4565b6000336102f5818585610663565b6001600160a01b03918216600090815260016020908152604080832093909416825291909152205490565b610453610807565b6001600160a01b0381166104b85760405162461bcd60e51b815260206004820152602660248201527f4f776e61626c653a206e6577206f776e657220697320746865207a65726f206160448201526564647265737360d01b60648201526084016103fc565b6104c181610920565b50565b6001600160a01b0383166105265760405162461bcd60e51b8152602060048201526024808201527f45524332303a20617070726f76652066726f6d20746865207a65726f206164646044820152637265737360e01b60648201526084016103fc565b6001600160a01b0382166105875760405162461bcd60e51b815260206004820152602260248201527f45524332303a20617070726f766520746f20746865207a65726f206164647265604482015261737360f01b60648201526084016103fc565b6001600160a01b0383811660008181526001602090815260408083209487168084529482529182902085905590518481527f8c5be1e5ebec7d5bd14f71427d1e84f3dd0314c0f7b2291e5b200ac8c7c3b92591015b60405180910390a3505050565b60006105f58484610420565b9050600019811461065d57818110156106505760405162461bcd60e51b815260206004820152601d60248201527f45524332303a20696e73756666696369656e7420616c6c6f77616e636500000060448201526064016103fc565b61065d84848484036104c4565b50505050565b6001600160a01b0383166106c75760405162461bcd60e51b815260206004820152602560248201527f45524332303a207472616e736665722066726f6d20746865207a65726f206164604482015264647265737360d81b60648201526084016103fc565b6001600160a01b0382166107295760405162461bcd60e51b815260206004820152602360248201527f45524332303a207472616e7366657220746f20746865207a65726f206164647260448201526265737360e81b60648201526084016103fc565b6001600160a01b038316600090815260208190526040902054818110156107a15760405162461bcd60e51b815260206004820152602660248201527f45524332303a207472616e7366657220616d6f756e7420657863656564732062604482015265616c616e636560d01b60648201526084016103fc565b6001600160a01b03848116600081815260208181526040808320878703905593871680835291849020805487019055925185815290927fddf252ad1be2c89b69c2b068fc378daa952ba7f163c4a11628f55a4df523b3ef910160405180910390a361065d565b6005546001600160a01b0316331461036f5760405162461bcd60e51b815260206004820181905260248201527f4f776e61626c653a2063616c6c6572206973206e6f7420746865206f776e657260448201526064016103fc565b6001600160a01b0382166108b75760405162461bcd60e51b815260206004820152601f60248201527f45524332303a206d696e7420746f20746865207a65726f20616464726573730060448201526064016103fc565b80600260008282546108c99190610bfb565b90915550506001600160a01b038216600081815260208181526040808320805486019055518481527fddf252ad1be2c89b69c2b068fc378daa952ba7f163c4a11628f55a4df523b3ef910160405180910390a35050565b600580546001600160a01b038381166001600160a01b0319831681179093556040519116919082907f8be0079c531659141344cd1fd0a4f28419497f9722a3daafe3b4186f6b6457e090600090a35050565b6001600160a01b0382166109d25760405162461bcd60e51b815260206004820152602160248201527f45524332303a206275726e2066726f6d20746865207a65726f206164647265736044820152607360f81b60648201526084016103fc565b6001600160a01b03821660009081526020819052604090205481811015610a465760405162461bcd60e51b815260206004820152602260248201527f45524332303a206275726e20616d6f756e7420657863656564732062616c616e604482015261636560f01b60648201526084016103fc565b6001600160a01b0383166000818152602081815260408083208686039055600280548790039055518581529192917fddf252ad1be2c89b69c2b068fc378daa952ba7f163c4a11628f55a4df523b3ef91016105dc565b600060208083528351808285015260005b81811015610ac957858101830151858201604001528201610aad565b506000604082860101526040601f19601f8301168501019250505092915050565b80356001600160a01b0381168114610b0157600080fd5b919050565b60008060408385031215610b1957600080fd5b610b2283610aea565b946020939093013593505050565b600080600060608486031215610b4557600080fd5b610b4e84610aea565b9250610b5c60208501610aea565b9150604084013590509250925092565b600060208284031215610b7e57600080fd5b610b8782610aea565b9392505050565b60008060408385031215610ba157600080fd5b610baa83610aea565b9150610bb860208401610aea565b90509250929050565b600181811c90821680610bd557607f821691505b602082108103610bf557634e487b7160e01b600052602260045260246000fd5b50919050565b808201808211156102fb57634e487b7160e01b600052601160045260246000fdfea26469706673582212205d0e469d34e39d95aad82c78b22aa778e92694afc7821ea732e932a167865c9c64736f6c63430008130033a2646970667358221220b9b5de7837be8985960164380a541262e8076739e60aafcf36f4d344443fee3a64736f6c63430008130033",
    "linkReferences": {}
  },
  "methodIdentifiers": {
    "ONE_ETH()": "ea3a4c60",
    "addLiquidity(address,address,uint256,uint256)": "cf6c62ea",
    "addLiquidityWithETH(address,uint256)": "5c4f127c",
    "addLiquidityWithFT(address,address,uint256,uint256)": "d9898c7e",
    "getLptoken(address,address)": "cdbb8cd9",
    "getLptokenLength()": "75cd0c77",
    "getReserve(address,address)": "cbc3ab53",
    "getRewardtoken(address,address)": "4e34b8d8",
    "lpTokenAddressList(uint256)": "fe1e0f3f",
    "lptokenTotalSupply(address,address,address)": "e95a464b",
    "removeLiquidity(address,address,uint256)": "d752fab2",
    "rewardTokenAddressList(uint256)": "5215ca5b",
    "swap(address,address,uint256)": "df791e50",
    "swapByLimitSli(address,address,uint256,uint256)": "08d13464",
    "swapToETH(address,uint256,uint256)": "3f9fe0c2",
    "swapWithETH(address,uint256)": "5ede9fcd"
  },
  "id": 4
}