{
  "abi": [
    {
      "inputs": [
        {
          "internalType": "address",
          "name": "_stakingToken",
          "type": "address"
        },
        {
          "internalType": "address",
          "name": "_rewardToken",
          "type": "address"
        }
      ],
      "stateMutability": "nonpayable",
      "type": "constructor"
    },
    {
      "inputs": [
        {
          "internalType": "address",
          "name": "",
          "type": "address"
        }
      ],
      "name": "balanceOf",
      "outputs": [
        {
          "internalType": "uint256",
          "name": "",
          "type": "uint256"
        }
      ],
      "stateMutability": "view",
      "type": "function"
    },
    {
      "inputs": [],
      "name": "duration",
      "outputs": [
        {
          "internalType": "uint256",
          "name": "",
          "type": "uint256"
        }
      ],
      "stateMutability": "view",
      "type": "function"
    },
    {
      "inputs": [
        {
          "internalType": "address",
          "name": "_account",
          "type": "address"
        }
      ],
      "name": "earned",
      "outputs": [
        {
          "internalType": "uint256",
          "name": "",
          "type": "uint256"
        }
      ],
      "stateMutability": "view",
      "type": "function"
    },
    {
      "inputs": [],
      "name": "finishAt",
      "outputs": [
        {
          "internalType": "uint256",
          "name": "",
          "type": "uint256"
        }
      ],
      "stateMutability": "view",
      "type": "function"
    },
    {
      "inputs": [],
      "name": "getBalanceOfContract",
      "outputs": [
        {
          "internalType": "uint256",
          "name": "",
          "type": "uint256"
        }
      ],
      "stateMutability": "view",
      "type": "function"
    },
    {
      "inputs": [],
      "name": "getReward",
      "outputs": [],
      "stateMutability": "nonpayable",
      "type": "function"
    },
    {
      "inputs": [],
      "name": "lastTimeRewardApplicable",
      "outputs": [
        {
          "internalType": "uint256",
          "name": "",
          "type": "uint256"
        }
      ],
      "stateMutability": "view",
      "type": "function"
    },
    {
      "inputs": [
        {
          "internalType": "uint256",
          "name": "_amount",
          "type": "uint256"
        }
      ],
      "name": "notifyRewardAmount",
      "outputs": [],
      "stateMutability": "nonpayable",
      "type": "function"
    },
    {
      "inputs": [],
      "name": "owner",
      "outputs": [
        {
          "internalType": "address",
          "name": "",
          "type": "address"
        }
      ],
      "stateMutability": "view",
      "type": "function"
    },
    {
      "inputs": [
        {
          "internalType": "address",
          "name": "_stakingToken",
          "type": "address"
        },
        {
          "internalType": "address",
          "name": "_rewardToken",
          "type": "address"
        }
      ],
      "name": "resetToken",
      "outputs": [],
      "stateMutability": "nonpayable",
      "type": "function"
    },
    {
      "inputs": [],
      "name": "rewardPerToken",
      "outputs": [
        {
          "internalType": "uint256",
          "name": "",
          "type": "uint256"
        }
      ],
      "stateMutability": "view",
      "type": "function"
    },
    {
      "inputs": [],
      "name": "rewardPerTokenStored",
      "outputs": [
        {
          "internalType": "uint256",
          "name": "",
          "type": "uint256"
        }
      ],
      "stateMutability": "view",
      "type": "function"
    },
    {
      "inputs": [],
      "name": "rewardRate",
      "outputs": [
        {
          "internalType": "uint256",
          "name": "",
          "type": "uint256"
        }
      ],
      "stateMutability": "view",
      "type": "function"
    },
    {
      "inputs": [
        {
          "internalType": "address",
          "name": "",
          "type": "address"
        }
      ],
      "name": "rewards",
      "outputs": [
        {
          "internalType": "uint256",
          "name": "",
          "type": "uint256"
        }
      ],
      "stateMutability": "view",
      "type": "function"
    },
    {
      "inputs": [],
      "name": "rewardsToken",
      "outputs": [
        {
          "internalType": "contract IERC20",
          "name": "",
          "type": "address"
        }
      ],
      "stateMutability": "view",
      "type": "function"
    },
    {
      "inputs": [
        {
          "internalType": "uint256",
          "name": "_duration",
          "type": "uint256"
        }
      ],
      "name": "setRewardsDuration",
      "outputs": [],
      "stateMutability": "nonpayable",
      "type": "function"
    },
    {
      "inputs": [
        {
          "internalType": "uint256",
          "name": "_amount",
          "type": "uint256"
        }
      ],
      "name": "stake",
      "outputs": [],
      "stateMutability": "nonpayable",
      "type": "function"
    },
    {
      "inputs": [],
      "name": "stakingToken",
      "outputs": [
        {
          "internalType": "contract IERC20",
          "name": "",
          "type": "address"
        }
      ],
      "stateMutability": "view",
      "type": "function"
    },
    {
      "inputs": [],
      "name": "totalSupply",
      "outputs": [
        {
          "internalType": "uint256",
          "name": "",
          "type": "uint256"
        }
      ],
      "stateMutability": "view",
      "type": "function"
    },
    {
      "inputs": [],
      "name": "updatedAt",
      "outputs": [
        {
          "internalType": "uint256",
          "name": "",
          "type": "uint256"
        }
      ],
      "stateMutability": "view",
      "type": "function"
    },
    {
      "inputs": [
        {
          "internalType": "address",
          "name": "",
          "type": "address"
        }
      ],
      "name": "userRewardPerTokenPaid",
      "outputs": [
        {
          "internalType": "uint256",
          "name": "",
          "type": "uint256"
        }
      ],
      "stateMutability": "view",
      "type": "function"
    },
    {
      "inputs": [
        {
          "internalType": "uint256",
          "name": "_amount",
          "type": "uint256"
        }
      ],
      "name": "withdraw",
      "outputs": [],
      "stateMutability": "nonpayable",
      "type": "function"
    },
    {
      "inputs": [],
      "name": "withdrawRewardToken",
      "outputs": [],
      "stateMutability": "nonpayable",
      "type": "function"
    }
  ],
  "bytecode": {
    "object": "0x608060405234801561001057600080fd5b50604051610e07380380610e0783398101604081905261002f91610087565b600280546001600160a01b03199081163317909155600080546001600160a01b03948516908316179055600180549290931691161790556100ba565b80516001600160a01b038116811461008257600080fd5b919050565b6000806040838503121561009a57600080fd5b6100a38361006b565b91506100b16020840161006b565b90509250929050565b610d3e806100c96000396000f3fe608060405234801561001057600080fd5b506004361061014c5760003560e01c80637519ab50116100c3578063a694fc3a1161007c578063a694fc3a14610295578063aa7a07e9146102a8578063cc1a378f146102b0578063cd3daf9d146102c3578063d1af0c7d146102cb578063df136d65146102de57600080fd5b80637519ab50146102355780637b0a47ee1461023e57806380faa57d146102475780638b8763471461024f5780638da5cb5b1461026f5780639c3f09be1461028257600080fd5b80632e1a7d4d116101155780632e1a7d4d146101b15780633c6b16ab146101c65780633d18b912146101d957806367d3b488146101e157806370a08231146101ea57806372f702f31461020a57600080fd5b80628cc262146101515780630700037d146101775780630fb5a6b41461019757806318160ddd146101a057806322968885146101a9575b600080fd5b61016461015f366004610bc9565b6102e7565b6040519081526020015b60405180910390f35b610164610185366004610bc9565b60096020526000908152604090205481565b61016460035481565b610164600a5481565b610164610364565b6101c46101bf366004610be4565b6103d6565b005b6101c46101d4366004610be4565b61052b565b6101c4610731565b61016460045481565b6101646101f8366004610bc9565b600b6020526000908152604090205481565b60005461021d906001600160a01b031681565b6040516001600160a01b03909116815260200161016e565b61016460055481565b61016460065481565b6101646107f0565b61016461025d366004610bc9565b60086020526000908152604090205481565b60025461021d906001600160a01b031681565b6101c4610290366004610bfd565b6107fe565b6101c46102a3366004610be4565b610856565b6101c46109ab565b6101c46102be366004610be4565b610ab3565b610164610b33565b60015461021d906001600160a01b031681565b61016460075481565b6001600160a01b0381166000908152600960209081526040808320546008909252822054670de0b6b3a76400009061031d610b33565b6103279190610c46565b6001600160a01b0385166000908152600b602052604090205461034a9190610c59565b6103549190610c70565b61035e9190610c92565b92915050565b6001546040516370a0823160e01b81523060048201526000916001600160a01b0316906370a0823190602401602060405180830381865afa1580156103ad573d6000803e3d6000fd5b505050506040513d601f19601f820116820180604052508101906103d19190610ca5565b905090565b336103df610b33565b6007556103ea6107f0565b6005556001600160a01b0381161561043157610405816102e7565b6001600160a01b0382166000908152600960209081526040808320939093556007546008909152919020555b600082116104735760405162461bcd60e51b815260206004820152600a6024820152690616d6f756e74203d20360b41b60448201526064015b60405180910390fd5b336000908152600b602052604081208054849290610492908490610c46565b9250508190555081600a60008282546104ab9190610c46565b909155505060005460405163a9059cbb60e01b8152336004820152602481018490526001600160a01b039091169063a9059cbb906044015b6020604051808303816000875af1158015610502573d6000803e3d6000fd5b505050506040513d601f19601f820116820180604052508101906105269190610cbe565b505050565b6002546001600160a01b031633146105555760405162461bcd60e51b815260040161046a90610ce0565b600061055f610b33565b60075561056a6107f0565b6005556001600160a01b038116156105b157610585816102e7565b6001600160a01b0382166000908152600960209081526040808320939093556007546008909152919020555b60045442106105cf576003546105c79083610c70565b60065561060b565b6000600654426004546105e29190610c46565b6105ec9190610c59565b6003549091506105fc8285610c92565b6106069190610c70565b600655505b60006006541161064f5760405162461bcd60e51b815260206004820152600f60248201526e07265776172642072617465203d203608c1b604482015260640161046a565b6001546040516370a0823160e01b81523060048201526001600160a01b03909116906370a0823190602401602060405180830381865afa158015610697573d6000803e3d6000fd5b505050506040513d601f19601f820116820180604052508101906106bb9190610ca5565b6003546006546106cb9190610c59565b11156107195760405162461bcd60e51b815260206004820152601760248201527f72657761726420616d6f756e74203e2062616c616e6365000000000000000000604482015260640161046a565b6003546107269042610c92565b600455505042600555565b3361073a610b33565b6007556107456107f0565b6005556001600160a01b0381161561078c57610760816102e7565b6001600160a01b0382166000908152600960209081526040808320939093556007546008909152919020555b3360009081526009602052604090205480156107ec573360008181526009602052604080822091909155600154905163a9059cbb60e01b81526004810192909252602482018390526001600160a01b03169063a9059cbb906044016104e3565b5050565b60006103d160045442610b94565b6002546001600160a01b031633146108285760405162461bcd60e51b815260040161046a90610ce0565b600080546001600160a01b039384166001600160a01b03199182161790915560018054929093169116179055565b3361085f610b33565b60075561086a6107f0565b6005556001600160a01b038116156108b157610885816102e7565b6001600160a01b0382166000908152600960209081526040808320939093556007546008909152919020555b600082116108ee5760405162461bcd60e51b815260206004820152600a6024820152690616d6f756e74203d20360b41b604482015260640161046a565b6000546040516323b872dd60e01b8152336004820152306024820152604481018490526001600160a01b03909116906323b872dd906064016020604051808303816000875af1158015610945573d6000803e3d6000fd5b505050506040513d601f19601f820116820180604052508101906109699190610cbe565b50336000908152600b602052604081208054849290610989908490610c92565b9250508190555081600a60008282546109a29190610c92565b90915550505050565b6002546001600160a01b031633146109d55760405162461bcd60e51b815260040161046a90610ce0565b600454421015610a275760405162461bcd60e51b815260206004820152601960248201527f7374696c6c2070726f6475637420726577617264546f6b656e00000000000000604482015260640161046a565b6001546001600160a01b031663a9059cbb33610a41610364565b6040516001600160e01b031960e085901b1681526001600160a01b03909216600483015260248201526044016020604051808303816000875af1158015610a8c573d6000803e3d6000fd5b505050506040513d601f19601f82011682018060405250810190610ab09190610cbe565b50565b6002546001600160a01b03163314610add5760405162461bcd60e51b815260040161046a90610ce0565b4260045410610b2e5760405162461bcd60e51b815260206004820152601c60248201527f726577617264206475726174696f6e206e6f742066696e697368656400000000604482015260640161046a565b600355565b6000600a54600003610b46575060075490565b600a54600554610b546107f0565b610b5e9190610c46565b600654610b6b9190610c59565b610b7d90670de0b6b3a7640000610c59565b610b879190610c70565b6007546103d19190610c92565b600081831115610ba45781610ba6565b825b9392505050565b80356001600160a01b0381168114610bc457600080fd5b919050565b600060208284031215610bdb57600080fd5b610ba682610bad565b600060208284031215610bf657600080fd5b5035919050565b60008060408385031215610c1057600080fd5b610c1983610bad565b9150610c2760208401610bad565b90509250929050565b634e487b7160e01b600052601160045260246000fd5b8181038181111561035e5761035e610c30565b808202811582820484141761035e5761035e610c30565b600082610c8d57634e487b7160e01b600052601260045260246000fd5b500490565b8082018082111561035e5761035e610c30565b600060208284031215610cb757600080fd5b5051919050565b600060208284031215610cd057600080fd5b81518015158114610ba657600080fd5b6020808252600e908201526d1b9bdd08185d5d1a1bdc9a5e995960921b60408201526060019056fea26469706673582212200a59c6ba2aad6cdba9fb6fde427323d7ddc4f5e14909d9f135b88583862a714864736f6c63430008110033",
    "linkReferences": {}
  },
  "methodIdentifiers": {
    "balanceOf(address)": "70a08231",
    "duration()": "0fb5a6b4",
    "earned(address)": "008cc262",
    "finishAt()": "67d3b488",
    "getBalanceOfContract()": "22968885",
    "getReward()": "3d18b912",
    "lastTimeRewardApplicable()": "80faa57d",
    "notifyRewardAmount(uint256)": "3c6b16ab",
    "owner()": "8da5cb5b",
    "resetToken(address,address)": "9c3f09be",
    "rewardPerToken()": "cd3daf9d",
    "rewardPerTokenStored()": "df136d65",
    "rewardRate()": "7b0a47ee",
    "rewards(address)": "0700037d",
    "rewardsToken()": "d1af0c7d",
    "setRewardsDuration(uint256)": "cc1a378f",
    "stake(uint256)": "a694fc3a",
    "stakingToken()": "72f702f3",
    "totalSupply()": "18160ddd",
    "updatedAt()": "7519ab50",
    "userRewardPerTokenPaid(address)": "8b876347",
    "withdraw(uint256)": "2e1a7d4d",
    "withdrawRewardToken()": "aa7a07e9"
  },
  "id": 2
}